{
  "transactions": [
    {
      "hash": "0x00cb1e777ccf39bf32208854fe319bb22429b0ee06499fa7df97454e79d19a90",
      "transactionType": "CREATE2",
      "contractName": "SwapBridge",
      "contractAddress": "0x1096842f1028ef6f9284ebc431fa0ff329b3c940",
      "function": null,
      "arguments": [
        "0xe0D2d6956c1D9fa49c29A69F2E49f5f176aa27fd"
      ],
      "transaction": {
        "from": "0xe0d2d6956c1d9fa49c29a69f2e49f5f176aa27fd",
        "to": "0x4e59b44847b379578588920ca78fbf26c0b4956c",
        "gas": "0x1b0f8e",
        "value": "0x0",
        "input": "0x6d65726b6c650000000000000000000000000000000000000000000000000000608060405234801561001057600080fd5b5060405161158538038061158583398101604081905261002f916100e7565b806001600160a01b03811661005e57604051631e4fbdf760e01b81526000600482015260240160405180910390fd5b6100678161007b565b50506001805460ff60a01b19169055610117565b600180546001600160a01b031916905561009481610097565b50565b600080546001600160a01b038381166001600160a01b0319831681178455604051919092169283917f8be0079c531659141344cd1fd0a4f28419497f9722a3daafe3b4186f6b6457e09190a35050565b6000602082840312156100f957600080fd5b81516001600160a01b038116811461011057600080fd5b9392505050565b61145f806101266000396000f3fe6080604052600436106100dd5760003560e01c806379ba50971161007f5780639064aa17116100595780639064aa1714610216578063aec42a1714610229578063e30c397814610249578063f2fde38b1461026757600080fd5b806379ba5097146101ba5780638456cb59146101cf5780638da5cb5b146101e457600080fd5b8063485cc955116100bb578063485cc9551461012c5780635c975abb1461014c5780636bc5f1611461017b578063715018a6146101a557600080fd5b80630a3a1c68146100e25780633f4ba83a146100f75780634707d0001461010c575b600080fd5b6100f56100f0366004611170565b610287565b005b34801561010357600080fd5b506100f561064f565b34801561011857600080fd5b506100f5610127366004611225565b610661565b34801561013857600080fd5b506100f5610147366004611225565b610706565b34801561015857600080fd5b50600154600160a01b900460ff1660405190151581526020015b60405180910390f35b34801561018757600080fd5b50610190610779565b60408051928352602083019190915201610172565b3480156101b157600080fd5b506100f561080d565b3480156101c657600080fd5b506100f561081f565b3480156101db57600080fd5b506100f5610868565b3480156101f057600080fd5b506000546001600160a01b03165b6040516001600160a01b039091168152602001610172565b6100f561022436600461125e565b610878565b34801561023557600080fd5b506100f5610244366004611225565b6109fa565b34801561025557600080fd5b506001546001600160a01b03166101fe565b34801561027357600080fd5b506100f5610282366004611293565b610a13565b61028f610a84565b6040516370a0823160e01b81523060048201526000906001600160a01b038916906370a0823190602401602060405180830381865afa1580156102d6573d6000803e3d6000fd5b505050506040513d601f19601f820116820180604052508101906102fa91906112b0565b6040516370a0823160e01b81523060048201529091506000906001600160a01b038816906370a0823190602401602060405180830381865afa158015610344573d6000803e3d6000fd5b505050506040513d601f19601f8201168201806040525081019061036891906112b0565b90506103768933308b610aaf565b600354604080516020601f87018190048102820181019092528581526103c0926001600160a01b0316918790879081908401838280828437600092019190915250610b1c92505050565b506040516370a0823160e01b815230600482015260009082906001600160a01b038a16906370a0823190602401602060405180830381865afa15801561040a573d6000803e3d6000fd5b505050506040513d601f19601f8201168201806040525081019061042e91906112b0565b61043891906112c9565b90508681101561045b576040516342301c2360e01b815260040160405180910390fd5b6040516370a0823160e01b815230600482015260009084906001600160a01b038d16906370a0823190602401602060405180830381865afa1580156104a4573d6000803e3d6000fd5b505050506040513d601f19601f820116820180604052508101906104c891906112b0565b6104d291906112c9565b905080156104e5576104e58b3383610b33565b6104f0898389610b64565b6040516370a0823160e01b815230600482015283906001600160a01b038b16906370a0823190602401602060405180830381865afa158015610536573d6000803e3d6000fd5b505050506040513d601f19601f8201168201806040525081019061055a91906112b0565b11156105e2576040516370a0823160e01b81523060048201526105e2908a90339086906001600160a01b038416906370a08231906024015b602060405180830381865afa1580156105af573d6000803e3d6000fd5b505050506040513d601f19601f820116820180604052508101906105d391906112b0565b6105dd91906112c9565b610b33565b604080516001600160a01b03808e1682528b1660208201529081018b9052606081018990526080810183905260a081018890527fc1eea98a13fec71774f9ff3181e94360e4ff6752d006c9402e4d20d63ede02699060c00160405180910390a15050505050505050505050565b610657610be7565b61065f610c14565b565b610669610be7565b6040516370a0823160e01b81523060048201526000906001600160a01b038416906370a0823190602401602060405180830381865afa1580156106b0573d6000803e3d6000fd5b505050506040513d601f19601f820116820180604052508101906106d491906112b0565b9050806000036106f657604051620f6b2160e41b815260040160405180910390fd5b610701838383610b33565b505050565b61070e610be7565b600154600160a81b900460ff16156107385760405162dc149f60e41b815260040160405180910390fd5b6001805460ff60a81b1916600160a81b179055600280546001600160a01b039384166001600160a01b03199182161790915560038054929093169116179055565b60008060008061078c600160f81b610c69565b6002546040516308d172cd60e31b81529294509092506001600160a01b03169063468b9668906107c2908590859060040161133a565b6040805180830381865afa1580156107de573d6000803e3d6000fd5b505050506040513d601f19601f820116820180604052508101906108029190611378565b909590945092505050565b610815610be7565b61065f6000610cd2565b60015433906001600160a01b0316811461085c5760405163118cdaa760e01b81526001600160a01b03821660048201526024015b60405180910390fd5b61086581610cd2565b50565b610870610be7565b61065f610ceb565b610880610a84565b6040516370a0823160e01b81523060048201526000906001600160a01b038516906370a0823190602401602060405180830381865afa1580156108c7573d6000803e3d6000fd5b505050506040513d601f19601f820116820180604052508101906108eb91906112b0565b90506108f984333086610aaf565b610904848484610b64565b6040516370a0823160e01b815230600482015281906001600160a01b038616906370a0823190602401602060405180830381865afa15801561094a573d6000803e3d6000fd5b505050506040513d601f19601f8201168201806040525081019061096e91906112b0565b11156109aa576040516370a0823160e01b81523060048201526109aa908590339084906001600160a01b038416906370a0823190602401610592565b604080516001600160a01b0386168152602081018590529081018390527fee9c5e832429ef24b4133bb5fe8e24903a86d59ee6536210bc973a52a1c0a5bc9060600160405180910390a150505050565b610a02610a84565b610a0f8282600019610d2e565b5050565b610a1b610be7565b600180546001600160a01b0383166001600160a01b03199091168117909155610a4c6000546001600160a01b031690565b6001600160a01b03167f38d16b8cac22d99fc7c124b9cd0de2d3fa1faef420bfe791d8c362d765e2270060405160405180910390a350565b600154600160a01b900460ff161561065f5760405163d93c066560e01b815260040160405180910390fd5b6040516001600160a01b038481166024830152838116604483015260648201839052610b169186918216906323b872dd906084015b604051602081830303815290604052915060e01b6020820180516001600160e01b038381831617835250505050610dba565b50505050565b6060610b2a83836000610e1d565b90505b92915050565b6040516001600160a01b0383811660248301526044820183905261070191859182169063a9059cbb90606401610ae4565b600080610b7083610c69565b600254604051633b5484cd60e11b81529294509092506001600160a01b0316906376a9099a903490610bae90899088908a908990899060040161139c565b6000604051808303818588803b158015610bc757600080fd5b505af1158015610bdb573d6000803e3d6000fd5b50505050505050505050565b6000546001600160a01b0316331461065f5760405163118cdaa760e01b8152336004820152602401610853565b610c1c610ebc565b6001805460ff60a01b191690557f5db9ee0a495bf2e6ff9c91a7834c1ba4fdd244a5e8aa4e537bd38aeae4b073aa335b6040516001600160a01b03909116815260200160405180910390a1565b604080518082019091526000808252602082015260606040518060400160405280336001600160a01b0316815260200160006001600160a01b03168152509150610ccb61271060405180604001604052806126b0815260200186815250610ee6565b9050915091565b600180546001600160a01b031916905561086581610fde565b610cf3610a84565b6001805460ff60a01b1916600160a01b1790557f62e78cea01bee320cd4e420270b5ea74000d11b0c9f74754ebdbfc544b05a258610c4c3390565b604080516001600160a01b038416602482015260448082018490528251808303909101815260649091019091526020810180516001600160e01b031663095ea7b360e01b179052610d7f848261102e565b610b16576040516001600160a01b03848116602483015260006044830152610db491869182169063095ea7b390606401610ae4565b610b1684825b6000610dcf6001600160a01b03841683610b1c565b90508051600014158015610df4575080806020019051810190610df291906113eb565b155b1561070157604051635274afe760e01b81526001600160a01b0384166004820152602401610853565b606081471015610e425760405163cd78605960e01b8152306004820152602401610853565b600080856001600160a01b03168486604051610e5e919061140d565b60006040518083038185875af1925050503d8060008114610e9b576040519150601f19603f3d011682016040523d82523d6000602084013e610ea0565b606091505b5091509150610eb08683836110d6565b925050505b9392505050565b600154600160a01b900460ff1661065f57604051638dfc202b60e01b815260040160405180910390fd5b8051606090610f455760405162461bcd60e51b815260206004820152602560248201527f41697264726f7020616d6f756e74206d75737420626520677265617465722074604482015264068616e20360dc1b6064820152608401610853565b6020820151610f965760405162461bcd60e51b815260206004820152601b60248201527f41697264726f702061646472657373206d7573742062652073657400000000006044820152606401610853565b8151602080840151604051600160f11b928101929092526022820186905260428201929092526062810191909152608201604051602081830303815290604052905092915050565b600080546001600160a01b038381166001600160a01b0319831681178455604051919092169283917f8be0079c531659141344cd1fd0a4f28419497f9722a3daafe3b4186f6b6457e09190a35050565b6000806000846001600160a01b03168460405161104b919061140d565b6000604051808303816000865af19150503d8060008114611088576040519150601f19603f3d011682016040523d82523d6000602084013e61108d565b606091505b50915091508180156110b75750805115806110b75750808060200190518101906110b791906113eb565b80156110cd57506000856001600160a01b03163b115b95945050505050565b6060826110eb576110e682611132565b610eb5565b815115801561110257506001600160a01b0384163b155b1561112b57604051639996b31560e01b81526001600160a01b0385166004820152602401610853565b5080610eb5565b8051156111425780518082602001fd5b604051630a12f52160e11b815260040160405180910390fd5b6001600160a01b038116811461086557600080fd5b600080600080600080600060c0888a03121561118b57600080fd5b87356111968161115b565b96506020880135955060408801356111ad8161115b565b9450606088013593506080880135925060a088013567ffffffffffffffff808211156111d857600080fd5b818a0191508a601f8301126111ec57600080fd5b8135818111156111fb57600080fd5b8b602082850101111561120d57600080fd5b60208301945080935050505092959891949750929550565b6000806040838503121561123857600080fd5b82356112438161115b565b915060208301356112538161115b565b809150509250929050565b60008060006060848603121561127357600080fd5b833561127e8161115b565b95602085013595506040909401359392505050565b6000602082840312156112a557600080fd5b8135610eb58161115b565b6000602082840312156112c257600080fd5b5051919050565b81810381811115610b2d57634e487b7160e01b600052601160045260246000fd5b60005b838110156113055781810151838201526020016112ed565b50506000910152565b600081518084526113268160208601602086016112ea565b601f01601f19169290920160200192915050565b61135a818480516001600160a01b03908116835260209182015116910152565b606060408201526000611370606083018461130e565b949350505050565b6000806040838503121561138b57600080fd5b505080516020909101519092909150565b6001600160a01b03868116825260208083018790526040830186905284518216606084015284015116608082015260c060a082015260006113e060c083018461130e565b979650505050505050565b6000602082840312156113fd57600080fd5b81518015158114610eb557600080fd5b6000825161141f8184602087016112ea565b919091019291505056fea2646970667358221220f14f755dc69892d8c32036b36437520130c6b2959cf6cedf1372d16400c9cdb664736f6c63430008190033000000000000000000000000e0d2d6956c1d9fa49c29a69f2e49f5f176aa27fd",
        "nonce": "0x12",
        "chainId": "0xa"
      },
      "additionalContracts": [],
      "isFixedGasLimit": false
    },
    {
      "hash": "0x5aabff6b9e01255f0549b44a6ea4aa291342a8d58effbf8e53001507305162b3",
      "transactionType": "CALL",
      "contractName": "SwapBridge",
      "contractAddress": "0x1096842f1028ef6f9284ebc431fa0ff329b3c940",
      "function": "initialize(address,address)",
      "arguments": [
        "0x86Bb63148d17d445Ed5398ef26Aa05Bf76dD5b59",
        "0x6A000F20005980200259B80c5102003040001068"
      ],
      "transaction": {
        "from": "0xe0d2d6956c1d9fa49c29a69f2e49f5f176aa27fd",
        "to": "0x1096842f1028ef6f9284ebc431fa0ff329b3c940",
        "gas": "0x1ea81",
        "value": "0x0",
        "input": "0x485cc95500000000000000000000000086bb63148d17d445ed5398ef26aa05bf76dd5b590000000000000000000000006a000f20005980200259b80c5102003040001068",
        "nonce": "0x13",
        "chainId": "0xa"
      },
      "additionalContracts": [],
      "isFixedGasLimit": false
    },
    {
      "hash": "0xd720ee1f0704d097c548adfd5b84c0c79c1ef4b1fad5d9577652401b77535466",
      "transactionType": "CALL",
      "contractName": "SwapBridge",
      "contractAddress": "0x1096842f1028ef6f9284ebc431fa0ff329b3c940",
      "function": "approveMax(address,address)",
      "arguments": [
        "0x7F5c764cBc14f9669B88837ca1490cCa17c31607",
        "0x86Bb63148d17d445Ed5398ef26Aa05Bf76dD5b59"
      ],
      "transaction": {
        "from": "0xe0d2d6956c1d9fa49c29a69f2e49f5f176aa27fd",
        "to": "0x1096842f1028ef6f9284ebc431fa0ff329b3c940",
        "gas": "0x141ce",
        "value": "0x0",
        "input": "0xaec42a170000000000000000000000007f5c764cbc14f9669b88837ca1490cca17c3160700000000000000000000000086bb63148d17d445ed5398ef26aa05bf76dd5b59",
        "nonce": "0x14",
        "chainId": "0xa"
      },
      "additionalContracts": [],
      "isFixedGasLimit": false
    },
    {
      "hash": "0x0f97b60613d02ffa6d7222031b77ec912699ef87b42e388c7c7bdb726050f67f",
      "transactionType": "CALL",
      "contractName": "SwapBridge",
      "contractAddress": "0x1096842f1028ef6f9284ebc431fa0ff329b3c940",
      "function": "approveMax(address,address)",
      "arguments": [
        "0x0b2C639c533813f4Aa9D7837CAf62653d097Ff85",
        "0x6A000F20005980200259B80c5102003040001068"
      ],
      "transaction": {
        "from": "0xe0d2d6956c1d9fa49c29a69f2e49f5f176aa27fd",
        "to": "0x1096842f1028ef6f9284ebc431fa0ff329b3c940",
        "gas": "0x16212",
        "value": "0x0",
        "input": "0xaec42a170000000000000000000000000b2c639c533813f4aa9d7837caf62653d097ff850000000000000000000000006a000f20005980200259b80c5102003040001068",
        "nonce": "0x15",
        "chainId": "0xa"
      },
      "additionalContracts": [],
      "isFixedGasLimit": false
    },
    {
      "hash": "0xfb0f199c2c271ac4c6f401b4c6f817b939d3ee3157f88c58c369fa7ca44cfbd8",
      "transactionType": "CALL",
      "contractName": "SwapBridge",
      "contractAddress": "0x1096842f1028ef6f9284ebc431fa0ff329b3c940",
      "function": "approveMax(address,address)",
      "arguments": [
        "0xDA10009cBd5D07dd0CeCc66161FC93D7c9000da1",
        "0x6A000F20005980200259B80c5102003040001068"
      ],
      "transaction": {
        "from": "0xe0d2d6956c1d9fa49c29a69f2e49f5f176aa27fd",
        "to": "0x1096842f1028ef6f9284ebc431fa0ff329b3c940",
        "gas": "0x12c53",
        "value": "0x0",
        "input": "0xaec42a17000000000000000000000000da10009cbd5d07dd0cecc66161fc93d7c9000da10000000000000000000000006a000f20005980200259b80c5102003040001068",
        "nonce": "0x16",
        "chainId": "0xa"
      },
      "additionalContracts": [],
      "isFixedGasLimit": false
    },
    {
      "hash": "0x6eef574d17de8e7cfdeedc880699857984a7bf25f7b153f4c0a9891e0092f5c1",
      "transactionType": "CALL",
      "contractName": "SwapBridge",
      "contractAddress": "0x1096842f1028ef6f9284ebc431fa0ff329b3c940",
      "function": "approveMax(address,address)",
      "arguments": [
        "0x94b008aA00579c1307B0EF2c499aD98a8ce58e58",
        "0x6A000F20005980200259B80c5102003040001068"
      ],
      "transaction": {
        "from": "0xe0d2d6956c1d9fa49c29a69f2e49f5f176aa27fd",
        "to": "0x1096842f1028ef6f9284ebc431fa0ff329b3c940",
        "gas": "0x12e33",
        "value": "0x0",
        "input": "0xaec42a1700000000000000000000000094b008aa00579c1307b0ef2c499ad98a8ce58e580000000000000000000000006a000f20005980200259b80c5102003040001068",
        "nonce": "0x17",
        "chainId": "0xa"
      },
      "additionalContracts": [],
      "isFixedGasLimit": false
    }
  ],
  "receipts": [
    {
      "status": "0x1",
      "cumulativeGasUsed": "0x1b11ea7",
      "logs": [
        {
          "address": "0x1096842f1028ef6f9284ebc431fa0ff329b3c940",
          "topics": [
            "0x8be0079c531659141344cd1fd0a4f28419497f9722a3daafe3b4186f6b6457e0",
            "0x0000000000000000000000000000000000000000000000000000000000000000",
            "0x000000000000000000000000e0d2d6956c1d9fa49c29a69f2e49f5f176aa27fd"
          ],
          "data": "0x",
          "blockHash": "0x9438c92c9cb3041e2836b750d77c544daab7e5755b66b48207f1fa0fb29030ea",
          "blockNumber": "0x7418421",
          "transactionHash": "0x00cb1e777ccf39bf32208854fe319bb22429b0ee06499fa7df97454e79d19a90",
          "transactionIndex": "0xe",
          "logIndex": "0x137",
          "removed": false
        }
      ],
      "logsBloom": "0x00000000000000000000000000000000000000000000000000800000000000000000000000000000000000000000000000000000000000000000000000000000002000000000000000000000000000000001000000000010000000000000000000000000020000000000000000000800000000000000000100000000000000400000000000000000000000000000000000000000000000000000000000000000000000000000002000000000000000000000000000000040000000000000000000000000000000000000000000000000000000000000000000000000000020010000000000000000000000000000000000000000000000000000000000000000",
      "type": "0x2",
      "transactionHash": "0x00cb1e777ccf39bf32208854fe319bb22429b0ee06499fa7df97454e79d19a90",
      "transactionIndex": "0xe",
      "blockHash": "0x9438c92c9cb3041e2836b750d77c544daab7e5755b66b48207f1fa0fb29030ea",
      "blockNumber": "0x7418421",
      "gasUsed": "0x128227",
      "effectiveGasPrice": "0x3900229",
      "from": "0xe0d2d6956c1d9fa49c29a69f2e49f5f176aa27fd",
      "to": "0x4e59b44847b379578588920ca78fbf26c0b4956c",
      "contractAddress": "0x1096842f1028ef6f9284ebc431fa0ff329b3c940",
      "l1BaseFeeScalar": "0x558",
      "l1BlobBaseFee": "0x6a",
      "l1BlobBaseFeeScalar": "0xc5fc5",
      "l1Fee": "0x77d5cd028f",
      "l1GasPrice": "0xfce9ad54",
      "l1GasUsed": "0x15a5c"
    },
    {
      "status": "0x1",
      "cumulativeGasUsed": "0x2685e8",
      "logs": [],
      "logsBloom": "0x00000000000000000000000000000000000000000000000000000000000000000000000000000000000000000000000000000000000000000000000000000000000000000000000000000000000000000000000000000000000000000000000000000000000000000000000000000000000000000000000000000000000000000000000000000000000000000000000000000000000000000000000000000000000000000000000000000000000000000000000000000000000000000000000000000000000000000000000000000000000000000000000000000000000000000000000000000000000000000000000000000000000000000000000000000000",
      "type": "0x2",
      "transactionHash": "0x5aabff6b9e01255f0549b44a6ea4aa291342a8d58effbf8e53001507305162b3",
      "transactionIndex": "0x13",
      "blockHash": "0xbd97adda20948a7df6ebed1686b7415980e8a2fb73f068ec9009f7cbfb488172",
      "blockNumber": "0x7418424",
      "gasUsed": "0x1631f",
      "effectiveGasPrice": "0x39cfb2d",
      "from": "0xe0d2d6956c1d9fa49c29a69f2e49f5f176aa27fd",
      "to": "0x1096842f1028ef6f9284ebc431fa0ff329b3c940",
      "contractAddress": null,
      "l1BaseFeeScalar": "0x558",
      "l1BlobBaseFee": "0x6a",
      "l1BlobBaseFeeScalar": "0xc5fc5",
      "l1Fee": "0x3651d4959",
      "l1GasPrice": "0xfce9ad54",
      "l1GasUsed": "0x9d0"
    },
    {
      "status": "0x1",
      "cumulativeGasUsed": "0x3bfb98",
      "logs": [
        {
          "address": "0x7f5c764cbc14f9669b88837ca1490cca17c31607",
          "topics": [
            "0x8c5be1e5ebec7d5bd14f71427d1e84f3dd0314c0f7b2291e5b200ac8c7c3b925",
            "0x0000000000000000000000001096842f1028ef6f9284ebc431fa0ff329b3c940",
            "0x00000000000000000000000086bb63148d17d445ed5398ef26aa05bf76dd5b59"
          ],
          "data": "0xffffffffffffffffffffffffffffffffffffffffffffffffffffffffffffffff",
          "blockHash": "0x94e4d64ba782c33ca568a56673229aaf6d4fe1bd5b2606914f7de8d143d36846",
          "blockNumber": "0x7418428",
          "transactionHash": "0xd720ee1f0704d097c548adfd5b84c0c79c1ef4b1fad5d9577652401b77535466",
          "transactionIndex": "0x27",
          "logIndex": "0x71",
          "removed": false
        }
      ],
      "logsBloom": "0x00000000000000000000008000000000000000000000000000000000000000000000000000000000000000000000000000000040000000000000000000200000000000000000000000000000000000000000000000000000100000000000000000000000000000000000000000000000000000000000000000000000000000000000000000000000000000000000000000000000000000000000000000000000020000000020000000000000000000000000000000000000000000000000000000000000000000000000000000000000000000000000000000000000000000000010000000000000000000000000000000010000000000000008000001010000",
      "type": "0x2",
      "transactionHash": "0xd720ee1f0704d097c548adfd5b84c0c79c1ef4b1fad5d9577652401b77535466",
      "transactionIndex": "0x27",
      "blockHash": "0x94e4d64ba782c33ca568a56673229aaf6d4fe1bd5b2606914f7de8d143d36846",
      "blockNumber": "0x7418428",
      "gasUsed": "0xe8fc",
      "effectiveGasPrice": "0x3a76145",
      "from": "0xe0d2d6956c1d9fa49c29a69f2e49f5f176aa27fd",
      "to": "0x1096842f1028ef6f9284ebc431fa0ff329b3c940",
      "contractAddress": null,
      "l1BaseFeeScalar": "0x558",
      "l1BlobBaseFee": "0x78",
      "l1BlobBaseFeeScalar": "0xc5fc5",
      "l1Fee": "0x353da825e",
      "l1GasPrice": "0xf33dedbb",
      "l1GasUsed": "0xa00"
    },
    {
      "status": "0x1",
      "cumulativeGasUsed": "0x154e30",
      "logs": [
        {
          "address": "0x0b2c639c533813f4aa9d7837caf62653d097ff85",
          "topics": [
            "0x8c5be1e5ebec7d5bd14f71427d1e84f3dd0314c0f7b2291e5b200ac8c7c3b925",
            "0x0000000000000000000000001096842f1028ef6f9284ebc431fa0ff329b3c940",
            "0x0000000000000000000000006a000f20005980200259b80c5102003040001068"
          ],
          "data": "0xffffffffffffffffffffffffffffffffffffffffffffffffffffffffffffffff",
          "blockHash": "0xa539928405cbd5e72f54f69b59bb6a8b1c9dcd9324b5129bda11b8e29e5eb3e2",
          "blockNumber": "0x741842c",
          "transactionHash": "0x0f97b60613d02ffa6d7222031b77ec912699ef87b42e388c7c7bdb726050f67f",
          "transactionIndex": "0x13",
          "logIndex": "0xe",
          "removed": false
        }
      ],
      "logsBloom": "0x00002000000000000000000000000000000000080000000000000000000000000000000000000000000000000000000000000000000000000000000000200000000000000000000000000000000000000000000000000000100000000000000000000000000000000000000000000000000000000000000000000000001100000000000000000000000000000000000000000000000000000000000002000000020000000020000000000040000000000000000000000000000000000000000000000000000000000000000000000000000000000000000000000000000000000010000000000000000000000000000000010000000000000000000000000000",
      "type": "0x2",
      "transactionHash": "0x0f97b60613d02ffa6d7222031b77ec912699ef87b42e388c7c7bdb726050f67f",
      "transactionIndex": "0x13",
      "blockHash": "0xa539928405cbd5e72f54f69b59bb6a8b1c9dcd9324b5129bda11b8e29e5eb3e2",
      "blockNumber": "0x741842c",
      "gasUsed": "0xf21a",
      "effectiveGasPrice": "0x3a56c8c",
      "from": "0xe0d2d6956c1d9fa49c29a69f2e49f5f176aa27fd",
      "to": "0x1096842f1028ef6f9284ebc431fa0ff329b3c940",
      "contractAddress": null,
      "l1BaseFeeScalar": "0x558",
      "l1BlobBaseFee": "0x87",
      "l1BlobBaseFeeScalar": "0xc5fc5",
      "l1Fee": "0x35e03471c",
      "l1GasPrice": "0xfc0cdbd4",
      "l1GasUsed": "0x9c4"
    },
    {
      "status": "0x1",
      "cumulativeGasUsed": "0x2ec9ab",
      "logs": [
        {
          "address": "0xda10009cbd5d07dd0cecc66161fc93d7c9000da1",
          "topics": [
            "0x8c5be1e5ebec7d5bd14f71427d1e84f3dd0314c0f7b2291e5b200ac8c7c3b925",
            "0x0000000000000000000000001096842f1028ef6f9284ebc431fa0ff329b3c940",
            "0x0000000000000000000000006a000f20005980200259b80c5102003040001068"
          ],
          "data": "0xffffffffffffffffffffffffffffffffffffffffffffffffffffffffffffffff",
          "blockHash": "0x7673e82f3c53878c01d2ed3fa52deaacab0ea50f9010efb6bec9e5522478af00",
          "blockNumber": "0x741842f",
          "transactionHash": "0xfb0f199c2c271ac4c6f401b4c6f817b939d3ee3157f88c58c369fa7ca44cfbd8",
          "transactionIndex": "0x15",
          "logIndex": "0x5f",
          "removed": false
        }
      ],
      "logsBloom": "0x00000000000000000000000000000000000000000000000000000000000000000000000000000000000000000000000000000000000000000000000000200000000000000000000001000000000000000000000000000000100000000000000000000000000000000000000000000000000000000000000000000000001100000000000000000000000000000000000000000000000000000000000000000000020000000020000000000040000000000000000000000000000000000000000000000000000000000000000000000000200000000000000000000000000000000010000020000000000000000000000000010000000000000000000000000000",
      "type": "0x2",
      "transactionHash": "0xfb0f199c2c271ac4c6f401b4c6f817b939d3ee3157f88c58c369fa7ca44cfbd8",
      "transactionIndex": "0x15",
      "blockHash": "0x7673e82f3c53878c01d2ed3fa52deaacab0ea50f9010efb6bec9e5522478af00",
      "blockNumber": "0x741842f",
      "gasUsed": "0xcd5a",
      "effectiveGasPrice": "0x39e077f",
      "from": "0xe0d2d6956c1d9fa49c29a69f2e49f5f176aa27fd",
      "to": "0x1096842f1028ef6f9284ebc431fa0ff329b3c940",
      "contractAddress": null,
      "l1BaseFeeScalar": "0x558",
      "l1BlobBaseFee": "0x87",
      "l1BlobBaseFeeScalar": "0xc5fc5",
      "l1Fee": "0x359e00954",
      "l1GasPrice": "0xfc0cdbd4",
      "l1GasUsed": "0x9b8"
    },
    {
      "status": "0x1",
      "cumulativeGasUsed": "0x4252b2",
      "logs": [
        {
          "address": "0x94b008aa00579c1307b0ef2c499ad98a8ce58e58",
          "topics": [
            "0x8c5be1e5ebec7d5bd14f71427d1e84f3dd0314c0f7b2291e5b200ac8c7c3b925",
            "0x0000000000000000000000001096842f1028ef6f9284ebc431fa0ff329b3c940",
            "0x0000000000000000000000006a000f20005980200259b80c5102003040001068"
          ],
          "data": "0xffffffffffffffffffffffffffffffffffffffffffffffffffffffffffffffff",
          "blockHash": "0x0dad463315ae719cbe6b468fd95d80705b7cbb21a15ef6902efb0ff251977064",
          "blockNumber": "0x7418433",
          "transactionHash": "0x6eef574d17de8e7cfdeedc880699857984a7bf25f7b153f4c0a9891e0092f5c1",
          "transactionIndex": "0x23",
          "logIndex": "0x71",
          "removed": false
        }
      ],
      "logsBloom": "0x00000000000000000000000000000000000000000000000000000000000000000000000000000000000000000000000000000000000000000000004000200000000000000000000000000000000000000000000000000000100000000000000000000000000000000000000000000000000000000000000000000000001100000000000000000000000000000000000000000000000000000000000000000000020000000020000000000040000000000000000000000000000000000000000000000000000000000000000000000000000000000000000000000000000000000010000800000000000000000000000000010000000008000000000000000000",
      "type": "0x2",
      "transactionHash": "0x6eef574d17de8e7cfdeedc880699857984a7bf25f7b153f4c0a9891e0092f5c1",
      "transactionIndex": "0x23",
      "blockHash": "0x0dad463315ae719cbe6b468fd95d80705b7cbb21a15ef6902efb0ff251977064",
      "blockNumber": "0x7418433",
      "gasUsed": "0xcea2",
      "effectiveGasPrice": "0x3a88ecb",
      "from": "0xe0d2d6956c1d9fa49c29a69f2e49f5f176aa27fd",
      "to": "0x1096842f1028ef6f9284ebc431fa0ff329b3c940",
      "contractAddress": null,
      "l1BaseFeeScalar": "0x558",
      "l1BlobBaseFee": "0x98",
      "l1BlobBaseFeeScalar": "0xc5fc5",
      "l1Fee": "0x368a951f4",
      "l1GasPrice": "0xff29f000",
      "l1GasUsed": "0x9c4"
    }
  ],
  "libraries": [],
  "pending": [],
  "returns": {},
  "timestamp": 1719067190,
  "chain": 10,
  "commit": "abf13da"
}