{
  "transactions": [
    {
      "hash": "0xada0b98c061ab58c21ffdfa8afedb3ded61d2e9a8bed38aaa493b0fbda185487",
      "transactionType": "CREATE2",
      "contractName": "SwapBridge",
      "contractAddress": "0xd8360Ec5d0B109280482F5a0762fED2339A1F949",
      "function": null,
      "arguments": [
        "0x488863D609F3A673875a914fBeE7508a1DE45eC6"
      ],
      "transaction": {
        "type": "0x02",
        "from": "0xe0d2d6956c1d9fa49c29a69f2e49f5f176aa27fd",
        "to": "0x4e59b44847b379578588920ca78fbf26c0b4956c",
        "gas": "0x13933c",
        "value": "0x0",
        "data": "0xfa1d23fff7000000000000000000000000000000000000000000000000000000608060405234801561001057600080fd5b50604051610ff9380380610ff983398101604081905261002f916100d4565b338061005557604051631e4fbdf760e01b81526000600482015260240160405180910390fd5b61005e81610084565b50600180546001600160a01b0319166001600160a01b0392909216919091179055610104565b600080546001600160a01b038381166001600160a01b0319831681178455604051919092169283917f8be0079c531659141344cd1fd0a4f28419497f9722a3daafe3b4186f6b6457e09190a35050565b6000602082840312156100e657600080fd5b81516001600160a01b03811681146100fd57600080fd5b9392505050565b610ee6806101136000396000f3fe60806040526004361061007b5760003560e01c80639064aa171161004e5780639064aa171461010e578063aec42a1714610121578063f2fde38b14610141578063f316d2271461016157600080fd5b80634707d000146100805780636bc5f161146100a2578063715018a6146100d15780638da5cb5b146100e6575b600080fd5b34801561008c57600080fd5b506100a061009b366004610c06565b610174565b005b3480156100ae57600080fd5b506100b7610242565b604080519283526020830191909152015b60405180910390f35b3480156100dd57600080fd5b506100a06102d6565b3480156100f257600080fd5b506000546040516001600160a01b0390911681526020016100c8565b6100a061011c366004610c3f565b6102ea565b34801561012d57600080fd5b506100a061013c366004610c06565b6103aa565b34801561014d57600080fd5b506100a061015c366004610c74565b6103bb565b6100a061016f366004610c91565b6103f9565b61017c61062c565b6040516370a0823160e01b81523060048201526000906001600160a01b038416906370a0823190602401602060405180830381865afa1580156101c3573d6000803e3d6000fd5b505050506040513d601f19601f820116820180604052508101906101e79190610d58565b9050600081116102325760405162461bcd60e51b81526020600482015260116024820152704e6f7468696e6720746f2072657363756560781b60448201526064015b60405180910390fd5b61023d838383610659565b505050565b600080600080610255600160f81b6106b8565b6001546040516308d172cd60e31b81529294509092506001600160a01b03169063468b96689061028b9085908590600401610dc1565b6040805180830381865afa1580156102a7573d6000803e3d6000fd5b505050506040513d601f19601f820116820180604052508101906102cb9190610dff565b909590945092505050565b6102de61062c565b6102e86000610721565b565b6102f683333085610771565b6103018383836107b0565b6040516370a0823160e01b81523060048201526001600160a01b038416906370a0823190602401602060405180830381865afa158015610345573d6000803e3d6000fd5b505050506040513d601f19601f820116820180604052508101906103699190610d58565b1561023d5760405162461bcd60e51b8152602060048201526011602482015270746f546f6b656e2072656d61696e696e6760781b6044820152606401610229565b6103b78282600019610827565b5050565b6103c361062c565b6001600160a01b0381166103ed57604051631e4fbdf760e01b815260006004820152602401610229565b6103f681610721565b50565b6104058833308a610771565b6104458383838080601f0160208091040260200160405190810160405280939291908181526020018383808284376000920191909152506108b792505050565b506040516370a0823160e01b81523060048201526000906001600160a01b038816906370a0823190602401602060405180830381865afa15801561048d573d6000803e3d6000fd5b505050506040513d601f19601f820116820180604052508101906104b19190610d58565b9050858110156104ee5760405162461bcd60e51b81526020600482015260086024820152671d1bd05b5bdd5b9d60c21b6044820152606401610229565b6040516370a0823160e01b81523060048201526000906001600160a01b038b16906370a0823190602401602060405180830381865afa158015610535573d6000803e3d6000fd5b505050506040513d601f19601f820116820180604052508101906105599190610d58565b9050801561056c5761056c8a3383610659565b6105778883886107b0565b6040516370a0823160e01b81523060048201526001600160a01b038916906370a0823190602401602060405180830381865afa1580156105bb573d6000803e3d6000fd5b505050506040513d601f19601f820116820180604052508101906105df9190610d58565b156106205760405162461bcd60e51b8152602060048201526011602482015270746f546f6b656e2072656d61696e696e6760781b6044820152606401610229565b50505050505050505050565b6000546001600160a01b031633146102e85760405163118cdaa760e01b8152336004820152602401610229565b6040516001600160a01b0383811660248301526044820183905261023d91859182169063a9059cbb906064015b604051602081830303815290604052915060e01b6020820180516001600160e01b0383818316178352505050506108cc565b604080518082019091526000808252602082015260606040518060400160405280336001600160a01b0316815260200160006001600160a01b0316815250915061071a61271060405180604001604052806126b081526020018681525061092f565b9050915091565b600080546001600160a01b038381166001600160a01b0319831681178455604051919092169283917f8be0079c531659141344cd1fd0a4f28419497f9722a3daafe3b4186f6b6457e09190a35050565b6040516001600160a01b0384811660248301528381166044830152606482018390526107aa9186918216906323b872dd90608401610686565b50505050565b6000806107bc836106b8565b600154604051633b5484cd60e11b81529294509092506001600160a01b0316906376a9099a9034906107fa90899088908a9089908990600401610e23565b6000604051808303818588803b15801561081357600080fd5b505af1158015610620573d6000803e3d6000fd5b604080516001600160a01b038416602482015260448082018490528251808303909101815260649091019091526020810180516001600160e01b031663095ea7b360e01b1790526108788482610a27565b6107aa576040516001600160a01b038481166024830152600060448301526108ad91869182169063095ea7b390606401610686565b6107aa84826108cc565b60606108c583836000610acf565b9392505050565b60006108e16001600160a01b038416836108b7565b905080516000141580156109065750808060200190518101906109049190610e72565b155b1561023d57604051635274afe760e01b81526001600160a01b0384166004820152602401610229565b805160609061098e5760405162461bcd60e51b815260206004820152602560248201527f41697264726f7020616d6f756e74206d75737420626520677265617465722074604482015264068616e20360dc1b6064820152608401610229565b60208201516109df5760405162461bcd60e51b815260206004820152601b60248201527f41697264726f702061646472657373206d7573742062652073657400000000006044820152606401610229565b8151602080840151604051600160f11b928101929092526022820186905260428201929092526062810191909152608201604051602081830303815290604052905092915050565b6000806000846001600160a01b031684604051610a449190610e94565b6000604051808303816000865af19150503d8060008114610a81576040519150601f19603f3d011682016040523d82523d6000602084013e610a86565b606091505b5091509150818015610ab0575080511580610ab0575080806020019051810190610ab09190610e72565b8015610ac657506000856001600160a01b03163b115b95945050505050565b606081471015610af45760405163cd78605960e01b8152306004820152602401610229565b600080856001600160a01b03168486604051610b109190610e94565b60006040518083038185875af1925050503d8060008114610b4d576040519150601f19603f3d011682016040523d82523d6000602084013e610b52565b606091505b5091509150610b62868383610b6c565b9695505050505050565b606082610b8157610b7c82610bc8565b6108c5565b8151158015610b9857506001600160a01b0384163b155b15610bc157604051639996b31560e01b81526001600160a01b0385166004820152602401610229565b50806108c5565b805115610bd85780518082602001fd5b604051630a12f52160e11b815260040160405180910390fd5b6001600160a01b03811681146103f657600080fd5b60008060408385031215610c1957600080fd5b8235610c2481610bf1565b91506020830135610c3481610bf1565b809150509250929050565b600080600060608486031215610c5457600080fd5b8335610c5f81610bf1565b95602085013595506040909401359392505050565b600060208284031215610c8657600080fd5b81356108c581610bf1565b60008060008060008060008060e0898b031215610cad57600080fd5b8835610cb881610bf1565b9750602089013596506040890135610ccf81610bf1565b9550606089013594506080890135935060a0890135610ced81610bf1565b925060c089013567ffffffffffffffff80821115610d0a57600080fd5b818b0191508b601f830112610d1e57600080fd5b813581811115610d2d57600080fd5b8c6020828501011115610d3f57600080fd5b6020830194508093505050509295985092959890939650565b600060208284031215610d6a57600080fd5b5051919050565b60005b83811015610d8c578181015183820152602001610d74565b50506000910152565b60008151808452610dad816020860160208601610d71565b601f01601f19169290920160200192915050565b610de1818480516001600160a01b03908116835260209182015116910152565b606060408201526000610df76060830184610d95565b949350505050565b60008060408385031215610e1257600080fd5b505080516020909101519092909150565b6001600160a01b03868116825260208083018790526040830186905284518216606084015284015116608082015260c060a08201526000610e6760c0830184610d95565b979650505050505050565b600060208284031215610e8457600080fd5b815180151581146108c557600080fd5b60008251610ea6818460208701610d71565b919091019291505056fea26469706673582212200c60636dedd238528145316ecb8d65fc9a9b29ba5f6b65313fa303fed6fafe7464736f6c63430008190033000000000000000000000000488863d609f3a673875a914fbee7508a1de45ec6",
        "nonce": "0x0",
        "accessList": []
      },
      "additionalContracts": [],
      "isFixedGasLimit": false
    },
    {
      "hash": "0x9f2581ccd6d3d5f843068783182f87a5f1963a09b749be3b1f11a39befb0e4e7",
      "transactionType": "CALL",
      "contractName": "SwapBridge",
      "contractAddress": "0xd8360Ec5d0B109280482F5a0762fED2339A1F949",
      "function": "approveMax(address,address)",
      "arguments": [
        "0x2791Bca1f2de4661ED88A30C99A7a9449Aa84174",
        "0x488863D609F3A673875a914fBeE7508a1DE45eC6"
      ],
      "transaction": {
        "type": "0x02",
        "from": "0xe0d2d6956c1d9fa49c29a69f2e49f5f176aa27fd",
        "to": "0xd8360ec5d0b109280482f5a0762fed2339a1f949",
        "gas": "0x1650b",
        "value": "0x0",
        "data": "0xaec42a170000000000000000000000002791bca1f2de4661ed88a30c99a7a9449aa84174000000000000000000000000488863d609f3a673875a914fbee7508a1de45ec6",
        "nonce": "0x1",
        "accessList": []
      },
      "additionalContracts": [],
      "isFixedGasLimit": false
    },
    {
      "hash": "0x535601adf118fd1a305a081b153ddd0883d773a8586b3a0c260894e8726aad78",
      "transactionType": "CALL",
      "contractName": "SwapBridge",
      "contractAddress": "0xd8360Ec5d0B109280482F5a0762fED2339A1F949",
      "function": "approveMax(address,address)",
      "arguments": [
        "0xc2132D05D31c914a87C6611C10748AEb04B58e8F",
        "0x216B4B4Ba9F3e719726886d34a177484278Bfcae"
      ],
      "transaction": {
        "type": "0x02",
        "from": "0xe0d2d6956c1d9fa49c29a69f2e49f5f176aa27fd",
        "to": "0xd8360ec5d0b109280482f5a0762fed2339a1f949",
        "gas": "0x12ed0",
        "value": "0x0",
        "data": "0xaec42a17000000000000000000000000c2132d05d31c914a87c6611c10748aeb04b58e8f000000000000000000000000216b4b4ba9f3e719726886d34a177484278bfcae",
        "nonce": "0x2",
        "accessList": []
      },
      "additionalContracts": [],
      "isFixedGasLimit": false
    },
    {
      "hash": "0x3da5aad403f9049e8a187ca15c2b58b9c506870055cb751f73ae6c463db62a80",
      "transactionType": "CALL",
      "contractName": "SwapBridge",
      "contractAddress": "0xd8360Ec5d0B109280482F5a0762fED2339A1F949",
      "function": "approveMax(address,address)",
      "arguments": [
        "0x3c499c542cEF5E3811e1192ce70d8cC03d5c3359",
        "0x216B4B4Ba9F3e719726886d34a177484278Bfcae"
      ],
      "transaction": {
        "type": "0x02",
        "from": "0xe0d2d6956c1d9fa49c29a69f2e49f5f176aa27fd",
        "to": "0xd8360ec5d0b109280482f5a0762fed2339a1f949",
        "gas": "0x142d8",
        "value": "0x0",
        "data": "0xaec42a170000000000000000000000003c499c542cef5e3811e1192ce70d8cc03d5c3359000000000000000000000000216b4b4ba9f3e719726886d34a177484278bfcae",
        "nonce": "0x3",
        "accessList": []
      },
      "additionalContracts": [],
      "isFixedGasLimit": false
    },
    {
      "hash": "0xf952d5833758c6a518c3cc63a1131c8e39709164d9bf9a190b37c68ddd582daa",
      "transactionType": "CALL",
      "contractName": "SwapBridge",
      "contractAddress": "0xd8360Ec5d0B109280482F5a0762fED2339A1F949",
      "function": "approveMax(address,address)",
      "arguments": [
        "0x8f3Cf7ad23Cd3CaDbD9735AFf958023239c6A063",
        "0x216B4B4Ba9F3e719726886d34a177484278Bfcae"
      ],
      "transaction": {
        "type": "0x02",
        "from": "0xe0d2d6956c1d9fa49c29a69f2e49f5f176aa27fd",
        "to": "0xd8360ec5d0b109280482f5a0762fed2339a1f949",
        "gas": "0x12ed0",
        "value": "0x0",
        "data": "0xaec42a170000000000000000000000008f3cf7ad23cd3cadbd9735aff958023239c6a063000000000000000000000000216b4b4ba9f3e719726886d34a177484278bfcae",
        "nonce": "0x4",
        "accessList": []
      },
      "additionalContracts": [],
      "isFixedGasLimit": false
    }
  ],
  "receipts": [
    {
      "transactionHash": "0xada0b98c061ab58c21ffdfa8afedb3ded61d2e9a8bed38aaa493b0fbda185487",
      "transactionIndex": "0x66",
      "blockHash": "0x3f91a5efba8c868213b879729da5f38dfc2af6a53cb31cbb4c65d1d41e01af8e",
      "blockNumber": "0x354a1bf",
      "from": "0xe0D2d6956c1D9fa49c29A69F2E49f5f176aa27fd",
      "to": "0x4e59b44847b379578588920cA78FbF26c0B4956C",
      "cumulativeGasUsed": "0xc19f69",
      "gasUsed": "0xe2d0e",
      "contractAddress": "0xd8360Ec5d0B109280482F5a0762fED2339A1F949",
      "logs": [
        {
          "address": "0xd8360Ec5d0B109280482F5a0762fED2339A1F949",
          "topics": [
            "0x8be0079c531659141344cd1fd0a4f28419497f9722a3daafe3b4186f6b6457e0",
            "0x0000000000000000000000000000000000000000000000000000000000000000",
            "0x0000000000000000000000004e59b44847b379578588920ca78fbf26c0b4956c"
          ],
          "data": "0x",
          "blockHash": "0x3f91a5efba8c868213b879729da5f38dfc2af6a53cb31cbb4c65d1d41e01af8e",
          "blockNumber": "0x354a1bf",
          "transactionHash": "0xada0b98c061ab58c21ffdfa8afedb3ded61d2e9a8bed38aaa493b0fbda185487",
          "transactionIndex": "0x66",
          "logIndex": "0x1a1",
          "removed": false
        },
        {
          "address": "0x0000000000000000000000000000000000001010",
          "topics": [
            "0x4dfe1bbbcf077ddc3e01291eea2d5c70c2b422b415d95645b9adcfd678cb1d63",
            "0x0000000000000000000000000000000000000000000000000000000000001010",
            "0x000000000000000000000000e0d2d6956c1d9fa49c29a69f2e49f5f176aa27fd",
            "0x00000000000000000000000067b94473d81d0cd00849d563c94d0432ac988b49"
          ],
          "data": "0x000000000000000000000000000000000000000000000000006304a7772f680000000000000000000000000000000000000000000000000027b0f94c5f62fa0a000000000000000000000000000000000000000000001d5226fb19e0c9e3bda8000000000000000000000000000000000000000000000000274df4a4e833920a000000000000000000000000000000000000000000001d52275e1e88411325a8",
          "blockHash": "0x3f91a5efba8c868213b879729da5f38dfc2af6a53cb31cbb4c65d1d41e01af8e",
          "blockNumber": "0x354a1bf",
          "transactionHash": "0xada0b98c061ab58c21ffdfa8afedb3ded61d2e9a8bed38aaa493b0fbda185487",
          "transactionIndex": "0x66",
          "logIndex": "0x1a2",
          "removed": false
        }
      ],
      "status": "0x1",
      "logsBloom": "0x00000000000000000000000000000000000000000000000000800000000000000000000000000000000000000000000000008000000000000000000000000000002000000000000000000000000000800001000000000000000100000000004000000000020000000000000000000800000000000000000080000000000000400000000000000000000000000000000000000000001000000000000000000000220000000001002000000000000000000000000000000040000000000000804000800000000000000001000000008000000000000000000000100000000020000000020000000000000000000000000080000000000000000000000000100000",
      "type": "0x2",
      "effectiveGasPrice": "0x1a3da41687"
    },
    {
      "transactionHash": "0x9f2581ccd6d3d5f843068783182f87a5f1963a09b749be3b1f11a39befb0e4e7",
      "transactionIndex": "0x8b",
      "blockHash": "0x8254a11893bc29d29a15ceeef3dd4d5430f702a7540c5a1b9765d42dbd7827ab",
      "blockNumber": "0x354a1c1",
      "from": "0xe0D2d6956c1D9fa49c29A69F2E49f5f176aa27fd",
      "to": "0xd8360Ec5d0B109280482F5a0762fED2339A1F949",
      "cumulativeGasUsed": "0xeb3377",
      "gasUsed": "0xf422",
      "contractAddress": null,
      "logs": [
        {
          "address": "0x2791Bca1f2de4661ED88A30C99A7a9449Aa84174",
          "topics": [
            "0x8c5be1e5ebec7d5bd14f71427d1e84f3dd0314c0f7b2291e5b200ac8c7c3b925",
            "0x000000000000000000000000d8360ec5d0b109280482f5a0762fed2339a1f949",
            "0x000000000000000000000000488863d609f3a673875a914fbee7508a1de45ec6"
          ],
          "data": "0xffffffffffffffffffffffffffffffffffffffffffffffffffffffffffffffff",
          "blockHash": "0x8254a11893bc29d29a15ceeef3dd4d5430f702a7540c5a1b9765d42dbd7827ab",
          "blockNumber": "0x354a1c1",
          "transactionHash": "0x9f2581ccd6d3d5f843068783182f87a5f1963a09b749be3b1f11a39befb0e4e7",
          "transactionIndex": "0x8b",
          "logIndex": "0x1e5",
          "removed": false
        },
        {
          "address": "0x0000000000000000000000000000000000001010",
          "topics": [
            "0x4dfe1bbbcf077ddc3e01291eea2d5c70c2b422b415d95645b9adcfd678cb1d63",
            "0x0000000000000000000000000000000000000000000000000000000000001010",
            "0x000000000000000000000000e0d2d6956c1d9fa49c29a69f2e49f5f176aa27fd",
            "0x00000000000000000000000069f5c4d08f6bc8cd29fe5f004d46fb566270868d"
          ],
          "data": "0x0000000000000000000000000000000000000000000000000005fcbdaeaf8012000000000000000000000000000000000000000000000000263cfc0ded1203a80000000000000000000000000000000000000000000000084ff5237b3b875cf10000000000000000000000000000000000000000000000002636ff503e6283960000000000000000000000000000000000000000000000084ffb2038ea36dd03",
          "blockHash": "0x8254a11893bc29d29a15ceeef3dd4d5430f702a7540c5a1b9765d42dbd7827ab",
          "blockNumber": "0x354a1c1",
          "transactionHash": "0x9f2581ccd6d3d5f843068783182f87a5f1963a09b749be3b1f11a39befb0e4e7",
          "transactionIndex": "0x8b",
          "logIndex": "0x1e6",
          "removed": false
        }
      ],
      "status": "0x1",
      "logsBloom": "0x00000000000000000000000002000000000000000000000001000000000000000000000000000000200000000000000000008008000000000000000000200000402000000000000000000000000040800000000000000000000100000000000008000000000000000000000000000000000000000000000180000000000000001001000000000000000000000000000000000002000000000000000000000000220000000000002000000000000000000000000000000040000000000000004000000000000000000001000000000000000000000000000000100000000000000010008000000000000000000000000000000000000000000000000000100000",
      "type": "0x2",
      "effectiveGasPrice": "0x1abcdd7fd1"
    },
    {
      "transactionHash": "0x535601adf118fd1a305a081b153ddd0883d773a8586b3a0c260894e8726aad78",
      "transactionIndex": "0x5a",
      "blockHash": "0xac05cceabdb6fd3bacf42291f18c4f67dec3bd32913d5164e54f6e0808053ba3",
      "blockNumber": "0x354a1c3",
      "from": "0xe0D2d6956c1D9fa49c29A69F2E49f5f176aa27fd",
      "to": "0xd8360Ec5d0B109280482F5a0762fED2339A1F949",
      "cumulativeGasUsed": "0xd6d920",
      "gasUsed": "0xdb3c",
      "contractAddress": null,
      "logs": [
        {
          "address": "0xc2132D05D31c914a87C6611C10748AEb04B58e8F",
          "topics": [
            "0x8c5be1e5ebec7d5bd14f71427d1e84f3dd0314c0f7b2291e5b200ac8c7c3b925",
            "0x000000000000000000000000d8360ec5d0b109280482f5a0762fed2339a1f949",
            "0x000000000000000000000000216b4b4ba9f3e719726886d34a177484278bfcae"
          ],
          "data": "0xffffffffffffffffffffffffffffffffffffffffffffffffffffffffffffffff",
          "blockHash": "0xac05cceabdb6fd3bacf42291f18c4f67dec3bd32913d5164e54f6e0808053ba3",
          "blockNumber": "0x354a1c3",
          "transactionHash": "0x535601adf118fd1a305a081b153ddd0883d773a8586b3a0c260894e8726aad78",
          "transactionIndex": "0x5a",
          "logIndex": "0x1bc",
          "removed": false
        },
        {
          "address": "0x0000000000000000000000000000000000001010",
          "topics": [
            "0x4dfe1bbbcf077ddc3e01291eea2d5c70c2b422b415d95645b9adcfd678cb1d63",
            "0x0000000000000000000000000000000000000000000000000000000000001010",
            "0x000000000000000000000000e0d2d6956c1d9fa49c29a69f2e49f5f176aa27fd",
            "0x00000000000000000000000069f5c4d08f6bc8cd29fe5f004d46fb566270868d"
          ],
          "data": "0x00000000000000000000000000000000000000000000000000031e4dff4937f800000000000000000000000000000000000000000000000026237c7db9d3d5e60000000000000000000000000000000000000000000000086555c6c25ca2735e00000000000000000000000000000000000000000000000026205e2fba8a9dee0000000000000000000000000000000000000000000000086558e5105bebab56",
          "blockHash": "0xac05cceabdb6fd3bacf42291f18c4f67dec3bd32913d5164e54f6e0808053ba3",
          "blockNumber": "0x354a1c3",
          "transactionHash": "0x535601adf118fd1a305a081b153ddd0883d773a8586b3a0c260894e8726aad78",
          "transactionIndex": "0x5a",
          "logIndex": "0x1bd",
          "removed": false
        }
      ],
      "status": "0x1",
      "logsBloom": "0x00000000000000020000000002000000000000000000000000000000000000000000000000000000200000000000000100008000000000000000000000200000402000000000000000200000000040800000000000000000000100000000000008000000000000000000000000000000000000000000000080000000000000001000000000080000000000000000000000000000000000000000000000000000224000000000002000000000000000000000000000000040000000000000004000000000000000000001000000000000400000000000000000100000000000000010000000000000000000000000000000000000000000000000000000100000",
      "type": "0x2",
      "effectiveGasPrice": "0x1abcdd7fd1"
    },
    {
      "transactionHash": "0x3da5aad403f9049e8a187ca15c2b58b9c506870055cb751f73ae6c463db62a80",
      "transactionIndex": "0x5e",
      "blockHash": "0xc38d9a3cf8df1946584d060abc7f7c8318a35778e804fea1a5bd326c618f6732",
      "blockNumber": "0x354a1c5",
      "from": "0xe0D2d6956c1D9fa49c29A69F2E49f5f176aa27fd",
      "to": "0xd8360Ec5d0B109280482F5a0762fED2339A1F949",
      "cumulativeGasUsed": "0x16acdef",
      "gasUsed": "0xe9bd",
      "contractAddress": null,
      "logs": [
        {
          "address": "0x3c499c542cEF5E3811e1192ce70d8cC03d5c3359",
          "topics": [
            "0x8c5be1e5ebec7d5bd14f71427d1e84f3dd0314c0f7b2291e5b200ac8c7c3b925",
            "0x000000000000000000000000d8360ec5d0b109280482f5a0762fed2339a1f949",
            "0x000000000000000000000000216b4b4ba9f3e719726886d34a177484278bfcae"
          ],
          "data": "0xffffffffffffffffffffffffffffffffffffffffffffffffffffffffffffffff",
          "blockHash": "0xc38d9a3cf8df1946584d060abc7f7c8318a35778e804fea1a5bd326c618f6732",
          "blockNumber": "0x354a1c5",
          "transactionHash": "0x3da5aad403f9049e8a187ca15c2b58b9c506870055cb751f73ae6c463db62a80",
          "transactionIndex": "0x5e",
          "logIndex": "0x314",
          "removed": false
        },
        {
          "address": "0x0000000000000000000000000000000000001010",
          "topics": [
            "0x4dfe1bbbcf077ddc3e01291eea2d5c70c2b422b415d95645b9adcfd678cb1d63",
            "0x0000000000000000000000000000000000000000000000000000000000001010",
            "0x000000000000000000000000e0d2d6956c1d9fa49c29a69f2e49f5f176aa27fd",
            "0x00000000000000000000000069f5c4d08f6bc8cd29fe5f004d46fb566270868d"
          ],
          "data": "0x0000000000000000000000000000000000000000000000000001cbce578c526a000000000000000000000000000000000000000000000000260c96a7f99215ea0000000000000000000000000000000000000000000000087c1ae238c27118b8000000000000000000000000000000000000000000000000260acad9a205c3800000000000000000000000000000000000000000000000087c1cae0719fd6b22",
          "blockHash": "0xc38d9a3cf8df1946584d060abc7f7c8318a35778e804fea1a5bd326c618f6732",
          "blockNumber": "0x354a1c5",
          "transactionHash": "0x3da5aad403f9049e8a187ca15c2b58b9c506870055cb751f73ae6c463db62a80",
          "transactionIndex": "0x5e",
          "logIndex": "0x315",
          "removed": false
        }
      ],
      "status": "0x1",
      "logsBloom": "0x00000000000000020000000002000000000000000000000000000000000000000000000000000000200000000000000000008000000000000000000000200000402000000000000000200000000040800000000000000000000100000000000008000000000000000000000000000000000000000000000080000000000000001000000000000000000000000000000000000000000000000000000000000000224000000000002000000000000000000800000000000040000000000000004000000000000000000001000000000000000000000000000000100000000000000010000000000000000000000000010000000000100000000000000000100000",
      "type": "0x2",
      "effectiveGasPrice": "0x1abcdd7fd1"
    },
    {
      "transactionHash": "0xf952d5833758c6a518c3cc63a1131c8e39709164d9bf9a190b37c68ddd582daa",
      "transactionIndex": "0x69",
      "blockHash": "0xd984fbbe6240a5af3ef3f93d0f737dfd4cf98d74f10c7ffed75f1afd4b47592c",
      "blockNumber": "0x354a1c7",
      "from": "0xe0D2d6956c1D9fa49c29A69F2E49f5f176aa27fd",
      "to": "0xd8360Ec5d0B109280482F5a0762fED2339A1F949",
      "cumulativeGasUsed": "0xaa8818",
      "gasUsed": "0xdb3c",
      "contractAddress": null,
      "logs": [
        {
          "address": "0x8f3Cf7ad23Cd3CaDbD9735AFf958023239c6A063",
          "topics": [
            "0x8c5be1e5ebec7d5bd14f71427d1e84f3dd0314c0f7b2291e5b200ac8c7c3b925",
            "0x000000000000000000000000d8360ec5d0b109280482f5a0762fed2339a1f949",
            "0x000000000000000000000000216b4b4ba9f3e719726886d34a177484278bfcae"
          ],
          "data": "0xffffffffffffffffffffffffffffffffffffffffffffffffffffffffffffffff",
          "blockHash": "0xd984fbbe6240a5af3ef3f93d0f737dfd4cf98d74f10c7ffed75f1afd4b47592c",
          "blockNumber": "0x354a1c7",
          "transactionHash": "0xf952d5833758c6a518c3cc63a1131c8e39709164d9bf9a190b37c68ddd582daa",
          "transactionIndex": "0x69",
          "logIndex": "0x17f",
          "removed": false
        },
        {
          "address": "0x0000000000000000000000000000000000001010",
          "topics": [
            "0x4dfe1bbbcf077ddc3e01291eea2d5c70c2b422b415d95645b9adcfd678cb1d63",
            "0x0000000000000000000000000000000000000000000000000000000000001010",
            "0x000000000000000000000000e0d2d6956c1d9fa49c29a69f2e49f5f176aa27fd",
            "0x00000000000000000000000069f5c4d08f6bc8cd29fe5f004d46fb566270868d"
          ],
          "data": "0x000000000000000000000000000000000000000000000000000162277b72f54000000000000000000000000000000000000000000000000025f42d04f0b57f9d000000000000000000000000000000000000000000000008b80a03854825842b00000000000000000000000000000000000000000000000025f2cadd75428a5d000000000000000000000000000000000000000000000008b80b65acc398796b",
          "blockHash": "0xd984fbbe6240a5af3ef3f93d0f737dfd4cf98d74f10c7ffed75f1afd4b47592c",
          "blockNumber": "0x354a1c7",
          "transactionHash": "0xf952d5833758c6a518c3cc63a1131c8e39709164d9bf9a190b37c68ddd582daa",
          "transactionIndex": "0x69",
          "logIndex": "0x180",
          "removed": false
        }
      ],
      "status": "0x1",
      "logsBloom": "0x00000000000000020000000002000000000000000000000000000000000000000000000000000000200000000000000000008000000000002000000000200000402000000000000000200000000040800000000000000000000300000000000008000000000000000000000000000000000000000000000080004000000000001000000000000000000000000000000000000000000000000000000000000000224000000000002000000000000000000000000000000040000000000000004000000000000000000001000000000000000000000000000000100000000000000010000000000000000000000000000000000000000000000000000000100000",
      "type": "0x2",
      "effectiveGasPrice": "0x1abcdd7fd1"
    }
  ],
  "libraries": [],
  "pending": [],
  "returns": {},
  "timestamp": 1713244544,
  "chain": 137,
  "commit": "bf96c5d"
}