{
  "transactions": [
    {
      "hash": "0x2a0e5e0f4de27d304da54a59a5547ad67c67c6fcebb20f4a54ced4de966fbc1d",
      "transactionType": "CREATE2",
      "contractName": "SwapBridge",
      "contractAddress": "0x1096842f1028ef6f9284ebc431fa0ff329b3c940",
      "function": null,
      "arguments": [
        "0xe0D2d6956c1D9fa49c29A69F2E49f5f176aa27fd"
      ],
      "transaction": {
        "from": "0xe0d2d6956c1d9fa49c29a69f2e49f5f176aa27fd",
        "to": "0x4e59b44847b379578588920ca78fbf26c0b4956c",
        "gas": "0x1865a9",
        "value": "0x0",
        "input": "0x6d65726b6c650000000000000000000000000000000000000000000000000000608060405234801561001057600080fd5b5060405161158538038061158583398101604081905261002f916100e7565b806001600160a01b03811661005e57604051631e4fbdf760e01b81526000600482015260240160405180910390fd5b6100678161007b565b50506001805460ff60a01b19169055610117565b600180546001600160a01b031916905561009481610097565b50565b600080546001600160a01b038381166001600160a01b0319831681178455604051919092169283917f8be0079c531659141344cd1fd0a4f28419497f9722a3daafe3b4186f6b6457e09190a35050565b6000602082840312156100f957600080fd5b81516001600160a01b038116811461011057600080fd5b9392505050565b61145f806101266000396000f3fe6080604052600436106100dd5760003560e01c806379ba50971161007f5780639064aa17116100595780639064aa1714610216578063aec42a1714610229578063e30c397814610249578063f2fde38b1461026757600080fd5b806379ba5097146101ba5780638456cb59146101cf5780638da5cb5b146101e457600080fd5b8063485cc955116100bb578063485cc9551461012c5780635c975abb1461014c5780636bc5f1611461017b578063715018a6146101a557600080fd5b80630a3a1c68146100e25780633f4ba83a146100f75780634707d0001461010c575b600080fd5b6100f56100f0366004611170565b610287565b005b34801561010357600080fd5b506100f561064f565b34801561011857600080fd5b506100f5610127366004611225565b610661565b34801561013857600080fd5b506100f5610147366004611225565b610706565b34801561015857600080fd5b50600154600160a01b900460ff1660405190151581526020015b60405180910390f35b34801561018757600080fd5b50610190610779565b60408051928352602083019190915201610172565b3480156101b157600080fd5b506100f561080d565b3480156101c657600080fd5b506100f561081f565b3480156101db57600080fd5b506100f5610868565b3480156101f057600080fd5b506000546001600160a01b03165b6040516001600160a01b039091168152602001610172565b6100f561022436600461125e565b610878565b34801561023557600080fd5b506100f5610244366004611225565b6109fa565b34801561025557600080fd5b506001546001600160a01b03166101fe565b34801561027357600080fd5b506100f5610282366004611293565b610a13565b61028f610a84565b6040516370a0823160e01b81523060048201526000906001600160a01b038916906370a0823190602401602060405180830381865afa1580156102d6573d6000803e3d6000fd5b505050506040513d601f19601f820116820180604052508101906102fa91906112b0565b6040516370a0823160e01b81523060048201529091506000906001600160a01b038816906370a0823190602401602060405180830381865afa158015610344573d6000803e3d6000fd5b505050506040513d601f19601f8201168201806040525081019061036891906112b0565b90506103768933308b610aaf565b600354604080516020601f87018190048102820181019092528581526103c0926001600160a01b0316918790879081908401838280828437600092019190915250610b1c92505050565b506040516370a0823160e01b815230600482015260009082906001600160a01b038a16906370a0823190602401602060405180830381865afa15801561040a573d6000803e3d6000fd5b505050506040513d601f19601f8201168201806040525081019061042e91906112b0565b61043891906112c9565b90508681101561045b576040516342301c2360e01b815260040160405180910390fd5b6040516370a0823160e01b815230600482015260009084906001600160a01b038d16906370a0823190602401602060405180830381865afa1580156104a4573d6000803e3d6000fd5b505050506040513d601f19601f820116820180604052508101906104c891906112b0565b6104d291906112c9565b905080156104e5576104e58b3383610b33565b6104f0898389610b64565b6040516370a0823160e01b815230600482015283906001600160a01b038b16906370a0823190602401602060405180830381865afa158015610536573d6000803e3d6000fd5b505050506040513d601f19601f8201168201806040525081019061055a91906112b0565b11156105e2576040516370a0823160e01b81523060048201526105e2908a90339086906001600160a01b038416906370a08231906024015b602060405180830381865afa1580156105af573d6000803e3d6000fd5b505050506040513d601f19601f820116820180604052508101906105d391906112b0565b6105dd91906112c9565b610b33565b604080516001600160a01b03808e1682528b1660208201529081018b9052606081018990526080810183905260a081018890527fc1eea98a13fec71774f9ff3181e94360e4ff6752d006c9402e4d20d63ede02699060c00160405180910390a15050505050505050505050565b610657610be7565b61065f610c14565b565b610669610be7565b6040516370a0823160e01b81523060048201526000906001600160a01b038416906370a0823190602401602060405180830381865afa1580156106b0573d6000803e3d6000fd5b505050506040513d601f19601f820116820180604052508101906106d491906112b0565b9050806000036106f657604051620f6b2160e41b815260040160405180910390fd5b610701838383610b33565b505050565b61070e610be7565b600154600160a81b900460ff16156107385760405162dc149f60e41b815260040160405180910390fd5b6001805460ff60a81b1916600160a81b179055600280546001600160a01b039384166001600160a01b03199182161790915560038054929093169116179055565b60008060008061078c600160f81b610c69565b6002546040516308d172cd60e31b81529294509092506001600160a01b03169063468b9668906107c2908590859060040161133a565b6040805180830381865afa1580156107de573d6000803e3d6000fd5b505050506040513d601f19601f820116820180604052508101906108029190611378565b909590945092505050565b610815610be7565b61065f6000610cd2565b60015433906001600160a01b0316811461085c5760405163118cdaa760e01b81526001600160a01b03821660048201526024015b60405180910390fd5b61086581610cd2565b50565b610870610be7565b61065f610ceb565b610880610a84565b6040516370a0823160e01b81523060048201526000906001600160a01b038516906370a0823190602401602060405180830381865afa1580156108c7573d6000803e3d6000fd5b505050506040513d601f19601f820116820180604052508101906108eb91906112b0565b90506108f984333086610aaf565b610904848484610b64565b6040516370a0823160e01b815230600482015281906001600160a01b038616906370a0823190602401602060405180830381865afa15801561094a573d6000803e3d6000fd5b505050506040513d601f19601f8201168201806040525081019061096e91906112b0565b11156109aa576040516370a0823160e01b81523060048201526109aa908590339084906001600160a01b038416906370a0823190602401610592565b604080516001600160a01b0386168152602081018590529081018390527fee9c5e832429ef24b4133bb5fe8e24903a86d59ee6536210bc973a52a1c0a5bc9060600160405180910390a150505050565b610a02610a84565b610a0f8282600019610d2e565b5050565b610a1b610be7565b600180546001600160a01b0383166001600160a01b03199091168117909155610a4c6000546001600160a01b031690565b6001600160a01b03167f38d16b8cac22d99fc7c124b9cd0de2d3fa1faef420bfe791d8c362d765e2270060405160405180910390a350565b600154600160a01b900460ff161561065f5760405163d93c066560e01b815260040160405180910390fd5b6040516001600160a01b038481166024830152838116604483015260648201839052610b169186918216906323b872dd906084015b604051602081830303815290604052915060e01b6020820180516001600160e01b038381831617835250505050610dba565b50505050565b6060610b2a83836000610e1d565b90505b92915050565b6040516001600160a01b0383811660248301526044820183905261070191859182169063a9059cbb90606401610ae4565b600080610b7083610c69565b600254604051633b5484cd60e11b81529294509092506001600160a01b0316906376a9099a903490610bae90899088908a908990899060040161139c565b6000604051808303818588803b158015610bc757600080fd5b505af1158015610bdb573d6000803e3d6000fd5b50505050505050505050565b6000546001600160a01b0316331461065f5760405163118cdaa760e01b8152336004820152602401610853565b610c1c610ebc565b6001805460ff60a01b191690557f5db9ee0a495bf2e6ff9c91a7834c1ba4fdd244a5e8aa4e537bd38aeae4b073aa335b6040516001600160a01b03909116815260200160405180910390a1565b604080518082019091526000808252602082015260606040518060400160405280336001600160a01b0316815260200160006001600160a01b03168152509150610ccb61271060405180604001604052806126b0815260200186815250610ee6565b9050915091565b600180546001600160a01b031916905561086581610fde565b610cf3610a84565b6001805460ff60a01b1916600160a01b1790557f62e78cea01bee320cd4e420270b5ea74000d11b0c9f74754ebdbfc544b05a258610c4c3390565b604080516001600160a01b038416602482015260448082018490528251808303909101815260649091019091526020810180516001600160e01b031663095ea7b360e01b179052610d7f848261102e565b610b16576040516001600160a01b03848116602483015260006044830152610db491869182169063095ea7b390606401610ae4565b610b1684825b6000610dcf6001600160a01b03841683610b1c565b90508051600014158015610df4575080806020019051810190610df291906113eb565b155b1561070157604051635274afe760e01b81526001600160a01b0384166004820152602401610853565b606081471015610e425760405163cd78605960e01b8152306004820152602401610853565b600080856001600160a01b03168486604051610e5e919061140d565b60006040518083038185875af1925050503d8060008114610e9b576040519150601f19603f3d011682016040523d82523d6000602084013e610ea0565b606091505b5091509150610eb08683836110d6565b925050505b9392505050565b600154600160a01b900460ff1661065f57604051638dfc202b60e01b815260040160405180910390fd5b8051606090610f455760405162461bcd60e51b815260206004820152602560248201527f41697264726f7020616d6f756e74206d75737420626520677265617465722074604482015264068616e20360dc1b6064820152608401610853565b6020820151610f965760405162461bcd60e51b815260206004820152601b60248201527f41697264726f702061646472657373206d7573742062652073657400000000006044820152606401610853565b8151602080840151604051600160f11b928101929092526022820186905260428201929092526062810191909152608201604051602081830303815290604052905092915050565b600080546001600160a01b038381166001600160a01b0319831681178455604051919092169283917f8be0079c531659141344cd1fd0a4f28419497f9722a3daafe3b4186f6b6457e09190a35050565b6000806000846001600160a01b03168460405161104b919061140d565b6000604051808303816000865af19150503d8060008114611088576040519150601f19603f3d011682016040523d82523d6000602084013e61108d565b606091505b50915091508180156110b75750805115806110b75750808060200190518101906110b791906113eb565b80156110cd57506000856001600160a01b03163b115b95945050505050565b6060826110eb576110e682611132565b610eb5565b815115801561110257506001600160a01b0384163b155b1561112b57604051639996b31560e01b81526001600160a01b0385166004820152602401610853565b5080610eb5565b8051156111425780518082602001fd5b604051630a12f52160e11b815260040160405180910390fd5b6001600160a01b038116811461086557600080fd5b600080600080600080600060c0888a03121561118b57600080fd5b87356111968161115b565b96506020880135955060408801356111ad8161115b565b9450606088013593506080880135925060a088013567ffffffffffffffff808211156111d857600080fd5b818a0191508a601f8301126111ec57600080fd5b8135818111156111fb57600080fd5b8b602082850101111561120d57600080fd5b60208301945080935050505092959891949750929550565b6000806040838503121561123857600080fd5b82356112438161115b565b915060208301356112538161115b565b809150509250929050565b60008060006060848603121561127357600080fd5b833561127e8161115b565b95602085013595506040909401359392505050565b6000602082840312156112a557600080fd5b8135610eb58161115b565b6000602082840312156112c257600080fd5b5051919050565b81810381811115610b2d57634e487b7160e01b600052601160045260246000fd5b60005b838110156113055781810151838201526020016112ed565b50506000910152565b600081518084526113268160208601602086016112ea565b601f01601f19169290920160200192915050565b61135a818480516001600160a01b03908116835260209182015116910152565b606060408201526000611370606083018461130e565b949350505050565b6000806040838503121561138b57600080fd5b505080516020909101519092909150565b6001600160a01b03868116825260208083018790526040830186905284518216606084015284015116608082015260c060a082015260006113e060c083018461130e565b979650505050505050565b6000602082840312156113fd57600080fd5b81518015158114610eb557600080fd5b6000825161141f8184602087016112ea565b919091019291505056fea2646970667358221220f14f755dc69892d8c32036b36437520130c6b2959cf6cedf1372d16400c9cdb664736f6c63430008190033000000000000000000000000e0d2d6956c1d9fa49c29a69f2e49f5f176aa27fd",
        "nonce": "0x39",
        "chainId": "0xa4b1"
      },
      "additionalContracts": [],
      "isFixedGasLimit": false
    },
    {
      "hash": "0x60855c5af8d5f85f1b85c28d5c14e0c190ce484af639ccfc1272fe713c6090f3",
      "transactionType": "CALL",
      "contractName": "SwapBridge",
      "contractAddress": "0x1096842f1028ef6f9284ebc431fa0ff329b3c940",
      "function": "initialize(address,address)",
      "arguments": [
        "0x1BAcC2205312534375c8d1801C27D28370656cFf",
        "0x6A000F20005980200259B80c5102003040001068"
      ],
      "transaction": {
        "from": "0xe0d2d6956c1d9fa49c29a69f2e49f5f176aa27fd",
        "to": "0x1096842f1028ef6f9284ebc431fa0ff329b3c940",
        "gas": "0x6e75",
        "value": "0x0",
        "input": "0x485cc9550000000000000000000000001bacc2205312534375c8d1801c27d28370656cff0000000000000000000000006a000f20005980200259b80c5102003040001068",
        "nonce": "0x3a",
        "chainId": "0xa4b1"
      },
      "additionalContracts": [],
      "isFixedGasLimit": false
    },
    {
      "hash": "0xd4598228540136ecc2ed0de8e4077071a96da2d6b4c00d881901ee1f5e3b186e",
      "transactionType": "CALL",
      "contractName": "SwapBridge",
      "contractAddress": "0x1096842f1028ef6f9284ebc431fa0ff329b3c940",
      "function": "approveMax(address,address)",
      "arguments": [
        "0xFF970A61A04b1cA14834A43f5dE4533eBDDB5CC8",
        "0x1BAcC2205312534375c8d1801C27D28370656cFf"
      ],
      "transaction": {
        "from": "0xe0d2d6956c1d9fa49c29a69f2e49f5f176aa27fd",
        "to": "0x1096842f1028ef6f9284ebc431fa0ff329b3c940",
        "gas": "0x6eb4",
        "value": "0x0",
        "input": "0xaec42a17000000000000000000000000ff970a61a04b1ca14834a43f5de4533ebddb5cc80000000000000000000000001bacc2205312534375c8d1801c27d28370656cff",
        "nonce": "0x3b",
        "chainId": "0xa4b1"
      },
      "additionalContracts": [],
      "isFixedGasLimit": false
    },
    {
      "hash": "0xa6cb6fc53f9f221f9b6ae91a06ba1b8005e75a10cb91470730ac29c38459401c",
      "transactionType": "CALL",
      "contractName": "SwapBridge",
      "contractAddress": "0x1096842f1028ef6f9284ebc431fa0ff329b3c940",
      "function": "approveMax(address,address)",
      "arguments": [
        "0xaf88d065e77c8cC2239327C5EDb3A432268e5831",
        "0x6A000F20005980200259B80c5102003040001068"
      ],
      "transaction": {
        "from": "0xe0d2d6956c1d9fa49c29a69f2e49f5f176aa27fd",
        "to": "0x1096842f1028ef6f9284ebc431fa0ff329b3c940",
        "gas": "0x6e75",
        "value": "0x0",
        "input": "0xaec42a17000000000000000000000000af88d065e77c8cc2239327c5edb3a432268e58310000000000000000000000006a000f20005980200259b80c5102003040001068",
        "nonce": "0x3c",
        "chainId": "0xa4b1"
      },
      "additionalContracts": [],
      "isFixedGasLimit": false
    },
    {
      "hash": "0x7cbac403483ced635c134849438c3395df4d181ffc06b2c135f6142623656ac1",
      "transactionType": "CALL",
      "contractName": "SwapBridge",
      "contractAddress": "0x1096842f1028ef6f9284ebc431fa0ff329b3c940",
      "function": "approveMax(address,address)",
      "arguments": [
        "0xFd086bC7CD5C481DCC9C85ebE478A1C0b69FCbb9",
        "0x6A000F20005980200259B80c5102003040001068"
      ],
      "transaction": {
        "from": "0xe0d2d6956c1d9fa49c29a69f2e49f5f176aa27fd",
        "to": "0x1096842f1028ef6f9284ebc431fa0ff329b3c940",
        "gas": "0x6e75",
        "value": "0x0",
        "input": "0xaec42a17000000000000000000000000fd086bc7cd5c481dcc9c85ebe478a1c0b69fcbb90000000000000000000000006a000f20005980200259b80c5102003040001068",
        "nonce": "0x3d",
        "chainId": "0xa4b1"
      },
      "additionalContracts": [],
      "isFixedGasLimit": false
    },
    {
      "hash": "0xe7ecb1789088782d8f6d43e9109351ddfe523ee089a006fc1df2759f09ea61e7",
      "transactionType": "CALL",
      "contractName": "SwapBridge",
      "contractAddress": "0x1096842f1028ef6f9284ebc431fa0ff329b3c940",
      "function": "approveMax(address,address)",
      "arguments": [
        "0xDA10009cBd5D07dd0CeCc66161FC93D7c9000da1",
        "0x6A000F20005980200259B80c5102003040001068"
      ],
      "transaction": {
        "from": "0xe0d2d6956c1d9fa49c29a69f2e49f5f176aa27fd",
        "to": "0x1096842f1028ef6f9284ebc431fa0ff329b3c940",
        "gas": "0x6e56",
        "value": "0x0",
        "input": "0xaec42a17000000000000000000000000da10009cbd5d07dd0cecc66161fc93d7c9000da10000000000000000000000006a000f20005980200259b80c5102003040001068",
        "nonce": "0x3e",
        "chainId": "0xa4b1"
      },
      "additionalContracts": [],
      "isFixedGasLimit": false
    },
    {
      "hash": "0xf7ef4ea7668ab4cddc180a2b9f43c7ff59ea68e7322c53da1708b1a3ec6f8fe4",
      "transactionType": "CALL",
      "contractName": "SwapBridge",
      "contractAddress": "0x1096842f1028ef6f9284ebc431fa0ff329b3c940",
      "function": "approveMax(address,address)",
      "arguments": [
        "0xFEa7a6a0B346362BF88A9e4A88416B77a57D6c2A",
        "0x6A000F20005980200259B80c5102003040001068"
      ],
      "transaction": {
        "from": "0xe0d2d6956c1d9fa49c29a69f2e49f5f176aa27fd",
        "to": "0x1096842f1028ef6f9284ebc431fa0ff329b3c940",
        "gas": "0x6e75",
        "value": "0x0",
        "input": "0xaec42a17000000000000000000000000fea7a6a0b346362bf88a9e4a88416b77a57d6c2a0000000000000000000000006a000f20005980200259b80c5102003040001068",
        "nonce": "0x3f",
        "chainId": "0xa4b1"
      },
      "additionalContracts": [],
      "isFixedGasLimit": false
    }
  ],
  "receipts": [
    {
      "status": "0x1",
      "cumulativeGasUsed": "0x13d523",
      "logs": [
        {
          "address": "0x1096842f1028ef6f9284ebc431fa0ff329b3c940",
          "topics": [
            "0x8be0079c531659141344cd1fd0a4f28419497f9722a3daafe3b4186f6b6457e0",
            "0x0000000000000000000000000000000000000000000000000000000000000000",
            "0x000000000000000000000000e0d2d6956c1d9fa49c29a69f2e49f5f176aa27fd"
          ],
          "data": "0x",
          "blockHash": "0x4de8b37a2588ba4a2aa4a8c1f5c0bc44c6053e9c41b5a9c3b530bd6d4233d5ee",
          "blockNumber": "0xd629093",
          "transactionHash": "0x2a0e5e0f4de27d304da54a59a5547ad67c67c6fcebb20f4a54ced4de966fbc1d",
          "transactionIndex": "0x4",
          "logIndex": "0x0",
          "removed": false
        }
      ],
      "logsBloom": "0x00000000000000000000000000000000000000000000000000800000000000000000000000000000000000000000000000000000000000000000000000000000002000000000000000000000000000000001000000000010000000000000000000000000020000000000000000000800000000000000000100000000000000400000000000000000000000000000000000000000000000000000000000000000000000000000002000000000000000000000000000000040000000000000000000000000000000000000000000000000000000000000000000000000000020010000000000000000000000000000000000000000000000000000000000000000",
      "type": "0x2",
      "transactionHash": "0x2a0e5e0f4de27d304da54a59a5547ad67c67c6fcebb20f4a54ced4de966fbc1d",
      "transactionIndex": "0x4",
      "blockHash": "0x4de8b37a2588ba4a2aa4a8c1f5c0bc44c6053e9c41b5a9c3b530bd6d4233d5ee",
      "blockNumber": "0xd629093",
      "gasUsed": "0x128227",
      "effectiveGasPrice": "0x989680",
      "from": "0xe0d2d6956c1d9fa49c29a69f2e49f5f176aa27fd",
      "to": "0x4e59b44847b379578588920ca78fbf26c0b4956c",
      "contractAddress": "0x1096842f1028ef6f9284ebc431fa0ff329b3c940",
      "gasUsedForL1": "0x0",
      "l1BlockNumber": "0x1336ef1"
    },
    {
      "status": "0x1",
      "cumulativeGasUsed": "0x4e9e9",
      "logs": [],
      "logsBloom": "0x00000000000000000000000000000000000000000000000000000000000000000000000000000000000000000000000000000000000000000000000000000000000000000000000000000000000000000000000000000000000000000000000000000000000000000000000000000000000000000000000000000000000000000000000000000000000000000000000000000000000000000000000000000000000000000000000000000000000000000000000000000000000000000000000000000000000000000000000000000000000000000000000000000000000000000000000000000000000000000000000000000000000000000000000000000000",
      "type": "0x2",
      "transactionHash": "0x60855c5af8d5f85f1b85c28d5c14e0c190ce484af639ccfc1272fe713c6090f3",
      "transactionIndex": "0x4",
      "blockHash": "0x555787270a38ff377c2fb85334dcd610aec4d0019edaa343441de441dc08bda5",
      "blockNumber": "0xd629099",
      "gasUsed": "0x1631f",
      "effectiveGasPrice": "0x989680",
      "from": "0xe0d2d6956c1d9fa49c29a69f2e49f5f176aa27fd",
      "to": "0x1096842f1028ef6f9284ebc431fa0ff329b3c940",
      "contractAddress": null,
      "gasUsedForL1": "0x0",
      "l1BlockNumber": "0x1336ef1"
    },
    {
      "status": "0x1",
      "cumulativeGasUsed": "0x12d707",
      "logs": [
        {
          "address": "0xff970a61a04b1ca14834a43f5de4533ebddb5cc8",
          "topics": [
            "0x8c5be1e5ebec7d5bd14f71427d1e84f3dd0314c0f7b2291e5b200ac8c7c3b925",
            "0x0000000000000000000000001096842f1028ef6f9284ebc431fa0ff329b3c940",
            "0x0000000000000000000000001bacc2205312534375c8d1801c27d28370656cff"
          ],
          "data": "0xffffffffffffffffffffffffffffffffffffffffffffffffffffffffffffffff",
          "blockHash": "0x97c866c37c07d0f0de1509c939993ad1931995530e3ac7377f776d751a8c0d5d",
          "blockNumber": "0xd62909e",
          "transactionHash": "0xd4598228540136ecc2ed0de8e4077071a96da2d6b4c00d881901ee1f5e3b186e",
          "transactionIndex": "0x3",
          "logIndex": "0x25",
          "removed": false
        }
      ],
      "logsBloom": "0x00000000000000000000000000000000000000000000000000000000000000100000000000000000000000000000000000000000000000000000000000200000000000000000000000000000000000000000000000000000100000000000000000000000000000000000000000000000000000004000000000000004000000000000000000000000000000000000000000000000020000000000000000000000020000000020000000000000000000000000000000000000000000000000000000000000000000000000000000000000000000000000200000000000000000000010000000000000000800000000000000010000000000000000000000000000",
      "type": "0x2",
      "transactionHash": "0xd4598228540136ecc2ed0de8e4077071a96da2d6b4c00d881901ee1f5e3b186e",
      "transactionIndex": "0x3",
      "blockHash": "0x97c866c37c07d0f0de1509c939993ad1931995530e3ac7377f776d751a8c0d5d",
      "blockNumber": "0xd62909e",
      "gasUsed": "0x10440",
      "effectiveGasPrice": "0x989680",
      "from": "0xe0d2d6956c1d9fa49c29a69f2e49f5f176aa27fd",
      "to": "0x1096842f1028ef6f9284ebc431fa0ff329b3c940",
      "contractAddress": null,
      "gasUsedForL1": "0x0",
      "l1BlockNumber": "0x1336ef1"
    },
    {
      "status": "0x1",
      "cumulativeGasUsed": "0x1d2d8",
      "logs": [
        {
          "address": "0xaf88d065e77c8cc2239327c5edb3a432268e5831",
          "topics": [
            "0x8c5be1e5ebec7d5bd14f71427d1e84f3dd0314c0f7b2291e5b200ac8c7c3b925",
            "0x0000000000000000000000001096842f1028ef6f9284ebc431fa0ff329b3c940",
            "0x0000000000000000000000006a000f20005980200259b80c5102003040001068"
          ],
          "data": "0xffffffffffffffffffffffffffffffffffffffffffffffffffffffffffffffff",
          "blockHash": "0xc4a85e390b554f6f301d97168efb3be23cc9a1f456339e9b56cc296560945c88",
          "blockNumber": "0xd6290a3",
          "transactionHash": "0xa6cb6fc53f9f221f9b6ae91a06ba1b8005e75a10cb91470730ac29c38459401c",
          "transactionIndex": "0x2",
          "logIndex": "0x0",
          "removed": false
        }
      ],
      "logsBloom": "0x00000000000000000000000000000000000000000000000000000000000000000000000000000000000000000000000000000001000000000000000000200000000000000000000000000000000000000000000000000000100000000000000000000000000000000000000000000000000000000000000000000000001100000000000000000000000000000000000000000000000000000000000000000000020000000020000000000040000000000000000000000000000000000000000000002000000000000000000000000000000000000000000000000000000000000010000000000000000000000000200000010000000000000000000000000000",
      "type": "0x2",
      "transactionHash": "0xa6cb6fc53f9f221f9b6ae91a06ba1b8005e75a10cb91470730ac29c38459401c",
      "transactionIndex": "0x2",
      "blockHash": "0xc4a85e390b554f6f301d97168efb3be23cc9a1f456339e9b56cc296560945c88",
      "blockNumber": "0xd6290a3",
      "gasUsed": "0xf21a",
      "effectiveGasPrice": "0x989680",
      "from": "0xe0d2d6956c1d9fa49c29a69f2e49f5f176aa27fd",
      "to": "0x1096842f1028ef6f9284ebc431fa0ff329b3c940",
      "contractAddress": null,
      "gasUsedForL1": "0x0",
      "l1BlockNumber": "0x1336ef1"
    },
    {
      "status": "0x1",
      "cumulativeGasUsed": "0x337dd",
      "logs": [
        {
          "address": "0xfd086bc7cd5c481dcc9c85ebe478a1c0b69fcbb9",
          "topics": [
            "0x8c5be1e5ebec7d5bd14f71427d1e84f3dd0314c0f7b2291e5b200ac8c7c3b925",
            "0x0000000000000000000000001096842f1028ef6f9284ebc431fa0ff329b3c940",
            "0x0000000000000000000000006a000f20005980200259b80c5102003040001068"
          ],
          "data": "0xffffffffffffffffffffffffffffffffffffffffffffffffffffffffffffffff",
          "blockHash": "0x48658dca2f5639bf4dd5b4fb27bfadc3e3a3be0e7686ea7594602a3ab2688040",
          "blockNumber": "0xd6290a8",
          "transactionHash": "0x7cbac403483ced635c134849438c3395df4d181ffc06b2c135f6142623656ac1",
          "transactionIndex": "0x2",
          "logIndex": "0x3",
          "removed": false
        }
      ],
      "logsBloom": "0x00000000000000000000000000000000000000000000000000000000000000000000000000000000000000000000000000000000000000000000000000200000000010000000000000000000000000000000000000000000100000000000000000000000000000000000000000000000000000000000000000000000001100000000000000000000000000000000000000000000000000000000000000000000020000000020000000000040000000000000000000000000000000000000000000008000000000000000000000000000000000000000000000000000000000000010000000000000000000000000000010010000000000000000000000000000",
      "type": "0x2",
      "transactionHash": "0x7cbac403483ced635c134849438c3395df4d181ffc06b2c135f6142623656ac1",
      "transactionIndex": "0x2",
      "blockHash": "0x48658dca2f5639bf4dd5b4fb27bfadc3e3a3be0e7686ea7594602a3ab2688040",
      "blockNumber": "0xd6290a8",
      "gasUsed": "0xeab9",
      "effectiveGasPrice": "0x989680",
      "from": "0xe0d2d6956c1d9fa49c29a69f2e49f5f176aa27fd",
      "to": "0x1096842f1028ef6f9284ebc431fa0ff329b3c940",
      "contractAddress": null,
      "gasUsedForL1": "0x0",
      "l1BlockNumber": "0x1336ef1"
    },
    {
      "status": "0x1",
      "cumulativeGasUsed": "0x7cdd1",
      "logs": [
        {
          "address": "0xda10009cbd5d07dd0cecc66161fc93d7c9000da1",
          "topics": [
            "0x8c5be1e5ebec7d5bd14f71427d1e84f3dd0314c0f7b2291e5b200ac8c7c3b925",
            "0x0000000000000000000000001096842f1028ef6f9284ebc431fa0ff329b3c940",
            "0x0000000000000000000000006a000f20005980200259b80c5102003040001068"
          ],
          "data": "0xffffffffffffffffffffffffffffffffffffffffffffffffffffffffffffffff",
          "blockHash": "0x23d0d4c421663398e7dd14d910f2e7b6c3971e5210cf7ffddac62cdec0c0735e",
          "blockNumber": "0xd6290af",
          "transactionHash": "0xe7ecb1789088782d8f6d43e9109351ddfe523ee089a006fc1df2759f09ea61e7",
          "transactionIndex": "0x5",
          "logIndex": "0xb",
          "removed": false
        }
      ],
      "logsBloom": "0x00000000000000000000000000000000000000000000000000000000000000000000000000000000000000000000000000000000000000000000000000200000000000000000000001000000000000000000000000000000100000000000000000000000000000000000000000000000000000000000000000000000001100000000000000000000000000000000000000000000000000000000000000000000020000000020000000000040000000000000000000000000000000000000000000000000000000000000000000000000200000000000000000000000000000000010000020000000000000000000000000010000000000000000000000000000",
      "type": "0x2",
      "transactionHash": "0xe7ecb1789088782d8f6d43e9109351ddfe523ee089a006fc1df2759f09ea61e7",
      "transactionIndex": "0x5",
      "blockHash": "0x23d0d4c421663398e7dd14d910f2e7b6c3971e5210cf7ffddac62cdec0c0735e",
      "blockNumber": "0xd6290af",
      "gasUsed": "0xcd5a",
      "effectiveGasPrice": "0x989680",
      "from": "0xe0d2d6956c1d9fa49c29a69f2e49f5f176aa27fd",
      "to": "0x1096842f1028ef6f9284ebc431fa0ff329b3c940",
      "contractAddress": null,
      "gasUsedForL1": "0x0",
      "l1BlockNumber": "0x1336ef1"
    },
    {
      "status": "0x1",
      "cumulativeGasUsed": "0x897c8",
      "logs": [
        {
          "address": "0xfea7a6a0b346362bf88a9e4a88416b77a57d6c2a",
          "topics": [
            "0x8c5be1e5ebec7d5bd14f71427d1e84f3dd0314c0f7b2291e5b200ac8c7c3b925",
            "0x0000000000000000000000001096842f1028ef6f9284ebc431fa0ff329b3c940",
            "0x0000000000000000000000006a000f20005980200259b80c5102003040001068"
          ],
          "data": "0xffffffffffffffffffffffffffffffffffffffffffffffffffffffffffffffff",
          "blockHash": "0xd2d0c7512b0e236a8a0f2fcc06488d03565fcf1ed89564aab3978819b4178f9e",
          "blockNumber": "0xd6290b5",
          "transactionHash": "0xf7ef4ea7668ab4cddc180a2b9f43c7ff59ea68e7322c53da1708b1a3ec6f8fe4",
          "transactionIndex": "0x4",
          "logIndex": "0x8",
          "removed": false
        }
      ],
      "logsBloom": "0x00000000000000000000000000000000000000000000000000000000000000000000000020000000000000000000000000000000000000000000000000200000000000000000000000000000000000000000000000000000100000000000000000000000000000000000000000000000000000000000000000000000001100000000000000000000000000000000000000000000000000000000080000000000020000000020000000000050000000000000000000000000000000000000000000000000000000000000000000000000000000000000000000000000000000000010000000000000000000000000000000010000000000000000000000000000",
      "type": "0x2",
      "transactionHash": "0xf7ef4ea7668ab4cddc180a2b9f43c7ff59ea68e7322c53da1708b1a3ec6f8fe4",
      "transactionIndex": "0x4",
      "blockHash": "0xd2d0c7512b0e236a8a0f2fcc06488d03565fcf1ed89564aab3978819b4178f9e",
      "blockNumber": "0xd6290b5",
      "gasUsed": "0xce44",
      "effectiveGasPrice": "0x989680",
      "from": "0xe0d2d6956c1d9fa49c29a69f2e49f5f176aa27fd",
      "to": "0x1096842f1028ef6f9284ebc431fa0ff329b3c940",
      "contractAddress": null,
      "gasUsedForL1": "0x0",
      "l1BlockNumber": "0x1336ef2"
    }
  ],
  "libraries": [],
  "pending": [],
  "returns": {},
  "timestamp": 1719067889,
  "chain": 42161,
  "commit": "abf13da"
}