{
  "transactions": [
    {
      "hash": "0x05652576a36fbc6b5f94c2f6b167f6cebf436111ee806963f414a2255b67e120",
      "transactionType": "CREATE2",
      "contractName": "SwapBridge",
      "contractAddress": "0x8B3A71dbd3a1CFC314245b5Fb786f25826713099",
      "function": null,
      "arguments": [
        "0x1BAcC2205312534375c8d1801C27D28370656cFf"
      ],
      "transaction": {
        "type": "0x02",
        "from": "0xe0d2d6956c1d9fa49c29a69f2e49f5f176aa27fd",
        "to": "0x4e59b44847b379578588920ca78fbf26c0b4956c",
        "gas": "0x1f4b56",
        "value": "0x0",
        "data": "0xfa1d23fff7000000000000000000000000000000000000000000000000000000608060405234801561001057600080fd5b50604051610ff9380380610ff983398101604081905261002f916100d4565b338061005557604051631e4fbdf760e01b81526000600482015260240160405180910390fd5b61005e81610084565b50600180546001600160a01b0319166001600160a01b0392909216919091179055610104565b600080546001600160a01b038381166001600160a01b0319831681178455604051919092169283917f8be0079c531659141344cd1fd0a4f28419497f9722a3daafe3b4186f6b6457e09190a35050565b6000602082840312156100e657600080fd5b81516001600160a01b03811681146100fd57600080fd5b9392505050565b610ee6806101136000396000f3fe60806040526004361061007b5760003560e01c80639064aa171161004e5780639064aa171461010e578063aec42a1714610121578063f2fde38b14610141578063f316d2271461016157600080fd5b80634707d000146100805780636bc5f161146100a2578063715018a6146100d15780638da5cb5b146100e6575b600080fd5b34801561008c57600080fd5b506100a061009b366004610c06565b610174565b005b3480156100ae57600080fd5b506100b7610242565b604080519283526020830191909152015b60405180910390f35b3480156100dd57600080fd5b506100a06102d6565b3480156100f257600080fd5b506000546040516001600160a01b0390911681526020016100c8565b6100a061011c366004610c3f565b6102ea565b34801561012d57600080fd5b506100a061013c366004610c06565b6103aa565b34801561014d57600080fd5b506100a061015c366004610c74565b6103bb565b6100a061016f366004610c91565b6103f9565b61017c61062c565b6040516370a0823160e01b81523060048201526000906001600160a01b038416906370a0823190602401602060405180830381865afa1580156101c3573d6000803e3d6000fd5b505050506040513d601f19601f820116820180604052508101906101e79190610d58565b9050600081116102325760405162461bcd60e51b81526020600482015260116024820152704e6f7468696e6720746f2072657363756560781b60448201526064015b60405180910390fd5b61023d838383610659565b505050565b600080600080610255600160f81b6106b8565b6001546040516308d172cd60e31b81529294509092506001600160a01b03169063468b96689061028b9085908590600401610dc1565b6040805180830381865afa1580156102a7573d6000803e3d6000fd5b505050506040513d601f19601f820116820180604052508101906102cb9190610dff565b909590945092505050565b6102de61062c565b6102e86000610721565b565b6102f683333085610771565b6103018383836107b0565b6040516370a0823160e01b81523060048201526001600160a01b038416906370a0823190602401602060405180830381865afa158015610345573d6000803e3d6000fd5b505050506040513d601f19601f820116820180604052508101906103699190610d58565b1561023d5760405162461bcd60e51b8152602060048201526011602482015270746f546f6b656e2072656d61696e696e6760781b6044820152606401610229565b6103b78282600019610827565b5050565b6103c361062c565b6001600160a01b0381166103ed57604051631e4fbdf760e01b815260006004820152602401610229565b6103f681610721565b50565b6104058833308a610771565b6104458383838080601f0160208091040260200160405190810160405280939291908181526020018383808284376000920191909152506108b792505050565b506040516370a0823160e01b81523060048201526000906001600160a01b038816906370a0823190602401602060405180830381865afa15801561048d573d6000803e3d6000fd5b505050506040513d601f19601f820116820180604052508101906104b19190610d58565b9050858110156104ee5760405162461bcd60e51b81526020600482015260086024820152671d1bd05b5bdd5b9d60c21b6044820152606401610229565b6040516370a0823160e01b81523060048201526000906001600160a01b038b16906370a0823190602401602060405180830381865afa158015610535573d6000803e3d6000fd5b505050506040513d601f19601f820116820180604052508101906105599190610d58565b9050801561056c5761056c8a3383610659565b6105778883886107b0565b6040516370a0823160e01b81523060048201526001600160a01b038916906370a0823190602401602060405180830381865afa1580156105bb573d6000803e3d6000fd5b505050506040513d601f19601f820116820180604052508101906105df9190610d58565b156106205760405162461bcd60e51b8152602060048201526011602482015270746f546f6b656e2072656d61696e696e6760781b6044820152606401610229565b50505050505050505050565b6000546001600160a01b031633146102e85760405163118cdaa760e01b8152336004820152602401610229565b6040516001600160a01b0383811660248301526044820183905261023d91859182169063a9059cbb906064015b604051602081830303815290604052915060e01b6020820180516001600160e01b0383818316178352505050506108cc565b604080518082019091526000808252602082015260606040518060400160405280336001600160a01b0316815260200160006001600160a01b0316815250915061071a61271060405180604001604052806126b081526020018681525061092f565b9050915091565b600080546001600160a01b038381166001600160a01b0319831681178455604051919092169283917f8be0079c531659141344cd1fd0a4f28419497f9722a3daafe3b4186f6b6457e09190a35050565b6040516001600160a01b0384811660248301528381166044830152606482018390526107aa9186918216906323b872dd90608401610686565b50505050565b6000806107bc836106b8565b600154604051633b5484cd60e11b81529294509092506001600160a01b0316906376a9099a9034906107fa90899088908a9089908990600401610e23565b6000604051808303818588803b15801561081357600080fd5b505af1158015610620573d6000803e3d6000fd5b604080516001600160a01b038416602482015260448082018490528251808303909101815260649091019091526020810180516001600160e01b031663095ea7b360e01b1790526108788482610a27565b6107aa576040516001600160a01b038481166024830152600060448301526108ad91869182169063095ea7b390606401610686565b6107aa84826108cc565b60606108c583836000610acf565b9392505050565b60006108e16001600160a01b038416836108b7565b905080516000141580156109065750808060200190518101906109049190610e72565b155b1561023d57604051635274afe760e01b81526001600160a01b0384166004820152602401610229565b805160609061098e5760405162461bcd60e51b815260206004820152602560248201527f41697264726f7020616d6f756e74206d75737420626520677265617465722074604482015264068616e20360dc1b6064820152608401610229565b60208201516109df5760405162461bcd60e51b815260206004820152601b60248201527f41697264726f702061646472657373206d7573742062652073657400000000006044820152606401610229565b8151602080840151604051600160f11b928101929092526022820186905260428201929092526062810191909152608201604051602081830303815290604052905092915050565b6000806000846001600160a01b031684604051610a449190610e94565b6000604051808303816000865af19150503d8060008114610a81576040519150601f19603f3d011682016040523d82523d6000602084013e610a86565b606091505b5091509150818015610ab0575080511580610ab0575080806020019051810190610ab09190610e72565b8015610ac657506000856001600160a01b03163b115b95945050505050565b606081471015610af45760405163cd78605960e01b8152306004820152602401610229565b600080856001600160a01b03168486604051610b109190610e94565b60006040518083038185875af1925050503d8060008114610b4d576040519150601f19603f3d011682016040523d82523d6000602084013e610b52565b606091505b5091509150610b62868383610b6c565b9695505050505050565b606082610b8157610b7c82610bc8565b6108c5565b8151158015610b9857506001600160a01b0384163b155b15610bc157604051639996b31560e01b81526001600160a01b0385166004820152602401610229565b50806108c5565b805115610bd85780518082602001fd5b604051630a12f52160e11b815260040160405180910390fd5b6001600160a01b03811681146103f657600080fd5b60008060408385031215610c1957600080fd5b8235610c2481610bf1565b91506020830135610c3481610bf1565b809150509250929050565b600080600060608486031215610c5457600080fd5b8335610c5f81610bf1565b95602085013595506040909401359392505050565b600060208284031215610c8657600080fd5b81356108c581610bf1565b60008060008060008060008060e0898b031215610cad57600080fd5b8835610cb881610bf1565b9750602089013596506040890135610ccf81610bf1565b9550606089013594506080890135935060a0890135610ced81610bf1565b925060c089013567ffffffffffffffff80821115610d0a57600080fd5b818b0191508b601f830112610d1e57600080fd5b813581811115610d2d57600080fd5b8c6020828501011115610d3f57600080fd5b6020830194508093505050509295985092959890939650565b600060208284031215610d6a57600080fd5b5051919050565b60005b83811015610d8c578181015183820152602001610d74565b50506000910152565b60008151808452610dad816020860160208601610d71565b601f01601f19169290920160200192915050565b610de1818480516001600160a01b03908116835260209182015116910152565b606060408201526000610df76060830184610d95565b949350505050565b60008060408385031215610e1257600080fd5b505080516020909101519092909150565b6001600160a01b03868116825260208083018790526040830186905284518216606084015284015116608082015260c060a08201526000610e6760c0830184610d95565b979650505050505050565b600060208284031215610e8457600080fd5b815180151581146108c557600080fd5b60008251610ea6818460208701610d71565b919091019291505056fea26469706673582212200c60636dedd238528145316ecb8d65fc9a9b29ba5f6b65313fa303fed6fafe7464736f6c634300081900330000000000000000000000001bacc2205312534375c8d1801c27d28370656cff",
        "nonce": "0x7",
        "accessList": []
      },
      "additionalContracts": [],
      "isFixedGasLimit": false
    },
    {
      "hash": "0x8c0b9b523188ee6ae346c884b8cf0f4fb675fa5937a91f6862880831f1212ded",
      "transactionType": "CALL",
      "contractName": "SwapBridge",
      "contractAddress": "0x8B3A71dbd3a1CFC314245b5Fb786f25826713099",
      "function": "approveMax(address,address)",
      "arguments": [
        "0xFF970A61A04b1cA14834A43f5dE4533eBDDB5CC8",
        "0x1BAcC2205312534375c8d1801C27D28370656cFf"
      ],
      "transaction": {
        "type": "0x02",
        "from": "0xe0d2d6956c1d9fa49c29a69f2e49f5f176aa27fd",
        "to": "0x8b3a71dbd3a1cfc314245b5fb786f25826713099",
        "gas": "0x17e0c",
        "value": "0x0",
        "data": "0xaec42a17000000000000000000000000ff970a61a04b1ca14834a43f5de4533ebddb5cc80000000000000000000000001bacc2205312534375c8d1801c27d28370656cff",
        "nonce": "0x8",
        "accessList": []
      },
      "additionalContracts": [],
      "isFixedGasLimit": false
    },
    {
      "hash": "0x6b1b0c822533a8b8a78efe8f4155b9e9bfd4749c3863ba0dc9e6a9cca1bc97d1",
      "transactionType": "CALL",
      "contractName": "SwapBridge",
      "contractAddress": "0x8B3A71dbd3a1CFC314245b5Fb786f25826713099",
      "function": "approveMax(address,address)",
      "arguments": [
        "0xaf88d065e77c8cC2239327C5EDb3A432268e5831",
        "0x216B4B4Ba9F3e719726886d34a177484278Bfcae"
      ],
      "transaction": {
        "type": "0x02",
        "from": "0xe0d2d6956c1d9fa49c29a69f2e49f5f176aa27fd",
        "to": "0x8b3a71dbd3a1cfc314245b5fb786f25826713099",
        "gas": "0x17e0c",
        "value": "0x0",
        "data": "0xaec42a17000000000000000000000000af88d065e77c8cc2239327c5edb3a432268e5831000000000000000000000000216b4b4ba9f3e719726886d34a177484278bfcae",
        "nonce": "0x9",
        "accessList": []
      },
      "additionalContracts": [],
      "isFixedGasLimit": false
    },
    {
      "hash": "0xf9bc00bc6338d1c547fbeaeac850550071d925525ccecceac4d30cdc60351205",
      "transactionType": "CALL",
      "contractName": "SwapBridge",
      "contractAddress": "0x8B3A71dbd3a1CFC314245b5Fb786f25826713099",
      "function": "approveMax(address,address)",
      "arguments": [
        "0xFd086bC7CD5C481DCC9C85ebE478A1C0b69FCbb9",
        "0x216B4B4Ba9F3e719726886d34a177484278Bfcae"
      ],
      "transaction": {
        "type": "0x02",
        "from": "0xe0d2d6956c1d9fa49c29a69f2e49f5f176aa27fd",
        "to": "0x8b3a71dbd3a1cfc314245b5fb786f25826713099",
        "gas": "0x17e0c",
        "value": "0x0",
        "data": "0xaec42a17000000000000000000000000fd086bc7cd5c481dcc9c85ebe478a1c0b69fcbb9000000000000000000000000216b4b4ba9f3e719726886d34a177484278bfcae",
        "nonce": "0xa",
        "accessList": []
      },
      "additionalContracts": [],
      "isFixedGasLimit": false
    },
    {
      "hash": "0x62db6a9445bc318e63f5a7cc2fdaeb941ded08c5e730015912d342a0d7626c27",
      "transactionType": "CALL",
      "contractName": "SwapBridge",
      "contractAddress": "0x8B3A71dbd3a1CFC314245b5Fb786f25826713099",
      "function": "approveMax(address,address)",
      "arguments": [
        "0xDA10009cBd5D07dd0CeCc66161FC93D7c9000da1",
        "0x216B4B4Ba9F3e719726886d34a177484278Bfcae"
      ],
      "transaction": {
        "type": "0x02",
        "from": "0xe0d2d6956c1d9fa49c29a69f2e49f5f176aa27fd",
        "to": "0x8b3a71dbd3a1cfc314245b5fb786f25826713099",
        "gas": "0x17ded",
        "value": "0x0",
        "data": "0xaec42a17000000000000000000000000da10009cbd5d07dd0cecc66161fc93d7c9000da1000000000000000000000000216b4b4ba9f3e719726886d34a177484278bfcae",
        "nonce": "0xb",
        "accessList": []
      },
      "additionalContracts": [],
      "isFixedGasLimit": false
    },
    {
      "hash": "0xf019a563276f8b8f4a169ff7b39f41e769ffd0408134b16c385e04cb0c288377",
      "transactionType": "CALL",
      "contractName": "SwapBridge",
      "contractAddress": "0x8B3A71dbd3a1CFC314245b5Fb786f25826713099",
      "function": "approveMax(address,address)",
      "arguments": [
        "0xFEa7a6a0B346362BF88A9e4A88416B77a57D6c2A",
        "0x216B4B4Ba9F3e719726886d34a177484278Bfcae"
      ],
      "transaction": {
        "type": "0x02",
        "from": "0xe0d2d6956c1d9fa49c29a69f2e49f5f176aa27fd",
        "to": "0x8b3a71dbd3a1cfc314245b5fb786f25826713099",
        "gas": "0x17e0c",
        "value": "0x0",
        "data": "0xaec42a17000000000000000000000000fea7a6a0b346362bf88a9e4a88416b77a57d6c2a000000000000000000000000216b4b4ba9f3e719726886d34a177484278bfcae",
        "nonce": "0xc",
        "accessList": []
      },
      "additionalContracts": [],
      "isFixedGasLimit": false
    }
  ],
  "receipts": [
    {
      "transactionHash": "0x05652576a36fbc6b5f94c2f6b167f6cebf436111ee806963f414a2255b67e120",
      "transactionIndex": "0x8",
      "blockHash": "0x9cf7f61909bcb8c44fb4696deb3248a290c35cc75d1cb096b7bf5e09e69b544b",
      "blockNumber": "0xc02d269",
      "from": "0xe0D2d6956c1D9fa49c29A69F2E49f5f176aa27fd",
      "to": "0x4e59b44847b379578588920cA78FbF26c0B4956C",
      "cumulativeGasUsed": "0x37a198",
      "gasUsed": "0x16d22e",
      "contractAddress": "0x8B3A71dbd3a1CFC314245b5Fb786f25826713099",
      "logs": [
        {
          "address": "0x8B3A71dbd3a1CFC314245b5Fb786f25826713099",
          "topics": [
            "0x8be0079c531659141344cd1fd0a4f28419497f9722a3daafe3b4186f6b6457e0",
            "0x0000000000000000000000000000000000000000000000000000000000000000",
            "0x0000000000000000000000004e59b44847b379578588920ca78fbf26c0b4956c"
          ],
          "data": "0x",
          "blockHash": "0x9cf7f61909bcb8c44fb4696deb3248a290c35cc75d1cb096b7bf5e09e69b544b",
          "blockNumber": "0xc02d269",
          "transactionHash": "0x05652576a36fbc6b5f94c2f6b167f6cebf436111ee806963f414a2255b67e120",
          "transactionIndex": "0x8",
          "logIndex": "0x32",
          "removed": false
        }
      ],
      "status": "0x1",
      "logsBloom": "0x00000000000000000000000000000000000000000000000000800000000000000000000000000000000000000000000000000000000000000000000000000000000000000000000000000000000000000001080000000000000000000000000000000000020000000000000000000800000000000000000000000000000000400000000000000000000000000000000000000000001000000000000000000000000000020001000000000000000000000000000000000008000000000000000000000000000000000000000000000000000000000000000000000000000020000000000000000000000000000000000080000000000000000000000000000000",
      "type": "0x2",
      "effectiveGasPrice": "0x989680"
    },
    {
      "transactionHash": "0x8c0b9b523188ee6ae346c884b8cf0f4fb675fa5937a91f6862880831f1212ded",
      "transactionIndex": "0x2",
      "blockHash": "0xf92a67674ae65abaa0da3fd6d14ba4c2c90b0f4fb891cb296480fe9b3d8586b9",
      "blockNumber": "0xc02d287",
      "from": "0xe0D2d6956c1D9fa49c29A69F2E49f5f176aa27fd",
      "to": "0x8B3A71dbd3a1CFC314245b5Fb786f25826713099",
      "cumulativeGasUsed": "0xbbc9d",
      "gasUsed": "0x1a075",
      "contractAddress": null,
      "logs": [
        {
          "address": "0xFF970A61A04b1cA14834A43f5dE4533eBDDB5CC8",
          "topics": [
            "0x8c5be1e5ebec7d5bd14f71427d1e84f3dd0314c0f7b2291e5b200ac8c7c3b925",
            "0x0000000000000000000000008b3a71dbd3a1cfc314245b5fb786f25826713099",
            "0x0000000000000000000000001bacc2205312534375c8d1801c27d28370656cff"
          ],
          "data": "0xffffffffffffffffffffffffffffffffffffffffffffffffffffffffffffffff",
          "blockHash": "0xf92a67674ae65abaa0da3fd6d14ba4c2c90b0f4fb891cb296480fe9b3d8586b9",
          "blockNumber": "0xc02d287",
          "transactionHash": "0x8c0b9b523188ee6ae346c884b8cf0f4fb675fa5937a91f6862880831f1212ded",
          "transactionIndex": "0x2",
          "logIndex": "0xb",
          "removed": false
        }
      ],
      "status": "0x1",
      "logsBloom": "0x00000000000000000000000000000000000000000000000000000000000000100000000000000000000000000000000000000000000000000000000000200000000000000000000000000000000000000000000000000000000000000000000000000000000000000000000000000000000000004000000000000004000000000000000000000000000000000000000000000000020000000000004000000000020000000000000000000000000000000000000000000000000000000000000000000000000000000000000000000000000000000000200020000000000000000010000000000000000800000000000000000000000000000000000000040000",
      "type": "0x2",
      "effectiveGasPrice": "0x989680"
    },
    {
      "transactionHash": "0x6b1b0c822533a8b8a78efe8f4155b9e9bfd4749c3863ba0dc9e6a9cca1bc97d1",
      "transactionIndex": "0x1",
      "blockHash": "0xfcdb5a4c4b84aa981cf044eedb5cc59b66353e461860db3af9c31635cc99b7e4",
      "blockNumber": "0xc02d28c",
      "from": "0xe0D2d6956c1D9fa49c29A69F2E49f5f176aa27fd",
      "to": "0x8B3A71dbd3a1CFC314245b5Fb786f25826713099",
      "cumulativeGasUsed": "0x18e7f",
      "gasUsed": "0x18e7f",
      "contractAddress": null,
      "logs": [
        {
          "address": "0xaf88d065e77c8cC2239327C5EDb3A432268e5831",
          "topics": [
            "0x8c5be1e5ebec7d5bd14f71427d1e84f3dd0314c0f7b2291e5b200ac8c7c3b925",
            "0x0000000000000000000000008b3a71dbd3a1cfc314245b5fb786f25826713099",
            "0x000000000000000000000000216b4b4ba9f3e719726886d34a177484278bfcae"
          ],
          "data": "0xffffffffffffffffffffffffffffffffffffffffffffffffffffffffffffffff",
          "blockHash": "0xfcdb5a4c4b84aa981cf044eedb5cc59b66353e461860db3af9c31635cc99b7e4",
          "blockNumber": "0xc02d28c",
          "transactionHash": "0x6b1b0c822533a8b8a78efe8f4155b9e9bfd4749c3863ba0dc9e6a9cca1bc97d1",
          "transactionIndex": "0x1",
          "logIndex": "0x0",
          "removed": false
        }
      ],
      "status": "0x1",
      "logsBloom": "0x00000000000000020000000000000000000000000000000000000000000000000000000000000000000000000000000000000001000000000000000000200000000000000000000000200000000000000000000000000000000000000000000000000000000000000000000000000000000000000000000000000000000000000000000000000000000000000000000000000000000000000000004000000000024000000000000000000000000000000000000000000000000000000000000000002000000000000000000000000000000000000000000020000000000000000010000000000000000000000000200000000000000000000000000000040000",
      "type": "0x2",
      "effectiveGasPrice": "0x989680"
    },
    {
      "transactionHash": "0xf9bc00bc6338d1c547fbeaeac850550071d925525ccecceac4d30cdc60351205",
      "transactionIndex": "0x3",
      "blockHash": "0xed327710f74bc0c8922e8d4df996be214d362199952f47875bb75778b79e7007",
      "blockNumber": "0xc02d290",
      "from": "0xe0D2d6956c1D9fa49c29A69F2E49f5f176aa27fd",
      "to": "0x8B3A71dbd3a1CFC314245b5Fb786f25826713099",
      "cumulativeGasUsed": "0xebcd8",
      "gasUsed": "0x1871e",
      "contractAddress": null,
      "logs": [
        {
          "address": "0xFd086bC7CD5C481DCC9C85ebE478A1C0b69FCbb9",
          "topics": [
            "0x8c5be1e5ebec7d5bd14f71427d1e84f3dd0314c0f7b2291e5b200ac8c7c3b925",
            "0x0000000000000000000000008b3a71dbd3a1cfc314245b5fb786f25826713099",
            "0x000000000000000000000000216b4b4ba9f3e719726886d34a177484278bfcae"
          ],
          "data": "0xffffffffffffffffffffffffffffffffffffffffffffffffffffffffffffffff",
          "blockHash": "0xed327710f74bc0c8922e8d4df996be214d362199952f47875bb75778b79e7007",
          "blockNumber": "0xc02d290",
          "transactionHash": "0xf9bc00bc6338d1c547fbeaeac850550071d925525ccecceac4d30cdc60351205",
          "transactionIndex": "0x3",
          "logIndex": "0x6",
          "removed": false
        }
      ],
      "status": "0x1",
      "logsBloom": "0x00000000000000020000000000000000000000000000000000000000000000000000000000000000000000000000000000000000000000000000000000200000000010000000000000200000000000000000000000000000000000000000000000000000000000000000000000000000000000000000000000000000000000000000000000000000000000000000000000000000000000000000004000000000024000000000000000000000000000000000000000000000000000000000000000008000000000000000000000000000000000000000000020000000000000000010000000000000000000000000000010000000000000000000000000040000",
      "type": "0x2",
      "effectiveGasPrice": "0x989680"
    },
    {
      "transactionHash": "0x62db6a9445bc318e63f5a7cc2fdaeb941ded08c5e730015912d342a0d7626c27",
      "transactionIndex": "0x1",
      "blockHash": "0x208c75251d55baff43b873db05d4fb704cf16bd226c5b606ba83cb69a2748ed3",
      "blockNumber": "0xc02d295",
      "from": "0xe0D2d6956c1D9fa49c29A69F2E49f5f176aa27fd",
      "to": "0x8B3A71dbd3a1CFC314245b5Fb786f25826713099",
      "cumulativeGasUsed": "0x169bf",
      "gasUsed": "0x169bf",
      "contractAddress": null,
      "logs": [
        {
          "address": "0xDA10009cBd5D07dd0CeCc66161FC93D7c9000da1",
          "topics": [
            "0x8c5be1e5ebec7d5bd14f71427d1e84f3dd0314c0f7b2291e5b200ac8c7c3b925",
            "0x0000000000000000000000008b3a71dbd3a1cfc314245b5fb786f25826713099",
            "0x000000000000000000000000216b4b4ba9f3e719726886d34a177484278bfcae"
          ],
          "data": "0xffffffffffffffffffffffffffffffffffffffffffffffffffffffffffffffff",
          "blockHash": "0x208c75251d55baff43b873db05d4fb704cf16bd226c5b606ba83cb69a2748ed3",
          "blockNumber": "0xc02d295",
          "transactionHash": "0x62db6a9445bc318e63f5a7cc2fdaeb941ded08c5e730015912d342a0d7626c27",
          "transactionIndex": "0x1",
          "logIndex": "0x0",
          "removed": false
        }
      ],
      "status": "0x1",
      "logsBloom": "0x00000000000000020000000000000000000000000000000000000000000000000000000000000000000000000000000000000000000000000000000000200000000000000000000001200000000000000000000000000000000000000000000000000000000000000000000000000000000000000000000000000000000000000000000000000000000000000000000000000000000000000000004000000000024000000000000000000000000000000000000000000000000000000000000000000000000000000000000000000000200000000000000020000000000000000010000020000000000000000000000000000000000000000000000000040000",
      "type": "0x2",
      "effectiveGasPrice": "0x989680"
    },
    {
      "transactionHash": "0xf019a563276f8b8f4a169ff7b39f41e769ffd0408134b16c385e04cb0c288377",
      "transactionIndex": "0x2",
      "blockHash": "0x95d3d3115411aedcaf691951a22f25e7474be506e92c8edbeaeeaf4b41f8feec",
      "blockNumber": "0xc02d299",
      "from": "0xe0D2d6956c1D9fa49c29A69F2E49f5f176aa27fd",
      "to": "0x8B3A71dbd3a1CFC314245b5Fb786f25826713099",
      "cumulativeGasUsed": "0x49f3c",
      "gasUsed": "0x16aa9",
      "contractAddress": null,
      "logs": [
        {
          "address": "0xFEa7a6a0B346362BF88A9e4A88416B77a57D6c2A",
          "topics": [
            "0x8c5be1e5ebec7d5bd14f71427d1e84f3dd0314c0f7b2291e5b200ac8c7c3b925",
            "0x0000000000000000000000008b3a71dbd3a1cfc314245b5fb786f25826713099",
            "0x000000000000000000000000216b4b4ba9f3e719726886d34a177484278bfcae"
          ],
          "data": "0xffffffffffffffffffffffffffffffffffffffffffffffffffffffffffffffff",
          "blockHash": "0x95d3d3115411aedcaf691951a22f25e7474be506e92c8edbeaeeaf4b41f8feec",
          "blockNumber": "0xc02d299",
          "transactionHash": "0xf019a563276f8b8f4a169ff7b39f41e769ffd0408134b16c385e04cb0c288377",
          "transactionIndex": "0x2",
          "logIndex": "0x4",
          "removed": false
        }
      ],
      "status": "0x1",
      "logsBloom": "0x00000000000000020000000000000000000000000000000000000000000000000000000020000000000000000000000000000000000000000000000000200000000000000000000000200000000000000000000000000000000000000000000000000000000000000000000000000000000000000000000000000000000000000000000000000000000000000000000000000000000000000000084000000000024000000000000000000010000000000000000000000000000000000000000000000000000000000000000000000000000000000000000020000000000000000010000000000000000000000000000000000000000000000000000000040000",
      "type": "0x2",
      "effectiveGasPrice": "0x989680"
    }
  ],
  "libraries": [],
  "pending": [],
  "returns": {},
  "timestamp": 1713244367,
  "chain": 42161,
  "commit": "bf96c5d"
}