{
  "transactions": [
    {
      "hash": "0xc01ed8ba14bf58ab82171a0c9d4af11448da3b2d7b7d45ac8a244984975334e4",
      "transactionType": "CREATE2",
      "contractName": "SwapBridge",
      "contractAddress": "0x18267aad62e1e81dd26bd97661af4a76ea18ff3f",
      "function": null,
      "arguments": [
        "0xe0D2d6956c1D9fa49c29A69F2E49f5f176aa27fd"
      ],
      "transaction": {
        "from": "0xe0d2d6956c1d9fa49c29a69f2e49f5f176aa27fd",
        "to": "0x4e59b44847b379578588920ca78fbf26c0b4956c",
        "gas": "0x2291f2",
        "value": "0x0",
        "input": "0x6d65726b6c650000000000000000000000000000000000000000000000000000608060405234801561001057600080fd5b5060405161157438038061157483398101604081905261002f916100e7565b806001600160a01b03811661005e57604051631e4fbdf760e01b81526000600482015260240160405180910390fd5b6100678161007b565b50506001805460ff60a01b19169055610117565b600180546001600160a01b031916905561009481610097565b50565b600080546001600160a01b038381166001600160a01b0319831681178455604051919092169283917f8be0079c531659141344cd1fd0a4f28419497f9722a3daafe3b4186f6b6457e09190a35050565b6000602082840312156100f957600080fd5b81516001600160a01b038116811461011057600080fd5b9392505050565b61144e806101266000396000f3fe6080604052600436106100dd5760003560e01c806379ba50971161007f5780639064aa17116100595780639064aa1714610216578063aec42a1714610229578063e30c397814610249578063f2fde38b1461026757600080fd5b806379ba5097146101ba5780638456cb59146101cf5780638da5cb5b146101e457600080fd5b8063485cc955116100bb578063485cc9551461012c5780635c975abb1461014c5780636bc5f1611461017b578063715018a6146101a557600080fd5b80630a3a1c68146100e25780633f4ba83a146100f75780634707d0001461010c575b600080fd5b6100f56100f036600461115f565b610287565b005b34801561010357600080fd5b506100f561064f565b34801561011857600080fd5b506100f5610127366004611214565b610661565b34801561013857600080fd5b506100f5610147366004611214565b610706565b34801561015857600080fd5b50600154600160a01b900460ff1660405190151581526020015b60405180910390f35b34801561018757600080fd5b50610190610779565b60408051928352602083019190915201610172565b3480156101b157600080fd5b506100f561080d565b3480156101c657600080fd5b506100f561081f565b3480156101db57600080fd5b506100f5610868565b3480156101f057600080fd5b506000546001600160a01b03165b6040516001600160a01b039091168152602001610172565b6100f561022436600461124d565b610878565b34801561023557600080fd5b506100f5610244366004611214565b6109e9565b34801561025557600080fd5b506001546001600160a01b03166101fe565b34801561027357600080fd5b506100f5610282366004611282565b610a02565b61028f610a73565b6040516370a0823160e01b81523060048201526000906001600160a01b038916906370a0823190602401602060405180830381865afa1580156102d6573d6000803e3d6000fd5b505050506040513d601f19601f820116820180604052508101906102fa919061129f565b6040516370a0823160e01b81523060048201529091506000906001600160a01b038816906370a0823190602401602060405180830381865afa158015610344573d6000803e3d6000fd5b505050506040513d601f19601f82011682018060405250810190610368919061129f565b90506103768933308b610a9e565b600354604080516020601f87018190048102820181019092528581526103c0926001600160a01b0316918790879081908401838280828437600092019190915250610b0b92505050565b506040516370a0823160e01b815230600482015260009082906001600160a01b038a16906370a0823190602401602060405180830381865afa15801561040a573d6000803e3d6000fd5b505050506040513d601f19601f8201168201806040525081019061042e919061129f565b61043891906112b8565b90508681101561045b576040516342301c2360e01b815260040160405180910390fd5b6040516370a0823160e01b815230600482015260009084906001600160a01b038d16906370a0823190602401602060405180830381865afa1580156104a4573d6000803e3d6000fd5b505050506040513d601f19601f820116820180604052508101906104c8919061129f565b6104d291906112b8565b905080156104e5576104e58b3383610b22565b6104f0898389610b53565b6040516370a0823160e01b815230600482015283906001600160a01b038b16906370a0823190602401602060405180830381865afa158015610536573d6000803e3d6000fd5b505050506040513d601f19601f8201168201806040525081019061055a919061129f565b11156105e2576040516370a0823160e01b81523060048201526105e2908a90339086906001600160a01b038416906370a08231906024015b602060405180830381865afa1580156105af573d6000803e3d6000fd5b505050506040513d601f19601f820116820180604052508101906105d3919061129f565b6105dd91906112b8565b610b22565b604080516001600160a01b03808e1682528b1660208201529081018b9052606081018990526080810183905260a081018890527fc1eea98a13fec71774f9ff3181e94360e4ff6752d006c9402e4d20d63ede02699060c00160405180910390a15050505050505050505050565b610657610bd6565b61065f610c03565b565b610669610bd6565b6040516370a0823160e01b81523060048201526000906001600160a01b038416906370a0823190602401602060405180830381865afa1580156106b0573d6000803e3d6000fd5b505050506040513d601f19601f820116820180604052508101906106d4919061129f565b9050806000036106f657604051620f6b2160e41b815260040160405180910390fd5b610701838383610b22565b505050565b61070e610bd6565b600154600160a81b900460ff16156107385760405162dc149f60e41b815260040160405180910390fd5b6001805460ff60a81b1916600160a81b179055600280546001600160a01b039384166001600160a01b03199182161790915560038054929093169116179055565b60008060008061078c600160f81b610c58565b6002546040516308d172cd60e31b81529294509092506001600160a01b03169063468b9668906107c29085908590600401611329565b6040805180830381865afa1580156107de573d6000803e3d6000fd5b505050506040513d601f19601f820116820180604052508101906108029190611367565b909590945092505050565b610815610bd6565b61065f6000610cc1565b60015433906001600160a01b0316811461085c5760405163118cdaa760e01b81526001600160a01b03821660048201526024015b60405180910390fd5b61086581610cc1565b50565b610870610bd6565b61065f610cda565b610880610a73565b6040516370a0823160e01b81523060048201526000906001600160a01b038516906370a0823190602401602060405180830381865afa1580156108c7573d6000803e3d6000fd5b505050506040513d601f19601f820116820180604052508101906108eb919061129f565b90506108f984333086610a9e565b610904848484610b53565b6040516370a0823160e01b815230600482015281906001600160a01b038616906370a0823190602401602060405180830381865afa15801561094a573d6000803e3d6000fd5b505050506040513d601f19601f8201168201806040525081019061096e919061129f565b11156109aa576040516370a0823160e01b81523060048201526109aa908590339084906001600160a01b038416906370a0823190602401610592565b60408051848152602081018490527fbd9d18d054b827ec99624bb9865ac958951510ada7d3600b496e5533ee069d4c910160405180910390a150505050565b6109f1610a73565b6109fe8282600019610d1d565b5050565b610a0a610bd6565b600180546001600160a01b0383166001600160a01b03199091168117909155610a3b6000546001600160a01b031690565b6001600160a01b03167f38d16b8cac22d99fc7c124b9cd0de2d3fa1faef420bfe791d8c362d765e2270060405160405180910390a350565b600154600160a01b900460ff161561065f5760405163d93c066560e01b815260040160405180910390fd5b6040516001600160a01b038481166024830152838116604483015260648201839052610b059186918216906323b872dd906084015b604051602081830303815290604052915060e01b6020820180516001600160e01b038381831617835250505050610da9565b50505050565b6060610b1983836000610e0c565b90505b92915050565b6040516001600160a01b0383811660248301526044820183905261070191859182169063a9059cbb90606401610ad3565b600080610b5f83610c58565b600254604051633b5484cd60e11b81529294509092506001600160a01b0316906376a9099a903490610b9d90899088908a908990899060040161138b565b6000604051808303818588803b158015610bb657600080fd5b505af1158015610bca573d6000803e3d6000fd5b50505050505050505050565b6000546001600160a01b0316331461065f5760405163118cdaa760e01b8152336004820152602401610853565b610c0b610eab565b6001805460ff60a01b191690557f5db9ee0a495bf2e6ff9c91a7834c1ba4fdd244a5e8aa4e537bd38aeae4b073aa335b6040516001600160a01b03909116815260200160405180910390a1565b604080518082019091526000808252602082015260606040518060400160405280336001600160a01b0316815260200160006001600160a01b03168152509150610cba61271060405180604001604052806126b0815260200186815250610ed5565b9050915091565b600180546001600160a01b031916905561086581610fcd565b610ce2610a73565b6001805460ff60a01b1916600160a01b1790557f62e78cea01bee320cd4e420270b5ea74000d11b0c9f74754ebdbfc544b05a258610c3b3390565b604080516001600160a01b038416602482015260448082018490528251808303909101815260649091019091526020810180516001600160e01b031663095ea7b360e01b179052610d6e848261101d565b610b05576040516001600160a01b03848116602483015260006044830152610da391869182169063095ea7b390606401610ad3565b610b0584825b6000610dbe6001600160a01b03841683610b0b565b90508051600014158015610de3575080806020019051810190610de191906113da565b155b1561070157604051635274afe760e01b81526001600160a01b0384166004820152602401610853565b606081471015610e315760405163cd78605960e01b8152306004820152602401610853565b600080856001600160a01b03168486604051610e4d91906113fc565b60006040518083038185875af1925050503d8060008114610e8a576040519150601f19603f3d011682016040523d82523d6000602084013e610e8f565b606091505b5091509150610e9f8683836110c5565b925050505b9392505050565b600154600160a01b900460ff1661065f57604051638dfc202b60e01b815260040160405180910390fd5b8051606090610f345760405162461bcd60e51b815260206004820152602560248201527f41697264726f7020616d6f756e74206d75737420626520677265617465722074604482015264068616e20360dc1b6064820152608401610853565b6020820151610f855760405162461bcd60e51b815260206004820152601b60248201527f41697264726f702061646472657373206d7573742062652073657400000000006044820152606401610853565b8151602080840151604051600160f11b928101929092526022820186905260428201929092526062810191909152608201604051602081830303815290604052905092915050565b600080546001600160a01b038381166001600160a01b0319831681178455604051919092169283917f8be0079c531659141344cd1fd0a4f28419497f9722a3daafe3b4186f6b6457e09190a35050565b6000806000846001600160a01b03168460405161103a91906113fc565b6000604051808303816000865af19150503d8060008114611077576040519150601f19603f3d011682016040523d82523d6000602084013e61107c565b606091505b50915091508180156110a65750805115806110a65750808060200190518101906110a691906113da565b80156110bc57506000856001600160a01b03163b115b95945050505050565b6060826110da576110d582611121565b610ea4565b81511580156110f157506001600160a01b0384163b155b1561111a57604051639996b31560e01b81526001600160a01b0385166004820152602401610853565b5080610ea4565b8051156111315780518082602001fd5b604051630a12f52160e11b815260040160405180910390fd5b6001600160a01b038116811461086557600080fd5b600080600080600080600060c0888a03121561117a57600080fd5b87356111858161114a565b965060208801359550604088013561119c8161114a565b9450606088013593506080880135925060a088013567ffffffffffffffff808211156111c757600080fd5b818a0191508a601f8301126111db57600080fd5b8135818111156111ea57600080fd5b8b60208285010111156111fc57600080fd5b60208301945080935050505092959891949750929550565b6000806040838503121561122757600080fd5b82356112328161114a565b915060208301356112428161114a565b809150509250929050565b60008060006060848603121561126257600080fd5b833561126d8161114a565b95602085013595506040909401359392505050565b60006020828403121561129457600080fd5b8135610ea48161114a565b6000602082840312156112b157600080fd5b5051919050565b81810381811115610b1c57634e487b7160e01b600052601160045260246000fd5b60005b838110156112f45781810151838201526020016112dc565b50506000910152565b600081518084526113158160208601602086016112d9565b601f01601f19169290920160200192915050565b611349818480516001600160a01b03908116835260209182015116910152565b60606040820152600061135f60608301846112fd565b949350505050565b6000806040838503121561137a57600080fd5b505080516020909101519092909150565b6001600160a01b03868116825260208083018790526040830186905284518216606084015284015116608082015260c060a082015260006113cf60c08301846112fd565b979650505050505050565b6000602082840312156113ec57600080fd5b81518015158114610ea457600080fd5b6000825161140e8184602087016112d9565b919091019291505056fea2646970667358221220115dee6282b7aa28e5a0144c4c9802468eaed683dab7bc8d3cc1ec6ac68c980c64736f6c63430008190033000000000000000000000000e0d2d6956c1d9fa49c29a69f2e49f5f176aa27fd",
        "nonce": "0x31",
        "chainId": "0xa4b1"
      },
      "additionalContracts": [],
      "isFixedGasLimit": false
    },
    {
      "hash": "0xb7a976abc365d070722dd2c46da3884ece535fe68c85bb211af9c83b0b51b7c1",
      "transactionType": "CALL",
      "contractName": "SwapBridge",
      "contractAddress": "0x18267aad62e1e81dd26bd97661af4a76ea18ff3f",
      "function": "initialize(address,address)",
      "arguments": [
        "0x1BAcC2205312534375c8d1801C27D28370656cFf",
        "0xDEF171Fe48CF0115B1d80b88dc8eAB59176FEe57"
      ],
      "transaction": {
        "from": "0xe0d2d6956c1d9fa49c29a69f2e49f5f176aa27fd",
        "to": "0x18267aad62e1e81dd26bd97661af4a76ea18ff3f",
        "gas": "0x11a8e",
        "value": "0x0",
        "input": "0x485cc9550000000000000000000000001bacc2205312534375c8d1801c27d28370656cff000000000000000000000000def171fe48cf0115b1d80b88dc8eab59176fee57",
        "nonce": "0x32",
        "chainId": "0xa4b1"
      },
      "additionalContracts": [],
      "isFixedGasLimit": false
    },
    {
      "hash": "0x72686973442b85900f9777c3c5a3bd0b72fa706bc1ed699f20ce0d402a213b66",
      "transactionType": "CALL",
      "contractName": "SwapBridge",
      "contractAddress": "0x18267aad62e1e81dd26bd97661af4a76ea18ff3f",
      "function": "approveMax(address,address)",
      "arguments": [
        "0xFF970A61A04b1cA14834A43f5dE4533eBDDB5CC8",
        "0x1BAcC2205312534375c8d1801C27D28370656cFf"
      ],
      "transaction": {
        "from": "0xe0d2d6956c1d9fa49c29a69f2e49f5f176aa27fd",
        "to": "0x18267aad62e1e81dd26bd97661af4a76ea18ff3f",
        "gas": "0x11a8e",
        "value": "0x0",
        "input": "0xaec42a17000000000000000000000000ff970a61a04b1ca14834a43f5de4533ebddb5cc80000000000000000000000001bacc2205312534375c8d1801c27d28370656cff",
        "nonce": "0x33",
        "chainId": "0xa4b1"
      },
      "additionalContracts": [],
      "isFixedGasLimit": false
    },
    {
      "hash": "0x079438f6e7ed2db39bb874c85b9887eccad94ac301e50aa503afff398c3689b3",
      "transactionType": "CALL",
      "contractName": "SwapBridge",
      "contractAddress": "0x18267aad62e1e81dd26bd97661af4a76ea18ff3f",
      "function": "approveMax(address,address)",
      "arguments": [
        "0xaf88d065e77c8cC2239327C5EDb3A432268e5831",
        "0x216B4B4Ba9F3e719726886d34a177484278Bfcae"
      ],
      "transaction": {
        "from": "0xe0d2d6956c1d9fa49c29a69f2e49f5f176aa27fd",
        "to": "0x18267aad62e1e81dd26bd97661af4a76ea18ff3f",
        "gas": "0x11a8e",
        "value": "0x0",
        "input": "0xaec42a17000000000000000000000000af88d065e77c8cc2239327c5edb3a432268e5831000000000000000000000000216b4b4ba9f3e719726886d34a177484278bfcae",
        "nonce": "0x34",
        "chainId": "0xa4b1"
      },
      "additionalContracts": [],
      "isFixedGasLimit": false
    },
    {
      "hash": "0xe9fb014d7287a552b85125f80e4490f1d4021f6b82978a1de79e289c237ff8db",
      "transactionType": "CALL",
      "contractName": "SwapBridge",
      "contractAddress": "0x18267aad62e1e81dd26bd97661af4a76ea18ff3f",
      "function": "approveMax(address,address)",
      "arguments": [
        "0xFd086bC7CD5C481DCC9C85ebE478A1C0b69FCbb9",
        "0x216B4B4Ba9F3e719726886d34a177484278Bfcae"
      ],
      "transaction": {
        "from": "0xe0d2d6956c1d9fa49c29a69f2e49f5f176aa27fd",
        "to": "0x18267aad62e1e81dd26bd97661af4a76ea18ff3f",
        "gas": "0x11a8e",
        "value": "0x0",
        "input": "0xaec42a17000000000000000000000000fd086bc7cd5c481dcc9c85ebe478a1c0b69fcbb9000000000000000000000000216b4b4ba9f3e719726886d34a177484278bfcae",
        "nonce": "0x35",
        "chainId": "0xa4b1"
      },
      "additionalContracts": [],
      "isFixedGasLimit": false
    },
    {
      "hash": "0xe89978c0f9678378960aeaed9362c843ddc197b430c4d0335451cac316760a1d",
      "transactionType": "CALL",
      "contractName": "SwapBridge",
      "contractAddress": "0x18267aad62e1e81dd26bd97661af4a76ea18ff3f",
      "function": "approveMax(address,address)",
      "arguments": [
        "0xDA10009cBd5D07dd0CeCc66161FC93D7c9000da1",
        "0x216B4B4Ba9F3e719726886d34a177484278Bfcae"
      ],
      "transaction": {
        "from": "0xe0d2d6956c1d9fa49c29a69f2e49f5f176aa27fd",
        "to": "0x18267aad62e1e81dd26bd97661af4a76ea18ff3f",
        "gas": "0x11a6f",
        "value": "0x0",
        "input": "0xaec42a17000000000000000000000000da10009cbd5d07dd0cecc66161fc93d7c9000da1000000000000000000000000216b4b4ba9f3e719726886d34a177484278bfcae",
        "nonce": "0x36",
        "chainId": "0xa4b1"
      },
      "additionalContracts": [],
      "isFixedGasLimit": false
    },
    {
      "hash": null,
      "transactionType": "CALL",
      "contractName": "SwapBridge",
      "contractAddress": "0x18267aad62e1e81dd26bd97661af4a76ea18ff3f",
      "function": "approveMax(address,address)",
      "arguments": [
        "0xFEa7a6a0B346362BF88A9e4A88416B77a57D6c2A",
        "0x216B4B4Ba9F3e719726886d34a177484278Bfcae"
      ],
      "transaction": {
        "from": "0xe0d2d6956c1d9fa49c29a69f2e49f5f176aa27fd",
        "to": "0x18267aad62e1e81dd26bd97661af4a76ea18ff3f",
        "gas": "0x11a8e",
        "value": "0x0",
        "input": "0xaec42a17000000000000000000000000fea7a6a0b346362bf88a9e4a88416b77a57d6c2a000000000000000000000000216b4b4ba9f3e719726886d34a177484278bfcae",
        "nonce": "0x37",
        "chainId": "0xa4b1"
      },
      "additionalContracts": [],
      "isFixedGasLimit": false
    }
  ],
  "receipts": [
    {
      "status": "0x1",
      "cumulativeGasUsed": "0x197cd6",
      "logs": [
        {
          "address": "0x18267aad62e1e81dd26bd97661af4a76ea18ff3f",
          "topics": [
            "0x8be0079c531659141344cd1fd0a4f28419497f9722a3daafe3b4186f6b6457e0",
            "0x0000000000000000000000000000000000000000000000000000000000000000",
            "0x000000000000000000000000e0d2d6956c1d9fa49c29a69f2e49f5f176aa27fd"
          ],
          "data": "0x",
          "blockHash": "0x5b90c6c45a07a8a52543b36a81d3c3d5953f2b44aa53ab65086e0b99f292933b",
          "blockNumber": "0xc914a02",
          "transactionHash": "0xc01ed8ba14bf58ab82171a0c9d4af11448da3b2d7b7d45ac8a244984975334e4",
          "transactionIndex": "0x1",
          "logIndex": "0x0",
          "removed": false
        }
      ],
      "logsBloom": "0x00000000000000000000000000000000000000000000000000800010000000000000000000000000000000000000000000000000000000000000000000000000002000000000000000000000000000000001000000000000000000000000000000000000020000000000000000000800000000000001000000000000000000400000000000000000000000000000000000000000000000000000000100000000000000000000002000000000000000000000000000000040000000000000000000000000000000000000000000000000000000000000000000000000000020000000000000000000000000000000000000000000000000000000000000000000",
      "type": "0x2",
      "transactionHash": "0xc01ed8ba14bf58ab82171a0c9d4af11448da3b2d7b7d45ac8a244984975334e4",
      "transactionIndex": "0x1",
      "blockHash": "0x5b90c6c45a07a8a52543b36a81d3c3d5953f2b44aa53ab65086e0b99f292933b",
      "blockNumber": "0xc914a02",
      "gasUsed": "0x197cd6",
      "effectiveGasPrice": "0x989680",
      "from": "0xe0d2d6956c1d9fa49c29a69f2e49f5f176aa27fd",
      "to": "0x4e59b44847b379578588920ca78fbf26c0b4956c",
      "contractAddress": null,
      "gasUsedForL1": "0x7090a",
      "l1BlockNumber": "0x12f0f7b"
    },
    {
      "status": "0x1",
      "cumulativeGasUsed": "0x1c967",
      "logs": [],
      "logsBloom": "0x00000000000000000000000000000000000000000000000000000000000000000000000000000000000000000000000000000000000000000000000000000000000000000000000000000000000000000000000000000000000000000000000000000000000000000000000000000000000000000000000000000000000000000000000000000000000000000000000000000000000000000000000000000000000000000000000000000000000000000000000000000000000000000000000000000000000000000000000000000000000000000000000000000000000000000000000000000000000000000000000000000000000000000000000000000000",
      "type": "0x2",
      "transactionHash": "0xb7a976abc365d070722dd2c46da3884ece535fe68c85bb211af9c83b0b51b7c1",
      "transactionIndex": "0x1",
      "blockHash": "0x2f49c0c2f9e944f3811dfefb20a4e731531b9b64bf04231f6ad6b9c9d9fbbe2e",
      "blockNumber": "0xc914a09",
      "gasUsed": "0x1c967",
      "effectiveGasPrice": "0x989680",
      "from": "0xe0d2d6956c1d9fa49c29a69f2e49f5f176aa27fd",
      "to": "0x18267aad62e1e81dd26bd97661af4a76ea18ff3f",
      "contractAddress": null,
      "gasUsedForL1": "0x6618",
      "l1BlockNumber": "0x12f0f7b"
    },
    {
      "status": "0x1",
      "cumulativeGasUsed": "0x188daa",
      "logs": [
        {
          "address": "0xff970a61a04b1ca14834a43f5de4533ebddb5cc8",
          "topics": [
            "0x8c5be1e5ebec7d5bd14f71427d1e84f3dd0314c0f7b2291e5b200ac8c7c3b925",
            "0x00000000000000000000000018267aad62e1e81dd26bd97661af4a76ea18ff3f",
            "0x0000000000000000000000001bacc2205312534375c8d1801c27d28370656cff"
          ],
          "data": "0xffffffffffffffffffffffffffffffffffffffffffffffffffffffffffffffff",
          "blockHash": "0x1195d675ded054b1221dc5983aafadecea728347a8573758bda71a1fc44ce001",
          "blockNumber": "0xc914a0f",
          "transactionHash": "0x72686973442b85900f9777c3c5a3bd0b72fa706bc1ed699f20ce0d402a213b66",
          "transactionIndex": "0x6",
          "logIndex": "0xb",
          "removed": false
        }
      ],
      "logsBloom": "0x00000000000000000000000000000000000000000000000000000000000000100000000000000000000000000000000000000000000000000000000000200000000000000000000000000000000000000000000000000000000000000000000000000200000040000000000800000000000000004000000000000004000000000000000000000000000000000000000000000000020000000000000000000000020000000000000000000000000000000000000000000000000000000000000000000000000000000000000000000000000000000000200000000000000000000010000000000000000800000000000000000000000000000000000000000000",
      "type": "0x2",
      "transactionHash": "0x72686973442b85900f9777c3c5a3bd0b72fa706bc1ed699f20ce0d402a213b66",
      "transactionIndex": "0x6",
      "blockHash": "0x1195d675ded054b1221dc5983aafadecea728347a8573758bda71a1fc44ce001",
      "blockNumber": "0xc914a0f",
      "gasUsed": "0x16a58",
      "effectiveGasPrice": "0x989680",
      "from": "0xe0d2d6956c1d9fa49c29a69f2e49f5f176aa27fd",
      "to": "0x18267aad62e1e81dd26bd97661af4a76ea18ff3f",
      "contractAddress": null,
      "gasUsedForL1": "0x6618",
      "l1BlockNumber": "0x12f0f7c"
    },
    {
      "status": "0x1",
      "cumulativeGasUsed": "0x510bc",
      "logs": [
        {
          "address": "0xaf88d065e77c8cc2239327c5edb3a432268e5831",
          "topics": [
            "0x8c5be1e5ebec7d5bd14f71427d1e84f3dd0314c0f7b2291e5b200ac8c7c3b925",
            "0x00000000000000000000000018267aad62e1e81dd26bd97661af4a76ea18ff3f",
            "0x000000000000000000000000216b4b4ba9f3e719726886d34a177484278bfcae"
          ],
          "data": "0xffffffffffffffffffffffffffffffffffffffffffffffffffffffffffffffff",
          "blockHash": "0xbb21819fc98c3c1088ffa80ea795db64f278c903241c962e1a50442daf3994bc",
          "blockNumber": "0xc914a15",
          "transactionHash": "0x079438f6e7ed2db39bb874c85b9887eccad94ac301e50aa503afff398c3689b3",
          "transactionIndex": "0x3",
          "logIndex": "0x3",
          "removed": false
        }
      ],
      "logsBloom": "0x00000000000000020000000000000000000000000000000000000000000000000000000000000000000000000000000000000001000000000000000000200000000000000000000000200000000000000000000000000000000000000000000000000200000040000000000800000000000000000000000000000000000000000000000000000000000000000000000000000000000000000000000000000000024000000000000000000000000000000000000000000000000000000000000000002000000000000000000000000000000000000000000000000000000000000010000000000000000000000000200000000000000000000000000000000000",
      "type": "0x2",
      "transactionHash": "0x079438f6e7ed2db39bb874c85b9887eccad94ac301e50aa503afff398c3689b3",
      "transactionIndex": "0x3",
      "blockHash": "0xbb21819fc98c3c1088ffa80ea795db64f278c903241c962e1a50442daf3994bc",
      "blockNumber": "0xc914a15",
      "gasUsed": "0x15862",
      "effectiveGasPrice": "0x989680",
      "from": "0xe0d2d6956c1d9fa49c29a69f2e49f5f176aa27fd",
      "to": "0x18267aad62e1e81dd26bd97661af4a76ea18ff3f",
      "contractAddress": null,
      "gasUsedForL1": "0x6618",
      "l1BlockNumber": "0x12f0f7c"
    },
    {
      "status": "0x1",
      "cumulativeGasUsed": "0x15101",
      "logs": [
        {
          "address": "0xfd086bc7cd5c481dcc9c85ebe478a1c0b69fcbb9",
          "topics": [
            "0x8c5be1e5ebec7d5bd14f71427d1e84f3dd0314c0f7b2291e5b200ac8c7c3b925",
            "0x00000000000000000000000018267aad62e1e81dd26bd97661af4a76ea18ff3f",
            "0x000000000000000000000000216b4b4ba9f3e719726886d34a177484278bfcae"
          ],
          "data": "0xffffffffffffffffffffffffffffffffffffffffffffffffffffffffffffffff",
          "blockHash": "0xeb892eb74eea881a887628764a974f19acb34a9bf72ef5184e15bb8e6a24c5f4",
          "blockNumber": "0xc914a1a",
          "transactionHash": "0xe9fb014d7287a552b85125f80e4490f1d4021f6b82978a1de79e289c237ff8db",
          "transactionIndex": "0x1",
          "logIndex": "0x0",
          "removed": false
        }
      ],
      "logsBloom": "0x00000000000000020000000000000000000000000000000000000000000000000000000000000000000000000000000000000000000000000000000000200000000010000000000000200000000000000000000000000000000000000000000000000200000040000000000800000000000000000000000000000000000000000000000000000000000000000000000000000000000000000000000000000000024000000000000000000000000000000000000000000000000000000000000000008000000000000000000000000000000000000000000000000000000000000010000000000000000000000000000010000000000000000000000000000000",
      "type": "0x2",
      "transactionHash": "0xe9fb014d7287a552b85125f80e4490f1d4021f6b82978a1de79e289c237ff8db",
      "transactionIndex": "0x1",
      "blockHash": "0xeb892eb74eea881a887628764a974f19acb34a9bf72ef5184e15bb8e6a24c5f4",
      "blockNumber": "0xc914a1a",
      "gasUsed": "0x15101",
      "effectiveGasPrice": "0x989680",
      "from": "0xe0d2d6956c1d9fa49c29a69f2e49f5f176aa27fd",
      "to": "0x18267aad62e1e81dd26bd97661af4a76ea18ff3f",
      "contractAddress": null,
      "gasUsedForL1": "0x6618",
      "l1BlockNumber": "0x12f0f7c"
    },
    {
      "status": "0x1",
      "cumulativeGasUsed": "0x3abf57",
      "logs": [
        {
          "address": "0xda10009cbd5d07dd0cecc66161fc93d7c9000da1",
          "topics": [
            "0x8c5be1e5ebec7d5bd14f71427d1e84f3dd0314c0f7b2291e5b200ac8c7c3b925",
            "0x00000000000000000000000018267aad62e1e81dd26bd97661af4a76ea18ff3f",
            "0x000000000000000000000000216b4b4ba9f3e719726886d34a177484278bfcae"
          ],
          "data": "0xffffffffffffffffffffffffffffffffffffffffffffffffffffffffffffffff",
          "blockHash": "0x4ed79d37c328d578deeee3baf4a72bb2e4ec1a188a4efd13f6d2353deb64f989",
          "blockNumber": "0xc914a1f",
          "transactionHash": "0xe89978c0f9678378960aeaed9362c843ddc197b430c4d0335451cac316760a1d",
          "transactionIndex": "0x3",
          "logIndex": "0x15",
          "removed": false
        }
      ],
      "logsBloom": "0x00000000000000020000000000000000000000000000000000000000000000000000000000000000000000000000000000000000000000000000000000200000000000000000000001200000000000000000000000000000000000000000000000000200000040000000000800000000000000000000000000000000000000000000000000000000000000000000000000000000000000000000000000000000024000000000000000000000000000000000000000000000000000000000000000000000000000000000000000000000200000000000000000000000000000000010000020000000000000000000000000000000000000000000000000000000",
      "type": "0x2",
      "transactionHash": "0xe89978c0f9678378960aeaed9362c843ddc197b430c4d0335451cac316760a1d",
      "transactionIndex": "0x3",
      "blockHash": "0x4ed79d37c328d578deeee3baf4a72bb2e4ec1a188a4efd13f6d2353deb64f989",
      "blockNumber": "0xc914a1f",
      "gasUsed": "0x133a2",
      "effectiveGasPrice": "0x989680",
      "from": "0xe0d2d6956c1d9fa49c29a69f2e49f5f176aa27fd",
      "to": "0x18267aad62e1e81dd26bd97661af4a76ea18ff3f",
      "contractAddress": null,
      "gasUsedForL1": "0x6618",
      "l1BlockNumber": "0x12f0f7c"
    }
  ],
  "libraries": [],
  "pending": [],
  "returns": {},
  "timestamp": 1715606667,
  "chain": 42161,
  "commit": "b796692"
}