{
  "transactions": [
    {
      "hash": "0x5bd682cb3703bf182a5bc168cf26840bb88df9a0875110600933defaaddb6dd7",
      "transactionType": "CREATE2",
      "contractName": "SwapBridge",
      "contractAddress": "0x43AD791b195c86c03f50d419121d0927A9D86dCF",
      "function": null,
      "arguments": null,
      "transaction": {
        "type": "0x02",
        "from": "0xe0d2d6956c1d9fa49c29a69f2e49f5f176aa27fd",
        "to": "0x4e59b44847b379578588920ca78fbf26c0b4956c",
        "gas": "0x1be877",
        "value": "0x0",
        "data": "0xfa1d23fff80000000000000000000000000000000000000000000000000000006080604052348015600f57600080fd5b503380603557604051631e4fbdf760e01b81526000600482015260240160405180910390fd5b603c816041565b506091565b600080546001600160a01b038381166001600160a01b0319831681178455604051919092169283917f8be0079c531659141344cd1fd0a4f28419497f9722a3daafe3b4186f6b6457e09190a35050565b610f90806100a06000396000f3fe6080604052600436106100865760003560e01c80639064aa17116100595780639064aa1714610119578063aec42a171461012c578063c4d66de81461014c578063f2fde38b1461016c578063f316d2271461018c57600080fd5b80634707d0001461008b5780636bc5f161146100ad578063715018a6146100dc5780638da5cb5b146100f1575b600080fd5b34801561009757600080fd5b506100ab6100a6366004610cb0565b61019f565b005b3480156100b957600080fd5b506100c261026d565b604080519283526020830191909152015b60405180910390f35b3480156100e857600080fd5b506100ab610301565b3480156100fd57600080fd5b506000546040516001600160a01b0390911681526020016100d3565b6100ab610127366004610ce9565b610315565b34801561013857600080fd5b506100ab610147366004610cb0565b6103d5565b34801561015857600080fd5b506100ab610167366004610d1e565b6103e6565b34801561017857600080fd5b506100ab610187366004610d1e565b610465565b6100ab61019a366004610d3b565b6104a3565b6101a76106d6565b6040516370a0823160e01b81523060048201526000906001600160a01b038416906370a0823190602401602060405180830381865afa1580156101ee573d6000803e3d6000fd5b505050506040513d601f19601f820116820180604052508101906102129190610e02565b90506000811161025d5760405162461bcd60e51b81526020600482015260116024820152704e6f7468696e6720746f2072657363756560781b60448201526064015b60405180910390fd5b610268838383610703565b505050565b600080600080610280600160f81b610762565b6001546040516308d172cd60e31b81529294509092506001600160a01b03169063468b9668906102b69085908590600401610e6b565b6040805180830381865afa1580156102d2573d6000803e3d6000fd5b505050506040513d601f19601f820116820180604052508101906102f69190610ea9565b909590945092505050565b6103096106d6565b61031360006107cb565b565b6103218333308561081b565b61032c83838361085a565b6040516370a0823160e01b81523060048201526001600160a01b038416906370a0823190602401602060405180830381865afa158015610370573d6000803e3d6000fd5b505050506040513d601f19601f820116820180604052508101906103949190610e02565b156102685760405162461bcd60e51b8152602060048201526011602482015270746f546f6b656e2072656d61696e696e6760781b6044820152606401610254565b6103e282826000196108d1565b5050565b600054600160a01b900460ff161561042f5760405162461bcd60e51b815260206004820152600c60248201526b105b1c9958591e481a5b9a5d60a21b6044820152606401610254565b6000805460ff60a01b1916600160a01b179055600180546001600160a01b039092166001600160a01b0319909216919091179055565b61046d6106d6565b6001600160a01b03811661049757604051631e4fbdf760e01b815260006004820152602401610254565b6104a0816107cb565b50565b6104af8833308a61081b565b6104ef8383838080601f01602080910402602001604051908101604052809392919081815260200183838082843760009201919091525061096192505050565b506040516370a0823160e01b81523060048201526000906001600160a01b038816906370a0823190602401602060405180830381865afa158015610537573d6000803e3d6000fd5b505050506040513d601f19601f8201168201806040525081019061055b9190610e02565b9050858110156105985760405162461bcd60e51b81526020600482015260086024820152671d1bd05b5bdd5b9d60c21b6044820152606401610254565b6040516370a0823160e01b81523060048201526000906001600160a01b038b16906370a0823190602401602060405180830381865afa1580156105df573d6000803e3d6000fd5b505050506040513d601f19601f820116820180604052508101906106039190610e02565b90508015610616576106168a3383610703565b61062188838861085a565b6040516370a0823160e01b81523060048201526001600160a01b038916906370a0823190602401602060405180830381865afa158015610665573d6000803e3d6000fd5b505050506040513d601f19601f820116820180604052508101906106899190610e02565b156106ca5760405162461bcd60e51b8152602060048201526011602482015270746f546f6b656e2072656d61696e696e6760781b6044820152606401610254565b50505050505050505050565b6000546001600160a01b031633146103135760405163118cdaa760e01b8152336004820152602401610254565b6040516001600160a01b0383811660248301526044820183905261026891859182169063a9059cbb906064015b604051602081830303815290604052915060e01b6020820180516001600160e01b038381831617835250505050610976565b604080518082019091526000808252602082015260606040518060400160405280336001600160a01b0316815260200160006001600160a01b031681525091506107c461271060405180604001604052806126b08152602001868152506109d9565b9050915091565b600080546001600160a01b038381166001600160a01b0319831681178455604051919092169283917f8be0079c531659141344cd1fd0a4f28419497f9722a3daafe3b4186f6b6457e09190a35050565b6040516001600160a01b0384811660248301528381166044830152606482018390526108549186918216906323b872dd90608401610730565b50505050565b60008061086683610762565b600154604051633b5484cd60e11b81529294509092506001600160a01b0316906376a9099a9034906108a490899088908a9089908990600401610ecd565b6000604051808303818588803b1580156108bd57600080fd5b505af11580156106ca573d6000803e3d6000fd5b604080516001600160a01b038416602482015260448082018490528251808303909101815260649091019091526020810180516001600160e01b031663095ea7b360e01b1790526109228482610ad1565b610854576040516001600160a01b0384811660248301526000604483015261095791869182169063095ea7b390606401610730565b6108548482610976565b606061096f83836000610b79565b9392505050565b600061098b6001600160a01b03841683610961565b905080516000141580156109b05750808060200190518101906109ae9190610f1c565b155b1561026857604051635274afe760e01b81526001600160a01b0384166004820152602401610254565b8051606090610a385760405162461bcd60e51b815260206004820152602560248201527f41697264726f7020616d6f756e74206d75737420626520677265617465722074604482015264068616e20360dc1b6064820152608401610254565b6020820151610a895760405162461bcd60e51b815260206004820152601b60248201527f41697264726f702061646472657373206d7573742062652073657400000000006044820152606401610254565b8151602080840151604051600160f11b928101929092526022820186905260428201929092526062810191909152608201604051602081830303815290604052905092915050565b6000806000846001600160a01b031684604051610aee9190610f3e565b6000604051808303816000865af19150503d8060008114610b2b576040519150601f19603f3d011682016040523d82523d6000602084013e610b30565b606091505b5091509150818015610b5a575080511580610b5a575080806020019051810190610b5a9190610f1c565b8015610b7057506000856001600160a01b03163b115b95945050505050565b606081471015610b9e5760405163cd78605960e01b8152306004820152602401610254565b600080856001600160a01b03168486604051610bba9190610f3e565b60006040518083038185875af1925050503d8060008114610bf7576040519150601f19603f3d011682016040523d82523d6000602084013e610bfc565b606091505b5091509150610c0c868383610c16565b9695505050505050565b606082610c2b57610c2682610c72565b61096f565b8151158015610c4257506001600160a01b0384163b155b15610c6b57604051639996b31560e01b81526001600160a01b0385166004820152602401610254565b508061096f565b805115610c825780518082602001fd5b604051630a12f52160e11b815260040160405180910390fd5b6001600160a01b03811681146104a057600080fd5b60008060408385031215610cc357600080fd5b8235610cce81610c9b565b91506020830135610cde81610c9b565b809150509250929050565b600080600060608486031215610cfe57600080fd5b8335610d0981610c9b565b95602085013595506040909401359392505050565b600060208284031215610d3057600080fd5b813561096f81610c9b565b60008060008060008060008060e0898b031215610d5757600080fd5b8835610d6281610c9b565b9750602089013596506040890135610d7981610c9b565b9550606089013594506080890135935060a0890135610d9781610c9b565b925060c089013567ffffffffffffffff80821115610db457600080fd5b818b0191508b601f830112610dc857600080fd5b813581811115610dd757600080fd5b8c6020828501011115610de957600080fd5b6020830194508093505050509295985092959890939650565b600060208284031215610e1457600080fd5b5051919050565b60005b83811015610e36578181015183820152602001610e1e565b50506000910152565b60008151808452610e57816020860160208601610e1b565b601f01601f19169290920160200192915050565b610e8b818480516001600160a01b03908116835260209182015116910152565b606060408201526000610ea16060830184610e3f565b949350505050565b60008060408385031215610ebc57600080fd5b505080516020909101519092909150565b6001600160a01b03868116825260208083018790526040830186905284518216606084015284015116608082015260c060a08201526000610f1160c0830184610e3f565b979650505050505050565b600060208284031215610f2e57600080fd5b8151801515811461096f57600080fd5b60008251610f50818460208701610e1b565b919091019291505056fea26469706673582212200215fa77469b396198586cf2cb8a20d638aa18cbc92cd2cfdf1df167016b169b64736f6c63430008190033",
        "nonce": "0x13",
        "accessList": []
      },
      "additionalContracts": [],
      "isFixedGasLimit": false
    },
    {
      "hash": "0x5dc46624d8971d20cbd491e2d87e6204db0f8c92af735795b2e87e86ed3e94ee",
      "transactionType": "CALL",
      "contractName": "SwapBridge",
      "contractAddress": "0x43AD791b195c86c03f50d419121d0927A9D86dCF",
      "function": "initialize(address)",
      "arguments": [
        "0x1BAcC2205312534375c8d1801C27D28370656cFf"
      ],
      "transaction": {
        "type": "0x02",
        "from": "0xe0d2d6956c1d9fa49c29a69f2e49f5f176aa27fd",
        "to": "0x43ad791b195c86c03f50d419121d0927a9d86dcf",
        "gas": "0x110f8",
        "value": "0x0",
        "data": "0xc4d66de80000000000000000000000001bacc2205312534375c8d1801c27d28370656cff",
        "nonce": "0x14",
        "accessList": []
      },
      "additionalContracts": [],
      "isFixedGasLimit": false
    },
    {
      "hash": "0x9b1dcfdc1e771f8b6360b75b55251be5c4c686e2807f7940f8ff3b2fffab6bff",
      "transactionType": "CALL",
      "contractName": "SwapBridge",
      "contractAddress": "0x43AD791b195c86c03f50d419121d0927A9D86dCF",
      "function": "approveMax(address,address)",
      "arguments": [
        "0xFF970A61A04b1cA14834A43f5dE4533eBDDB5CC8",
        "0x1BAcC2205312534375c8d1801C27D28370656cFf"
      ],
      "transaction": {
        "type": "0x02",
        "from": "0xe0d2d6956c1d9fa49c29a69f2e49f5f176aa27fd",
        "to": "0x43ad791b195c86c03f50d419121d0927a9d86dcf",
        "gas": "0x13141",
        "value": "0x0",
        "data": "0xaec42a17000000000000000000000000ff970a61a04b1ca14834a43f5de4533ebddb5cc80000000000000000000000001bacc2205312534375c8d1801c27d28370656cff",
        "nonce": "0x15",
        "accessList": []
      },
      "additionalContracts": [],
      "isFixedGasLimit": false
    },
    {
      "hash": "0x8392071cc4c477aacbba7d70c7f195e6079c380f6f009ebfef6139333c63b9a3",
      "transactionType": "CALL",
      "contractName": "SwapBridge",
      "contractAddress": "0x43AD791b195c86c03f50d419121d0927A9D86dCF",
      "function": "approveMax(address,address)",
      "arguments": [
        "0xaf88d065e77c8cC2239327C5EDb3A432268e5831",
        "0x216B4B4Ba9F3e719726886d34a177484278Bfcae"
      ],
      "transaction": {
        "type": "0x02",
        "from": "0xe0d2d6956c1d9fa49c29a69f2e49f5f176aa27fd",
        "to": "0x43ad791b195c86c03f50d419121d0927a9d86dcf",
        "gas": "0x13141",
        "value": "0x0",
        "data": "0xaec42a17000000000000000000000000af88d065e77c8cc2239327c5edb3a432268e5831000000000000000000000000216b4b4ba9f3e719726886d34a177484278bfcae",
        "nonce": "0x16",
        "accessList": []
      },
      "additionalContracts": [],
      "isFixedGasLimit": false
    },
    {
      "hash": "0xa380f0dc79dd83c529705ed471585e1ea5ad2a048774df17ae839507a4751ff5",
      "transactionType": "CALL",
      "contractName": "SwapBridge",
      "contractAddress": "0x43AD791b195c86c03f50d419121d0927A9D86dCF",
      "function": "approveMax(address,address)",
      "arguments": [
        "0xFd086bC7CD5C481DCC9C85ebE478A1C0b69FCbb9",
        "0x216B4B4Ba9F3e719726886d34a177484278Bfcae"
      ],
      "transaction": {
        "type": "0x02",
        "from": "0xe0d2d6956c1d9fa49c29a69f2e49f5f176aa27fd",
        "to": "0x43ad791b195c86c03f50d419121d0927a9d86dcf",
        "gas": "0x13141",
        "value": "0x0",
        "data": "0xaec42a17000000000000000000000000fd086bc7cd5c481dcc9c85ebe478a1c0b69fcbb9000000000000000000000000216b4b4ba9f3e719726886d34a177484278bfcae",
        "nonce": "0x17",
        "accessList": []
      },
      "additionalContracts": [],
      "isFixedGasLimit": false
    },
    {
      "hash": "0x5f5dc354e99709c82843fe302ccc00725bb9a56e5ef318c723e4fbdf23fa390a",
      "transactionType": "CALL",
      "contractName": "SwapBridge",
      "contractAddress": "0x43AD791b195c86c03f50d419121d0927A9D86dCF",
      "function": "approveMax(address,address)",
      "arguments": [
        "0xDA10009cBd5D07dd0CeCc66161FC93D7c9000da1",
        "0x216B4B4Ba9F3e719726886d34a177484278Bfcae"
      ],
      "transaction": {
        "type": "0x02",
        "from": "0xe0d2d6956c1d9fa49c29a69f2e49f5f176aa27fd",
        "to": "0x43ad791b195c86c03f50d419121d0927a9d86dcf",
        "gas": "0x13122",
        "value": "0x0",
        "data": "0xaec42a17000000000000000000000000da10009cbd5d07dd0cecc66161fc93d7c9000da1000000000000000000000000216b4b4ba9f3e719726886d34a177484278bfcae",
        "nonce": "0x18",
        "accessList": []
      },
      "additionalContracts": [],
      "isFixedGasLimit": false
    },
    {
      "hash": "0xad580317bd105192a5b48ac83aad09388c8cd2d36ece4f920a1998d156954183",
      "transactionType": "CALL",
      "contractName": "SwapBridge",
      "contractAddress": "0x43AD791b195c86c03f50d419121d0927A9D86dCF",
      "function": "approveMax(address,address)",
      "arguments": [
        "0xFEa7a6a0B346362BF88A9e4A88416B77a57D6c2A",
        "0x216B4B4Ba9F3e719726886d34a177484278Bfcae"
      ],
      "transaction": {
        "type": "0x02",
        "from": "0xe0d2d6956c1d9fa49c29a69f2e49f5f176aa27fd",
        "to": "0x43ad791b195c86c03f50d419121d0927a9d86dcf",
        "gas": "0x13141",
        "value": "0x0",
        "data": "0xaec42a17000000000000000000000000fea7a6a0b346362bf88a9e4a88416b77a57d6c2a000000000000000000000000216b4b4ba9f3e719726886d34a177484278bfcae",
        "nonce": "0x19",
        "accessList": []
      },
      "additionalContracts": [],
      "isFixedGasLimit": false
    }
  ],
  "receipts": [
    {
      "transactionHash": "0x5bd682cb3703bf182a5bc168cf26840bb88df9a0875110600933defaaddb6dd7",
      "transactionIndex": "0x5",
      "blockHash": "0xeb568e3973f80f1b3a4a73878316d4b698450409f56f536127abf5eee0c94fcb",
      "blockNumber": "0xc02e12d",
      "from": "0xe0D2d6956c1D9fa49c29A69F2E49f5f176aa27fd",
      "to": "0x4e59b44847b379578588920cA78FbF26c0B4956C",
      "cumulativeGasUsed": "0x29fca4",
      "gasUsed": "0x14850f",
      "contractAddress": "0x43AD791b195c86c03f50d419121d0927A9D86dCF",
      "logs": [
        {
          "address": "0x43AD791b195c86c03f50d419121d0927A9D86dCF",
          "topics": [
            "0x8be0079c531659141344cd1fd0a4f28419497f9722a3daafe3b4186f6b6457e0",
            "0x0000000000000000000000000000000000000000000000000000000000000000",
            "0x0000000000000000000000004e59b44847b379578588920ca78fbf26c0b4956c"
          ],
          "data": "0x",
          "blockHash": "0xeb568e3973f80f1b3a4a73878316d4b698450409f56f536127abf5eee0c94fcb",
          "blockNumber": "0xc02e12d",
          "transactionHash": "0x5bd682cb3703bf182a5bc168cf26840bb88df9a0875110600933defaaddb6dd7",
          "transactionIndex": "0x5",
          "logIndex": "0x20",
          "removed": false
        }
      ],
      "status": "0x1",
      "logsBloom": "0x00000000000000000000000000000000000000000000000000800000000000000000000000000002000000000000000000000000000000000000000000000000000000000000000000000000000000000001000000000000000000000000000000000000020000000000000000000800000000000000000000000000000000400000000000000000000000000000000000000000001000000000000000000000000000000001000000000000000000000000000000000000000000000000000010000000000000000000000000000000000000000000000000000000000020000000000000000000000000100000000080000000000000000000000000000000",
      "type": "0x2",
      "effectiveGasPrice": "0x989680"
    },
    {
      "transactionHash": "0x5dc46624d8971d20cbd491e2d87e6204db0f8c92af735795b2e87e86ed3e94ee",
      "transactionIndex": "0x8",
      "blockHash": "0x807e569e7cf8e9b85d1c56dae0a8476020cc822c2ff2ff6f72693c33b566f89d",
      "blockNumber": "0xc02e131",
      "from": "0xe0D2d6956c1D9fa49c29A69F2E49f5f176aa27fd",
      "to": "0x43AD791b195c86c03f50d419121d0927A9D86dCF",
      "cumulativeGasUsed": "0x9f0e3",
      "gasUsed": "0x120f2",
      "contractAddress": null,
      "logs": [],
      "status": "0x1",
      "logsBloom": "0x00000000000000000000000000000000000000000000000000000000000000000000000000000000000000000000000000000000000000000000000000000000000000000000000000000000000000000000000000000000000000000000000000000000000000000000000000000000000000000000000000000000000000000000000000000000000000000000000000000000000000000000000000000000000000000000000000000000000000000000000000000000000000000000000000000000000000000000000000000000000000000000000000000000000000000000000000000000000000000000000000000000000000000000000000000000",
      "type": "0x2",
      "effectiveGasPrice": "0x989680"
    },
    {
      "transactionHash": "0x9b1dcfdc1e771f8b6360b75b55251be5c4c686e2807f7940f8ff3b2fffab6bff",
      "transactionIndex": "0x1",
      "blockHash": "0x93af1b0109c1bcd9904e8bdb4500b65587b196499032fdb4e3f2445c38eec6a6",
      "blockNumber": "0xc02e135",
      "from": "0xe0D2d6956c1D9fa49c29A69F2E49f5f176aa27fd",
      "to": "0x43AD791b195c86c03f50d419121d0927A9D86dCF",
      "cumulativeGasUsed": "0x171d5",
      "gasUsed": "0x171d5",
      "contractAddress": null,
      "logs": [
        {
          "address": "0xFF970A61A04b1cA14834A43f5dE4533eBDDB5CC8",
          "topics": [
            "0x8c5be1e5ebec7d5bd14f71427d1e84f3dd0314c0f7b2291e5b200ac8c7c3b925",
            "0x00000000000000000000000043ad791b195c86c03f50d419121d0927a9d86dcf",
            "0x0000000000000000000000001bacc2205312534375c8d1801c27d28370656cff"
          ],
          "data": "0xffffffffffffffffffffffffffffffffffffffffffffffffffffffffffffffff",
          "blockHash": "0x93af1b0109c1bcd9904e8bdb4500b65587b196499032fdb4e3f2445c38eec6a6",
          "blockNumber": "0xc02e135",
          "transactionHash": "0x9b1dcfdc1e771f8b6360b75b55251be5c4c686e2807f7940f8ff3b2fffab6bff",
          "transactionIndex": "0x1",
          "logIndex": "0x0",
          "removed": false
        }
      ],
      "status": "0x1",
      "logsBloom": "0x00000000000000000000000000000000000000000000000000000000000000100000000000000000000000000000000000000000000000000000000000200000000000000000000000000000000000000000000000000000000400000000000000000000000000000000000002000000000000004000000000000004000000000000000000000000000000000000000000000000020000000000000000000000020000000000000000000000000000000000000000000000000000000000000000000000000000000000000000000000000000000080200000000000000000000010000000000000000800000000000000000000000000000000000000000000",
      "type": "0x2",
      "effectiveGasPrice": "0x989680"
    },
    {
      "transactionHash": "0x8392071cc4c477aacbba7d70c7f195e6079c380f6f009ebfef6139333c63b9a3",
      "transactionIndex": "0x3",
      "blockHash": "0x8cb2096bb5f349947a593cd66675b7bcc111c6fbe2b388af1d2895f4679d66bd",
      "blockNumber": "0xc02e139",
      "from": "0xe0D2d6956c1D9fa49c29A69F2E49f5f176aa27fd",
      "to": "0x43AD791b195c86c03f50d419121d0927A9D86dCF",
      "cumulativeGasUsed": "0x3f3a7",
      "gasUsed": "0x15fdf",
      "contractAddress": null,
      "logs": [
        {
          "address": "0xaf88d065e77c8cC2239327C5EDb3A432268e5831",
          "topics": [
            "0x8c5be1e5ebec7d5bd14f71427d1e84f3dd0314c0f7b2291e5b200ac8c7c3b925",
            "0x00000000000000000000000043ad791b195c86c03f50d419121d0927a9d86dcf",
            "0x000000000000000000000000216b4b4ba9f3e719726886d34a177484278bfcae"
          ],
          "data": "0xffffffffffffffffffffffffffffffffffffffffffffffffffffffffffffffff",
          "blockHash": "0x8cb2096bb5f349947a593cd66675b7bcc111c6fbe2b388af1d2895f4679d66bd",
          "blockNumber": "0xc02e139",
          "transactionHash": "0x8392071cc4c477aacbba7d70c7f195e6079c380f6f009ebfef6139333c63b9a3",
          "transactionIndex": "0x3",
          "logIndex": "0x2",
          "removed": false
        }
      ],
      "status": "0x1",
      "logsBloom": "0x00000000000000020000000000000000000000000000000000000000000000000000000000000000000000000000000000000001000000000000000000200000000000000000000000200000000000000000000000000000000400000000000000000000000000000000000002000000000000000000000000000000000000000000000000000000000000000000000000000000000000000000000000000000024000000000000000000000000000000000000000000000000000000000000000002000000000000000000000000000000000000080000000000000000000000010000000000000000000000000200000000000000000000000000000000000",
      "type": "0x2",
      "effectiveGasPrice": "0x989680"
    },
    {
      "transactionHash": "0xa380f0dc79dd83c529705ed471585e1ea5ad2a048774df17ae839507a4751ff5",
      "transactionIndex": "0x2",
      "blockHash": "0x29ece838e14b7353695b122f6a5bcfbe696caab646028946e04704c3e02ecd9d",
      "blockNumber": "0xc02e13d",
      "from": "0xe0D2d6956c1D9fa49c29A69F2E49f5f176aa27fd",
      "to": "0x43AD791b195c86c03f50d419121d0927A9D86dCF",
      "cumulativeGasUsed": "0x6b16b",
      "gasUsed": "0x1587e",
      "contractAddress": null,
      "logs": [
        {
          "address": "0xFd086bC7CD5C481DCC9C85ebE478A1C0b69FCbb9",
          "topics": [
            "0x8c5be1e5ebec7d5bd14f71427d1e84f3dd0314c0f7b2291e5b200ac8c7c3b925",
            "0x00000000000000000000000043ad791b195c86c03f50d419121d0927a9d86dcf",
            "0x000000000000000000000000216b4b4ba9f3e719726886d34a177484278bfcae"
          ],
          "data": "0xffffffffffffffffffffffffffffffffffffffffffffffffffffffffffffffff",
          "blockHash": "0x29ece838e14b7353695b122f6a5bcfbe696caab646028946e04704c3e02ecd9d",
          "blockNumber": "0xc02e13d",
          "transactionHash": "0xa380f0dc79dd83c529705ed471585e1ea5ad2a048774df17ae839507a4751ff5",
          "transactionIndex": "0x2",
          "logIndex": "0x5",
          "removed": false
        }
      ],
      "status": "0x1",
      "logsBloom": "0x00000000000000020000000000000000000000000000000000000000000000000000000000000000000000000000000000000000000000000000000000200000000010000000000000200000000000000000000000000000000400000000000000000000000000000000000002000000000000000000000000000000000000000000000000000000000000000000000000000000000000000000000000000000024000000000000000000000000000000000000000000000000000000000000000008000000000000000000000000000000000000080000000000000000000000010000000000000000000000000000010000000000000000000000000000000",
      "type": "0x2",
      "effectiveGasPrice": "0x989680"
    },
    {
      "transactionHash": "0x5f5dc354e99709c82843fe302ccc00725bb9a56e5ef318c723e4fbdf23fa390a",
      "transactionIndex": "0x6",
      "blockHash": "0xb67bbee23f0d2b8e1c69f4fce65d9ecc663b59a6503cebd952e8923a5c614324",
      "blockNumber": "0xc02e141",
      "from": "0xe0D2d6956c1D9fa49c29A69F2E49f5f176aa27fd",
      "to": "0x43AD791b195c86c03f50d419121d0927A9D86dCF",
      "cumulativeGasUsed": "0xf47ef",
      "gasUsed": "0x13b1f",
      "contractAddress": null,
      "logs": [
        {
          "address": "0xDA10009cBd5D07dd0CeCc66161FC93D7c9000da1",
          "topics": [
            "0x8c5be1e5ebec7d5bd14f71427d1e84f3dd0314c0f7b2291e5b200ac8c7c3b925",
            "0x00000000000000000000000043ad791b195c86c03f50d419121d0927a9d86dcf",
            "0x000000000000000000000000216b4b4ba9f3e719726886d34a177484278bfcae"
          ],
          "data": "0xffffffffffffffffffffffffffffffffffffffffffffffffffffffffffffffff",
          "blockHash": "0xb67bbee23f0d2b8e1c69f4fce65d9ecc663b59a6503cebd952e8923a5c614324",
          "blockNumber": "0xc02e141",
          "transactionHash": "0x5f5dc354e99709c82843fe302ccc00725bb9a56e5ef318c723e4fbdf23fa390a",
          "transactionIndex": "0x6",
          "logIndex": "0x17",
          "removed": false
        }
      ],
      "status": "0x1",
      "logsBloom": "0x00000000000000020000000000000000000000000000000000000000000000000000000000000000000000000000000000000000000000000000000000200000000000000000000001200000000000000000000000000000000400000000000000000000000000000000000002000000000000000000000000000000000000000000000000000000000000000000000000000000000000000000000000000000024000000000000000000000000000000000000000000000000000000000000000000000000000000000000000000000200000000080000000000000000000000010000020000000000000000000000000000000000000000000000000000000",
      "type": "0x2",
      "effectiveGasPrice": "0x989680"
    },
    {
      "transactionHash": "0xad580317bd105192a5b48ac83aad09388c8cd2d36ece4f920a1998d156954183",
      "transactionIndex": "0x8",
      "blockHash": "0x680758db5cd816d2ae1709d2bd7e36a355badda21adbc6e9381c88d4e1c4674c",
      "blockNumber": "0xc02e146",
      "from": "0xe0D2d6956c1D9fa49c29A69F2E49f5f176aa27fd",
      "to": "0x43AD791b195c86c03f50d419121d0927A9D86dCF",
      "cumulativeGasUsed": "0x2321e4",
      "gasUsed": "0x13c09",
      "contractAddress": null,
      "logs": [
        {
          "address": "0xFEa7a6a0B346362BF88A9e4A88416B77a57D6c2A",
          "topics": [
            "0x8c5be1e5ebec7d5bd14f71427d1e84f3dd0314c0f7b2291e5b200ac8c7c3b925",
            "0x00000000000000000000000043ad791b195c86c03f50d419121d0927a9d86dcf",
            "0x000000000000000000000000216b4b4ba9f3e719726886d34a177484278bfcae"
          ],
          "data": "0xffffffffffffffffffffffffffffffffffffffffffffffffffffffffffffffff",
          "blockHash": "0x680758db5cd816d2ae1709d2bd7e36a355badda21adbc6e9381c88d4e1c4674c",
          "blockNumber": "0xc02e146",
          "transactionHash": "0xad580317bd105192a5b48ac83aad09388c8cd2d36ece4f920a1998d156954183",
          "transactionIndex": "0x8",
          "logIndex": "0x2c",
          "removed": false
        }
      ],
      "status": "0x1",
      "logsBloom": "0x00000000000000020000000000000000000000000000000000000000000000000000000020000000000000000000000000000000000000000000000000200000000000000000000000200000000000000000000000000000000400000000000000000000000000000000000002000000000000000000000000000000000000000000000000000000000000000000000000000000000000000000080000000000024000000000000000000010000000000000000000000000000000000000000000000000000000000000000000000000000000000080000000000000000000000010000000000000000000000000000000000000000000000000000000000000",
      "type": "0x2",
      "effectiveGasPrice": "0x989680"
    }
  ],
  "libraries": [],
  "pending": [],
  "returns": {},
  "timestamp": 1713245334,
  "chain": 42161,
  "commit": "bf96c5d"
}