{
  "transactions": [
    {
      "hash": "0x0c86106af82a877b90bf1bcacc567f69ee10b6af0ac313fac37cba075eed8ecc",
      "transactionType": "CREATE2",
      "contractName": "SwapBridge",
      "contractAddress": "0x450AB8c081bA8f6a993FD53c54cf1175D875670a",
      "function": null,
      "arguments": null,
      "transaction": {
        "type": "0x02",
        "from": "0xe0d2d6956c1d9fa49c29a69f2e49f5f176aa27fd",
        "to": "0x4e59b44847b379578588920ca78fbf26c0b4956c",
        "gas": "0xef5220",
        "value": "0x0",
        "data": "0xfa1d23fff40000000000000000000000000000000000000000000000000000006080604052348015600f57600080fd5b50610c278061001f6000396000f3fe60806040526004361061003f5760003560e01c80636bc5f16114610044578063aec42a1714610072578063c4d66de814610094578063f316d227146100b4575b600080fd5b34801561005057600080fd5b506100596100c7565b6040805192835260208301919091520160405180910390f35b34801561007e57600080fd5b5061009261008d36600461097c565b610160565b005b3480156100a057600080fd5b506100926100af3660046109b5565b610171565b6100926100c23660046109d2565b6101e2565b6000806000806100da600160f81b61048e565b6000546040516308d172cd60e31b815292945090925061010090046001600160a01b03169063468b9668906101159085908590600401610ae9565b6040805180830381865afa158015610131573d6000803e3d6000fd5b505050506040513d601f19601f820116820180604052508101906101559190610b27565b909590945092505050565b61016d82826000196104f7565b5050565b60005460ff16156101b85760405162461bcd60e51b815260206004820152600c60248201526b105b1c9958591e481a5b9a5d60a21b60448201526064015b60405180910390fd5b600080546001600160a01b03909216610100026001600160a81b0319909216919091176001179055565b6101ee8833308a6105bb565b61022e8383838080601f0160208091040260200160405190810160405280939291908181526020018383808284376000920191909152506105f492505050565b506040516370a0823160e01b81523060048201526000906001600160a01b038816906370a0823190602401602060405180830381865afa158015610276573d6000803e3d6000fd5b505050506040513d601f19601f8201168201806040525081019061029a9190610b4b565b9050858110156102d75760405162461bcd60e51b81526020600482015260086024820152671d1bd05b5bdd5b9d60c21b60448201526064016101af565b6040516370a0823160e01b81523060048201526000906001600160a01b038b16906370a0823190602401602060405180830381865afa15801561031e573d6000803e3d6000fd5b505050506040513d601f19601f820116820180604052508101906103429190610b4b565b90508015610355576103558a3383610609565b6000806103618861048e565b600054604051633b5484cd60e11b815292945090925061010090046001600160a01b0316906376a9099a9034906103a4908e908d908a9089908990600401610b64565b6000604051808303818588803b1580156103bd57600080fd5b505af11580156103d1573d6000803e3d6000fd5b50506040516370a0823160e01b81523060048201526001600160a01b038e1693506370a0823192506024019050602060405180830381865afa15801561041b573d6000803e3d6000fd5b505050506040513d601f19601f8201168201806040525081019061043f9190610b4b565b156104805760405162461bcd60e51b8152602060048201526011602482015270746f546f6b656e2072656d61696e696e6760781b60448201526064016101af565b505050505050505050505050565b604080518082019091526000808252602082015260606040518060400160405280336001600160a01b0316815260200160006001600160a01b031681525091506104f061271060405180604001604052806126b081526020018681525061063f565b9050915091565b604080516001600160a01b038416602482015260448082018490528251808303909101815260649091019091526020810180516001600160e01b031663095ea7b360e01b1790526105488482610737565b6105b5576040516001600160a01b038481166024830152600060448301526105ab91869182169063095ea7b3906064015b604051602081830303815290604052915060e01b6020820180516001600160e01b0383818316178352505050506107df565b6105b584826107df565b50505050565b6040516001600160a01b0384811660248301528381166044830152606482018390526105b59186918216906323b872dd90608401610579565b606061060283836000610842565b9392505050565b6040516001600160a01b0383811660248301526044820183905261063a91859182169063a9059cbb90606401610579565b505050565b805160609061069e5760405162461bcd60e51b815260206004820152602560248201527f41697264726f7020616d6f756e74206d75737420626520677265617465722074604482015264068616e20360dc1b60648201526084016101af565b60208201516106ef5760405162461bcd60e51b815260206004820152601b60248201527f41697264726f702061646472657373206d75737420626520736574000000000060448201526064016101af565b8151602080840151604051600160f11b928101929092526022820186905260428201929092526062810191909152608201604051602081830303815290604052905092915050565b6000806000846001600160a01b0316846040516107549190610bb3565b6000604051808303816000865af19150503d8060008114610791576040519150601f19603f3d011682016040523d82523d6000602084013e610796565b606091505b50915091508180156107c05750805115806107c05750808060200190518101906107c09190610bcf565b80156107d657506000856001600160a01b03163b115b95945050505050565b60006107f46001600160a01b038416836105f4565b905080516000141580156108195750808060200190518101906108179190610bcf565b155b1561063a57604051635274afe760e01b81526001600160a01b03841660048201526024016101af565b6060814710156108675760405163cd78605960e01b81523060048201526024016101af565b600080856001600160a01b031684866040516108839190610bb3565b60006040518083038185875af1925050503d80600081146108c0576040519150601f19603f3d011682016040523d82523d6000602084013e6108c5565b606091505b50915091506108d58683836108df565b9695505050505050565b6060826108f4576108ef8261093b565b610602565b815115801561090b57506001600160a01b0384163b155b1561093457604051639996b31560e01b81526001600160a01b03851660048201526024016101af565b5080610602565b80511561094b5780518082602001fd5b604051630a12f52160e11b815260040160405180910390fd5b50565b6001600160a01b038116811461096457600080fd5b6000806040838503121561098f57600080fd5b823561099a81610967565b915060208301356109aa81610967565b809150509250929050565b6000602082840312156109c757600080fd5b813561060281610967565b60008060008060008060008060e0898b0312156109ee57600080fd5b88356109f981610967565b9750602089013596506040890135610a1081610967565b9550606089013594506080890135935060a0890135610a2e81610967565b925060c089013567ffffffffffffffff80821115610a4b57600080fd5b818b0191508b601f830112610a5f57600080fd5b813581811115610a6e57600080fd5b8c6020828501011115610a8057600080fd5b6020830194508093505050509295985092959890939650565b60005b83811015610ab4578181015183820152602001610a9c565b50506000910152565b60008151808452610ad5816020860160208601610a99565b601f01601f19169290920160200192915050565b610b09818480516001600160a01b03908116835260209182015116910152565b606060408201526000610b1f6060830184610abd565b949350505050565b60008060408385031215610b3a57600080fd5b505080516020909101519092909150565b600060208284031215610b5d57600080fd5b5051919050565b6001600160a01b03868116825260208083018790526040830186905284518216606084015284015116608082015260c060a08201526000610ba860c0830184610abd565b979650505050505050565b60008251610bc5818460208701610a99565b9190910192915050565b600060208284031215610be157600080fd5b8151801515811461060257600080fdfea2646970667358221220f2dcab6f2508bf7974c32b9e86b2c75dee84bec82840cb5d29446cba7414c99364736f6c63430008190033",
        "nonce": "0x0",
        "accessList": []
      },
      "additionalContracts": [],
      "isFixedGasLimit": false
    },
    {
      "hash": "0x4dbc647361eb9e64c2361163efccdf71c75e76c59fb80c3def51c664431f98f4",
      "transactionType": "CALL",
      "contractName": "SwapBridge",
      "contractAddress": "0x450AB8c081bA8f6a993FD53c54cf1175D875670a",
      "function": "initialize(address)",
      "arguments": [
        "0x1BAcC2205312534375c8d1801C27D28370656cFf"
      ],
      "transaction": {
        "type": "0x02",
        "from": "0xe0d2d6956c1d9fa49c29a69f2e49f5f176aa27fd",
        "to": "0x450ab8c081ba8f6a993fd53c54cf1175d875670a",
        "gas": "0x13b7ae",
        "value": "0x0",
        "data": "0xc4d66de80000000000000000000000001bacc2205312534375c8d1801c27d28370656cff",
        "nonce": "0x1",
        "accessList": []
      },
      "additionalContracts": [],
      "isFixedGasLimit": false
    },
    {
      "hash": "0x778610330a7faac1e5f89d3964375cceb5e8135970a92a7853f6fe74a362e179",
      "transactionType": "CALL",
      "contractName": "SwapBridge",
      "contractAddress": "0x450AB8c081bA8f6a993FD53c54cf1175D875670a",
      "function": "approveMax(address,address)",
      "arguments": [
        "0xFF970A61A04b1cA14834A43f5dE4533eBDDB5CC8",
        "0x1BAcC2205312534375c8d1801C27D28370656cFf"
      ],
      "transaction": {
        "type": "0x02",
        "from": "0xe0d2d6956c1d9fa49c29a69f2e49f5f176aa27fd",
        "to": "0x450ab8c081ba8f6a993fd53c54cf1175d875670a",
        "gas": "0x174cda",
        "value": "0x0",
        "data": "0xaec42a17000000000000000000000000ff970a61a04b1ca14834a43f5de4533ebddb5cc80000000000000000000000001bacc2205312534375c8d1801c27d28370656cff",
        "nonce": "0x2",
        "accessList": []
      },
      "additionalContracts": [],
      "isFixedGasLimit": false
    },
    {
      "hash": "0xff99040fe50a63c5637f9839cd6197d0c062e397c0f924af0abcef39c804a939",
      "transactionType": "CALL",
      "contractName": "SwapBridge",
      "contractAddress": "0x450AB8c081bA8f6a993FD53c54cf1175D875670a",
      "function": "approveMax(address,address)",
      "arguments": [
        "0xaf88d065e77c8cC2239327C5EDb3A432268e5831",
        "0x216B4B4Ba9F3e719726886d34a177484278Bfcae"
      ],
      "transaction": {
        "type": "0x02",
        "from": "0xe0d2d6956c1d9fa49c29a69f2e49f5f176aa27fd",
        "to": "0x450ab8c081ba8f6a993fd53c54cf1175d875670a",
        "gas": "0x174cda",
        "value": "0x0",
        "data": "0xaec42a17000000000000000000000000af88d065e77c8cc2239327c5edb3a432268e5831000000000000000000000000216b4b4ba9f3e719726886d34a177484278bfcae",
        "nonce": "0x3",
        "accessList": []
      },
      "additionalContracts": [],
      "isFixedGasLimit": false
    },
    {
      "hash": "0xa4518f2360f9131a29030e5fa5599bcec21845dc9c3949585bc1a6d70a8cc1fd",
      "transactionType": "CALL",
      "contractName": "SwapBridge",
      "contractAddress": "0x450AB8c081bA8f6a993FD53c54cf1175D875670a",
      "function": "approveMax(address,address)",
      "arguments": [
        "0xFd086bC7CD5C481DCC9C85ebE478A1C0b69FCbb9",
        "0x216B4B4Ba9F3e719726886d34a177484278Bfcae"
      ],
      "transaction": {
        "type": "0x02",
        "from": "0xe0d2d6956c1d9fa49c29a69f2e49f5f176aa27fd",
        "to": "0x450ab8c081ba8f6a993fd53c54cf1175d875670a",
        "gas": "0x174cda",
        "value": "0x0",
        "data": "0xaec42a17000000000000000000000000fd086bc7cd5c481dcc9c85ebe478a1c0b69fcbb9000000000000000000000000216b4b4ba9f3e719726886d34a177484278bfcae",
        "nonce": "0x4",
        "accessList": []
      },
      "additionalContracts": [],
      "isFixedGasLimit": false
    },
    {
      "hash": "0x3ff0ee343fbbff3c4f46991ba6159fb560548d579d229bef9050c54bf7dd3ec4",
      "transactionType": "CALL",
      "contractName": "SwapBridge",
      "contractAddress": "0x450AB8c081bA8f6a993FD53c54cf1175D875670a",
      "function": "approveMax(address,address)",
      "arguments": [
        "0xDA10009cBd5D07dd0CeCc66161FC93D7c9000da1",
        "0x216B4B4Ba9F3e719726886d34a177484278Bfcae"
      ],
      "transaction": {
        "type": "0x02",
        "from": "0xe0d2d6956c1d9fa49c29a69f2e49f5f176aa27fd",
        "to": "0x450ab8c081ba8f6a993fd53c54cf1175d875670a",
        "gas": "0x174cba",
        "value": "0x0",
        "data": "0xaec42a17000000000000000000000000da10009cbd5d07dd0cecc66161fc93d7c9000da1000000000000000000000000216b4b4ba9f3e719726886d34a177484278bfcae",
        "nonce": "0x5",
        "accessList": []
      },
      "additionalContracts": [],
      "isFixedGasLimit": false
    },
    {
      "hash": "0x9db048501babdb5f5a04512b2ab4a1388cb6d0cc212fd9badbb3e429ef29552a",
      "transactionType": "CALL",
      "contractName": "SwapBridge",
      "contractAddress": "0x450AB8c081bA8f6a993FD53c54cf1175D875670a",
      "function": "approveMax(address,address)",
      "arguments": [
        "0xFEa7a6a0B346362BF88A9e4A88416B77a57D6c2A",
        "0x216B4B4Ba9F3e719726886d34a177484278Bfcae"
      ],
      "transaction": {
        "type": "0x02",
        "from": "0xe0d2d6956c1d9fa49c29a69f2e49f5f176aa27fd",
        "to": "0x450ab8c081ba8f6a993fd53c54cf1175d875670a",
        "gas": "0x174cda",
        "value": "0x0",
        "data": "0xaec42a17000000000000000000000000fea7a6a0b346362bf88a9e4a88416b77a57d6c2a000000000000000000000000216b4b4ba9f3e719726886d34a177484278bfcae",
        "nonce": "0x6",
        "accessList": []
      },
      "additionalContracts": [],
      "isFixedGasLimit": false
    }
  ],
  "receipts": [
    {
      "transactionHash": "0x0c86106af82a877b90bf1bcacc567f69ee10b6af0ac313fac37cba075eed8ecc",
      "transactionIndex": "0x2",
      "blockHash": "0x32175b4621d27f9a43e40eb9a82d76b3c2fb44d1d1ff5486b7ecbc1360909f0a",
      "blockNumber": "0xba1e64e",
      "from": "0xe0D2d6956c1D9fa49c29A69F2E49f5f176aa27fd",
      "to": "0x4e59b44847b379578588920cA78FbF26c0B4956C",
      "cumulativeGasUsed": "0xc9c679",
      "gasUsed": "0xa4f316",
      "contractAddress": null,
      "logs": [],
      "status": "0x1",
      "logsBloom": "0x00000000000000000000000000000000000000000000000000000000000000000000000000000000000000000000000000000000000000000000000000000000000000000000000000000000000000000000000000000000000000000000000000000000000000000000000000000000000000000000000000000000000000000000000000000000000000000000000000000000000000000000000000000000000000000000000000000000000000000000000000000000000000000000000000000000000000000000000000000000000000000000000000000000000000000000000000000000000000000000000000000000000000000000000000000000",
      "type": "0x2",
      "effectiveGasPrice": "0x989680"
    },
    {
      "transactionHash": "0x4dbc647361eb9e64c2361163efccdf71c75e76c59fb80c3def51c664431f98f4",
      "transactionIndex": "0x4",
      "blockHash": "0xd48a2c8b399ddc27668c8ae1cd1dafddbae9f08876396246d10435624822bfc6",
      "blockNumber": "0xba1e652",
      "from": "0xe0D2d6956c1D9fa49c29A69F2E49f5f176aa27fd",
      "to": "0x450AB8c081bA8f6a993FD53c54cf1175D875670a",
      "cumulativeGasUsed": "0x5d1274",
      "gasUsed": "0xc14aa",
      "contractAddress": null,
      "logs": [],
      "status": "0x1",
      "logsBloom": "0x00000000000000000000000000000000000000000000000000000000000000000000000000000000000000000000000000000000000000000000000000000000000000000000000000000000000000000000000000000000000000000000000000000000000000000000000000000000000000000000000000000000000000000000000000000000000000000000000000000000000000000000000000000000000000000000000000000000000000000000000000000000000000000000000000000000000000000000000000000000000000000000000000000000000000000000000000000000000000000000000000000000000000000000000000000000",
      "type": "0x2",
      "effectiveGasPrice": "0x989680"
    },
    {
      "transactionHash": "0x778610330a7faac1e5f89d3964375cceb5e8135970a92a7853f6fe74a362e179",
      "transactionIndex": "0x4",
      "blockHash": "0x01d1b6f656d4bc403e1556b6e49ee4f130fdabe343272c65d07c7d9a35fbcae7",
      "blockNumber": "0xba1e656",
      "from": "0xe0D2d6956c1D9fa49c29A69F2E49f5f176aa27fd",
      "to": "0x450AB8c081bA8f6a993FD53c54cf1175D875670a",
      "cumulativeGasUsed": "0x632cb4",
      "gasUsed": "0xede3a",
      "contractAddress": null,
      "logs": [
        {
          "address": "0xFF970A61A04b1cA14834A43f5dE4533eBDDB5CC8",
          "topics": [
            "0x8c5be1e5ebec7d5bd14f71427d1e84f3dd0314c0f7b2291e5b200ac8c7c3b925",
            "0x000000000000000000000000450ab8c081ba8f6a993fd53c54cf1175d875670a",
            "0x0000000000000000000000001bacc2205312534375c8d1801c27d28370656cff"
          ],
          "data": "0xffffffffffffffffffffffffffffffffffffffffffffffffffffffffffffffff",
          "blockHash": "0x01d1b6f656d4bc403e1556b6e49ee4f130fdabe343272c65d07c7d9a35fbcae7",
          "blockNumber": "0xba1e656",
          "transactionHash": "0x778610330a7faac1e5f89d3964375cceb5e8135970a92a7853f6fe74a362e179",
          "transactionIndex": "0x4",
          "logIndex": "0x16",
          "removed": false
        }
      ],
      "status": "0x1",
      "logsBloom": "0x00000000000000000000000000000000000000000000000000000000000000100008000000000000000000000000000000000000000000000000000000200000000000000000000000000000000000000000000000000000000000000000000000000000000000000000000000000000000000004000000000000004000000000000000000000000000000000000000000000000020000000000000000000000020000000000000000000000000000000000000000000000000000000000000000000000000000000000000100000000000000000100200000000000000000000010000000000000000800000000000000000000000000000000000000000000",
      "type": "0x2",
      "effectiveGasPrice": "0x989680"
    },
    {
      "transactionHash": "0xff99040fe50a63c5637f9839cd6197d0c062e397c0f924af0abcef39c804a939",
      "transactionIndex": "0x4",
      "blockHash": "0x4e880f69c21cadca8b76afe963e18004f9760a7cfcea24ba9ade84e86939409f",
      "blockNumber": "0xba1e65b",
      "from": "0xe0D2d6956c1D9fa49c29A69F2E49f5f176aa27fd",
      "to": "0x450AB8c081bA8f6a993FD53c54cf1175D875670a",
      "cumulativeGasUsed": "0x65138b",
      "gasUsed": "0xecc44",
      "contractAddress": null,
      "logs": [
        {
          "address": "0xaf88d065e77c8cC2239327C5EDb3A432268e5831",
          "topics": [
            "0x8c5be1e5ebec7d5bd14f71427d1e84f3dd0314c0f7b2291e5b200ac8c7c3b925",
            "0x000000000000000000000000450ab8c081ba8f6a993fd53c54cf1175d875670a",
            "0x000000000000000000000000216b4b4ba9f3e719726886d34a177484278bfcae"
          ],
          "data": "0xffffffffffffffffffffffffffffffffffffffffffffffffffffffffffffffff",
          "blockHash": "0x4e880f69c21cadca8b76afe963e18004f9760a7cfcea24ba9ade84e86939409f",
          "blockNumber": "0xba1e65b",
          "transactionHash": "0xff99040fe50a63c5637f9839cd6197d0c062e397c0f924af0abcef39c804a939",
          "transactionIndex": "0x4",
          "logIndex": "0x16",
          "removed": false
        }
      ],
      "status": "0x1",
      "logsBloom": "0x00000000000000020000000000000000000000000000000000000000000000000008000000000000000000000000000000000001000000000000000000200000000000000000000000200000000000000000000000000000000000000000000000000000000000000000000000000000000000000000000000000000000000000000000000000000000000000000000000000000000000000000000000000000024000000000000000000000000000000000000000000000000000000000000000002000000000000000000100000000000000000100000000000000000000000010000000000000000000000000200000000000000000000000000000000000",
      "type": "0x2",
      "effectiveGasPrice": "0x989680"
    },
    {
      "transactionHash": "0xa4518f2360f9131a29030e5fa5599bcec21845dc9c3949585bc1a6d70a8cc1fd",
      "transactionIndex": "0x6",
      "blockHash": "0x6829948b95a96522a596f4fdbab716ef2a2c9bccac5b5a140c8ae885ea5b6e22",
      "blockNumber": "0xba1e679",
      "from": "0xe0D2d6956c1D9fa49c29A69F2E49f5f176aa27fd",
      "to": "0x450AB8c081bA8f6a993FD53c54cf1175D875670a",
      "cumulativeGasUsed": "0x6ba879",
      "gasUsed": "0xec4e3",
      "contractAddress": null,
      "logs": [
        {
          "address": "0xFd086bC7CD5C481DCC9C85ebE478A1C0b69FCbb9",
          "topics": [
            "0x8c5be1e5ebec7d5bd14f71427d1e84f3dd0314c0f7b2291e5b200ac8c7c3b925",
            "0x000000000000000000000000450ab8c081ba8f6a993fd53c54cf1175d875670a",
            "0x000000000000000000000000216b4b4ba9f3e719726886d34a177484278bfcae"
          ],
          "data": "0xffffffffffffffffffffffffffffffffffffffffffffffffffffffffffffffff",
          "blockHash": "0x6829948b95a96522a596f4fdbab716ef2a2c9bccac5b5a140c8ae885ea5b6e22",
          "blockNumber": "0xba1e679",
          "transactionHash": "0xa4518f2360f9131a29030e5fa5599bcec21845dc9c3949585bc1a6d70a8cc1fd",
          "transactionIndex": "0x6",
          "logIndex": "0xb",
          "removed": false
        }
      ],
      "status": "0x1",
      "logsBloom": "0x00000000000000020000000000000000000000000000000000000000000000000008000000000000000000000000000000000000000000000000000000200000000010000000000000200000000000000000000000000000000000000000000000000000000000000000000000000000000000000000000000000000000000000000000000000000000000000000000000000000000000000000000000000000024000000000000000000000000000000000000000000000000000000000000000008000000000000000000100000000000000000100000000000000000000000010000000000000000000000000000010000000000000000000000000000000",
      "type": "0x2",
      "effectiveGasPrice": "0x989680"
    },
    {
      "transactionHash": "0x3ff0ee343fbbff3c4f46991ba6159fb560548d579d229bef9050c54bf7dd3ec4",
      "transactionIndex": "0x4",
      "blockHash": "0x1cd466e306819266e949a0d58f25ed0811e84ee420d4a34c3a3b20e002d32746",
      "blockNumber": "0xba1e67d",
      "from": "0xe0D2d6956c1D9fa49c29A69F2E49f5f176aa27fd",
      "to": "0x450AB8c081bA8f6a993FD53c54cf1175D875670a",
      "cumulativeGasUsed": "0x9778f0",
      "gasUsed": "0xea784",
      "contractAddress": null,
      "logs": [
        {
          "address": "0xDA10009cBd5D07dd0CeCc66161FC93D7c9000da1",
          "topics": [
            "0x8c5be1e5ebec7d5bd14f71427d1e84f3dd0314c0f7b2291e5b200ac8c7c3b925",
            "0x000000000000000000000000450ab8c081ba8f6a993fd53c54cf1175d875670a",
            "0x000000000000000000000000216b4b4ba9f3e719726886d34a177484278bfcae"
          ],
          "data": "0xffffffffffffffffffffffffffffffffffffffffffffffffffffffffffffffff",
          "blockHash": "0x1cd466e306819266e949a0d58f25ed0811e84ee420d4a34c3a3b20e002d32746",
          "blockNumber": "0xba1e67d",
          "transactionHash": "0x3ff0ee343fbbff3c4f46991ba6159fb560548d579d229bef9050c54bf7dd3ec4",
          "transactionIndex": "0x4",
          "logIndex": "0x1a",
          "removed": false
        }
      ],
      "status": "0x1",
      "logsBloom": "0x00000000000000020000000000000000000000000000000000000000000000000008000000000000000000000000000000000000000000000000000000200000000000000000000001200000000000000000000000000000000000000000000000000000000000000000000000000000000000000000000000000000000000000000000000000000000000000000000000000000000000000000000000000000024000000000000000000000000000000000000000000000000000000000000000000000000000000000000100000000200000000100000000000000000000000010000020000000000000000000000000000000000000000000000000000000",
      "type": "0x2",
      "effectiveGasPrice": "0x989680"
    },
    {
      "transactionHash": "0x9db048501babdb5f5a04512b2ab4a1388cb6d0cc212fd9badbb3e429ef29552a",
      "transactionIndex": "0x3",
      "blockHash": "0x68a4713339dd6a89f9884c7f2631439dde1d0410438b1127a5ddfd19eb342730",
      "blockNumber": "0xba1e681",
      "from": "0xe0D2d6956c1D9fa49c29A69F2E49f5f176aa27fd",
      "to": "0x450AB8c081bA8f6a993FD53c54cf1175D875670a",
      "cumulativeGasUsed": "0x450778",
      "gasUsed": "0xe9537",
      "contractAddress": null,
      "logs": [
        {
          "address": "0xFEa7a6a0B346362BF88A9e4A88416B77a57D6c2A",
          "topics": [
            "0x8c5be1e5ebec7d5bd14f71427d1e84f3dd0314c0f7b2291e5b200ac8c7c3b925",
            "0x000000000000000000000000450ab8c081ba8f6a993fd53c54cf1175d875670a",
            "0x000000000000000000000000216b4b4ba9f3e719726886d34a177484278bfcae"
          ],
          "data": "0xffffffffffffffffffffffffffffffffffffffffffffffffffffffffffffffff",
          "blockHash": "0x68a4713339dd6a89f9884c7f2631439dde1d0410438b1127a5ddfd19eb342730",
          "blockNumber": "0xba1e681",
          "transactionHash": "0x9db048501babdb5f5a04512b2ab4a1388cb6d0cc212fd9badbb3e429ef29552a",
          "transactionIndex": "0x3",
          "logIndex": "0x7",
          "removed": false
        }
      ],
      "status": "0x1",
      "logsBloom": "0x00000000000000020000000000000000000000000000000000000000000000000008000020000000000000000000000000000000000000000000000000200000000000000000000000200000000000000000000000000000000000000000000000000000000000000000000000000000000000000000000000000000000000000000000000000000000000000000000000000000000000000000080000000000024000000000000000000010000000000000000000000000000000000000000000000000000000000000000100000000000000000100000000000000000000000010000000000000000000000000000000000000000000000000000000000000",
      "type": "0x2",
      "effectiveGasPrice": "0x989680"
    }
  ],
  "libraries": [],
  "pending": [],
  "returns": {},
  "timestamp": 1711646158,
  "chain": 42161,
  "commit": "ca89e5c"
}